:020000040002F8
:1070000058560020C5730200CD730200CF730200F2
:10701000D1730200D3730200D57302000000000098
:10702000000000000000000000000000D773020014
:10703000D973020000000000DB730200DD73020060
:1070400021760200DF73020069780200DF7302001C
:10705000DF730200DF7302007D750200DF73020040
:10706000DF730200DF730200DF730200DF730200D0
:10707000DF730200DF730200DF730200DF730200C0
:10708000DF73020079760200DF730200DF73020013
:10709000DF730200DF73020089760200DF730200F3
:1070A000DF730200DF730200DF730200DF73020090
:1070B000DF730200DF730200000000000000000028
:1070C000DF730200DF730200DF730200DF73020070
:1070D000DF730200DF730200DF730200DF73020060
:1070E000DF730200DF730200DF73020000000000A4
:1070F00000000000DF73020000000000DF730200E8
:10710000000000000000000000000000000000007F
:10711000000000000000000000000000000000006F
:10712000000000000000000000000000000000005F
:10713000000000000000000000000000000000004F
:10714000000000000000000000000000000000003F
:10715000000000000000000000000000000000002F
:10716000000000000000000000000000000000001F
:10717000000000000000000000000000000000000F
:1071800000000000000000000000000000000000FF
:1071900000000000000000000000000000000000EF
:1071A00000000000000000000000000000000000DF
:1071B00000000000000000000000000000000000CF
:1071C00000000000000000000000000000000000BF
:1071D00000000000000000000000000000000000AF
:1071E000000000000000000000000000000000009F
:1071F000000000000000000000000000000000008F
:10720000DFF810D000F07CF90048004789B5020093
:10721000AFF300805856002030B450E8012F93B2ED
:10722000C48923448489A34228BF1B1B0489A34229
:1072300002BFBFF32F8F002007E0C3EA020340E83C
:107240000134002CE9D14FF001000A6030BC7047D6
:1072500050E8012FC2EA024240E801210029F7D19B
:10726000704730B450E8022F1FFAA2F3C488A3423B
:1072700002BFBFF32F8F00200DE0C489234484890F
:10728000A34228BF1B1BC2EA034340E80234002C80
:10729000E8D14FF001000A6030BC704750E8022F7F
:1072A000C2EA224240E802210029F7D17047034692
:1072B00053E8022FD988B2EB324F4FF0000017BFCE
:1072C00092B241EA014142EA014104E05A68B2EB5C
:1072D000324F08BF012043E80212002AE8D170476C
:1072E00030B4044654E8000F0D4644E80053002B28
:1072F000F8D1156030BC704730B4044654E8000F34
:1073000040EA010544E80053002BF7D1156030BC7A
:10731000704730B4044654E8000F00EA010544E821
:107320000053002BF7D1156030BC704730B40446D1
:1073300054E8000F80EA010544E80053002BF7D120
:10734000156030BC704730B4044654E8000F00EBC1
:10735000010544E80053002BF7D1156030BC70479D
:1073600030B4044654E8000FA0EB010544E8005394
:10737000002BF7D1156030BC704770B404464FF055
:10738000000054E8006F0D68AE4207BF44E80023D8
:10739000012044E800630E60002B1CBF0020F0E7D2
:1073A00070BC704730B4044654E8000F88422CBFCC
:1073B000451A054644E80053002BF5D1156030BC52
:1073C000704700000648804706480047FEE7FEE792
:1073D000FEE7FEE7FEE7FEE7FEE7FEE7FEE7FEE785
:1073E0008D760200017202002DE9F05F0546002053
:1073F00092469B4688460646814640241BE0284626
:1074000041464746224600F06BF853465A46C01A9A
:10741000914110D311461846224600F016F82D1A55
:1074200067EB01084F4622460120002100F00DF8CD
:1074300017EB00094E41201EA4F10104DFDC484691
:1074400031462A464346BDE8F09F202A04DB203A15
:1074500000FA02F1002070479140C2F1200320FAA7
:1074600003F319439040704700487047901F030092
:1074700040EA01039B0703D009E008C9121F08C0B6
:10748000042AFAD203E011F8013B00F8013B521E36
:10749000F9D27047D2B201E000F8012B491EFBD2AD
:1074A00070470022F6E710B513460A46044619460F
:1074B000FFF7F0FF204610BD421C10F8011B002909
:1074C000FBD1801A704730B504460020034600E027
:1074D0005B1C934203D2E05CCD5C401BF8D030BD16
:1074E000202A04DB203A21FA02F00021704721FA19
:1074F00002F3D040C2F12002914008431946704780
:10750000064C074D06E0E06840F0010394E80700F0
:1075100098471034AC42F6D3FFF776FE3C350300B3
:107520005C35030070B58C1810F8015B15F007038B
:1075300001D110F8013B2A1106D110F8012B03E00C
:1075400010F8016B01F8016B5B1EF9D12B0705D414
:107550000023521E0DD401F8013BFAE710F8013B5D
:10756000CB1A921C03E013F8015B01F8015B521E79
:10757000F9D5A142D8D3002070BD00002DE9FC410F
:107580000025DFF8948000954FF4807601242F4683
:107590000195304605F072F938B1D8F8040320425D
:1075A00003D0304605F060F92543361D64007F1C8A
:1075B000B6B2082FEDD34FF4BE74204605F05EF945
:1075C00048B1204605F050F945F000456A460221D1
:1075D000002005F0B1F815F0FF0F16D001260024A9
:1075E0002E420ED008EB8401D1F81005D1F8101509
:1075F000C0F30520094AC1F3014152F8242002B129
:1076000090477600641C082CEAD3002D02DA684605
:1076100008F08CF8BDE8FC8100600040A42D00203B
:1076200070B54FF48076304604F00CFC114CB50573
:1076300060B1304604F00DFC0120C5F80803607904
:1076400020B9012060712168002088474FF48276BC
:10765000304604F0F7FB00280AD0304604F0F9FB6E
:107660000220C5F808032168BDE8704001200847E2
:1076700070BD00003424002002490248091F096837
:1076800000680847A824002005F07EBE30B54FF002
:1076900080520023D2E94C10082906D1CC06C4F848
:1076A0000C31C4F81031624C2360082955D1614B6C
:1076B0001B68614C23605F4B1B1D1B68241D2360EE
:1076C0005C4B08331B68241D23605A4B0C331B682A
:1076D000241D2360574B10331B68241D2360554B1A
:1076E00014331B68241D2360524B18331B68524C03
:1076F000203423604F4B1C331B68241D23604D4BEB
:1077000020331B68241D23604A4B24331B68241D2F
:107710002360484B28331B68241D2360454B2C33C2
:107720001B68241D2360434B30331B68424C40349C
:107730002360404B34331B68241D23603D4B38339A
:107740001B68241D23603B4B3C331B68241D2360B6
:10775000384B40331B68241D2360082904D10300E3
:1077600002D1374C354B2360082904D1030002D1E4
:10777000344CFB232360082908D1030006D1324B87
:1077800092F858521C6865F303041C60082904D160
:10779000030002D12D4C8B012360082906D12C480F
:1077A0000168C90702D06FF0010101602948016832
:1077B00041F470010160BFF34F8FBFF36F8FD2E9C7
:1077C0004C104FF01022082906D1032804D9D2F812
:1077D0000802174920310860D2F80002002803DBB4
:1077E000D2F8040200281FDA012006F07FFA1221E5
:1077F000C2F8001218480368002BFCD0C2F804122B
:1078000001680029FCD0002006F070FABFF34F8F0A
:1078100010487C380168114A01F4E06111430160AD
:10782000BFF34F8F00BFFDE70E490D48086030BD24
:10783000380500400404001020C5004048810300C2
:107840008C56004018F50040E40E0040409602407F
:107850000004004088ED00E000E401400400FA0567
:107860000090D00368250020014800680047000010
:107870003C24002002E008C8121F08C1002AFAD1E7
:1078800070477047002001E001C1121F002AFBD1A0
:10789000704700000121202803DA8140054801409B
:1078A00003E0402802DA2038814009B10120704706
:1078B00000207047FC06FFBD2DE9F843804643F2E7
:1078C000020659B9694607F001F9B04202D008B181
:1078D00000F02AFA9DF80000800744D400214046B9
:1078E00007F0FEF805003ED0112D3CD01F4820497E
:1078F000401AC708022000EB07440D2D0AD00B2DBB
:107900001DD0B5421FD11B4920464246BDE8F84371
:1079100005F0B6B920464246174905F0B1F91321E2
:10792000404676DF00281ED005F0E0FD024601B09B
:1079300020464346BDE8F04310A105F0A8B9204613
:1079400042461C49E2E7284605F0D0FD02460120E8
:1079500000EB0740434618A105F099F92846BDE819
:10796000F84300F0E1B9BDE8F8830000A435030056
:107970006C35030014270300A026030073645F62C4
:107980006C655F6761705F646973636F6E6E65637A
:107990007428292072657475726E656420257320C1
:1079A0006F6E20636F6E6E5F68616E646C6520251C
:1079B000642E000060270300417373657274696E62
:1079C000672E20706D5F636F6E6E5F736563757297
:1079D0006528292072657475726E65642025732090
:1079E0006F6E20636F6E6E5F68616E646C652025DC
:1079F000642E000010B560B159B102780B785208BE
:107A0000B2EB530F05D10622401C491CFFF75BFD6A
:107A100008B1002010BD012010BD800701D000205A
:107A2000704701207047C3688B4206D81144006933
:107A3000491E814201D8012070470020704790F80C
:107A40002400012801D01F207047EE20704708F065
:107A5000C9BC10B501220221002001F089FA08B149
:107A6000072810D107220221012001F081FA08B174
:107A7000072808D100210A22084601F079FA08B146
:107A8000072800D1002010BD30B5B5B0AC21684644
:107A9000FFF707FD27A232AC07CA84E8070032A827
:107AA00031900A20ADF8C0002FA8099001208DF870
:107AB000000003218DF801108DF8020006218DF8D9
:107AC00003101F4905915923091FADF8BC30ADF8CB
:107AD00010000A78ADF8B03002EBC20404EB4404A5
:107AE00001F108051B232C44ADF8B4302E9400237B
:107AF000521C2CACD2B28DF83C3018940A70032A78
:107B000000D10B708DF87C004FF4967022904FF4EA
:107B1000E16023900B48299069460B4800F00DFC6A
:107B200008B100F001F90121074800F003FC35B06D
:107B300030BD00000102030405060708090100002A
:107B40008422002005DD0200A025002010B560B1D0
:107B50000B480C49401AC008032101EB00400AA160
:107B600005F08AF807F072FD03E003210A4800F0EF
:107B7000AAFC002803D0BDE8104000F0D5B810BD25
:107B8000143603006C350300457261736520626F23
:107B90006E64732100000000A025002070B58CB039
:107BA00015460E4600236C46C3F10F01415CE154BB
:107BB0005B1C102BF8D30D2104F11000FFF771FCB2
:107BC0000020C0F10F02315C2244401C11740328D4
:107BD000F7D3684646DF0020C0F10F01214491F839
:107BE00020102954401C0328F6D30CB070BD02208D
:107BF00001F0C0B80149C97800F028BE0024002077
:107C000070B50024064D06E06868012110F83400C4
:107C100005F0E0FC641C28788442F5D3002070BD98
:107C200048240020F8B516460C4605460A2A01D21B
:107C30000720F8BD05F0C6FD18B905F087FD00283E
:107C4000F7D1134F202113487D603C70BE60FFF7D1
:107C500028FC0020C7E904000F4E0DE005EBC4002E
:107C60003168009181788DF8011000780B4A6946DF
:107C700005F0FCFC0028DCD1641EE4B2EED2BDE8C5
:107C8000F84005480021064A001D00F05FB80000DA
:107C900048240020602E0020E81B030065A8020095
:107CA0008D97020010B572B605F090F804F0CAFE88
:107CB0000028FBD111481249401AC408012000EBEA
:107CC000044010A104F0D8FF11480068C00700D09C
:107CD00000BE022000EB04400EA104F0CDFFBFF374
:107CE0004F8F0B48E43801680E4A01F4E0611143FC
:107CF0000160BFF34F8F00BFFDE7000014360300A3
:107D00006C350300466174616C206572726F72009D
:107D1000F0ED00E053797374656D207265736574DE
:107D2000000000000400FA050EB500210091CDE925
:107D300001106A4644F20100FFF7B4FF0EBD0000D7
:107D4000014801F08ABD00008824002010B55AB116
:107D500000684FF0FF3401294261C0E9024400D0BD
:107D600000210161002010BD072010BD38B5114869
:107D700008235822416800910F49006803F00DFE66
:107D8000002815D10D4A69460D4801F06BFD04002D
:107D90000ED101210A4801F0E0FD0123094A1946EC
:107DA000074801F032FD06490120083908702046D5
:107DB00038BD0000F01B0300902E002025FE0200BD
:107DC00088240020FFFF7F00F8B5044600261746F0
:107DD0000D468DF80060684600F042F8D4E90201D3
:107DE000C04370EA010005D09DF8000000F05CF887
:107DF0000020F8BD02F01CFD40197141C4E90201E8
:107E00009DF8000000F050F8A761206900B12561DD
:107E10002146BDE8F840002009F058B838B50446BE
:107E200000208DF80000684600F01AF8D4E902013D
:107E3000C04370EA01000DD04FF0FF30C4E90200EA
:107E40009DF8000000F030F82146BDE838400120E0
:107E500009F03CB89DF8000000F026F8002038BD7D
:107E600030B5EFF3108172B60D4A9468012324B146
:107E70000370002900D162B630BD93604FF0E0235B
:107E8000D3F88051074C25401560C3F88041D3F8E2
:107E9000844154605A17C3F8842100220270E8E735
:107EA000E82E0020FC06FFBD0B498A68002A11D08D
:107EB00000280FD1EFF3108072B60B684FF0E0226C
:107EC000C2F800314B68C2F8043100228A600028F1
:107ED00000D162B670470000E82E002070B505465C
:107EE00008680C46411C04D004F097FC206804F09C
:107EF000F7FB6068411C02D0002104F0DFFB296819
:107F0000A069C1F82405607D227D29681043C1F86D
:107F10006C05D4E900122868C0F81425C0F80C15C7
:107F2000207D012814D1A068411C02D0002104F05A
:107F3000C5FBE068411C04D004F06FFCE06804F06D
:107F4000CFFBD4E902122868C0F80825C0F8101544
:107F500070BD70B5054608680C46411C04D004F09D
:107F600066FC206804F0C6FB6068411C02D000215A
:107F700004F0ADFB2968A069C1F82405607D217D6E
:107F80002A680843C2F86C05D4E900122868C0F8D2
:107F90000C15C0F81425207D012814D1A068411CBF
:107FA00002D0002104F093FBE068411C04D004F0EF
:107FB0003EFCE06804F09EFBD4E902122868C0F899
:107FC0000825C0F8101570BD03F0A4B92DE9F047DD
:107FD000814605884A484FF000088AB00178424639
:107FE000284600F04BFC99F80500400701D4002119
:107FF00076E005F58077B8B205AB0122072106F0DF
:10800000B9F904003F48404A4FF00101A0EB0200DB
:108010004FEAD00001EB00460AD0204605F066FA90
:10802000024630462B46394904F031FE214629E00C
:10803000284602F005FF4FF6FF71044688422BD117
:108040008A46069802F066FE0446504510D0014666
:10805000284602F0D5FE2846FFF7CCFDE0B92846B9
:1080600008F0A6F92846FFF7C5FD0028BFD013E0A9
:1080700006F056FB0446504508D1304624A104F0D2
:10808000FBFD0421284608F0D1F9B0E70146284657
:1080900002F0B6FE4FF00108B8B22246072106F002
:1080A000E1F907001BD0862F1ED005F01FFA02460B
:1080B00030462B462349009404F0F1FD394628460A
:1080C00008F0B4F90021484606F04CF8B8F1000F6A
:1080D00002D0204602F09EFE0AB0BDE8F0870121E2
:1080E000484606F03FF8F7E7142217496846FFF7BD
:1080F000BFF9ADF80250684601F050FEEFE700000E
:1081000000240020AC3503006C3503005C2A03001A
:10811000436F756C64206E6F7420616C6C6F63616B
:108120007465206E657720706565725F696420668E
:108130006F7220696E636F6D696E6720626F6E6427
:108140002E000000782B0300841B03002DE9FC4760
:10815000002517880646158090F82D00144689469C
:1081600030B13A462146484600F0AEFB051E09D123
:10817000B0784FF00C0A18B32088C846001DB842EA
:1081800002D95046BDE8FC87684679DF0028F9D15E
:108190002088032108F8001020881921401C80B293
:1081A000208008F800102088401C80B2208000EB5E
:1081B0000801BDF8000009F058F821880844208023
:1081C000F0780222C8B1218896F9033001F1030C3E
:1081D0004846BC45D5D8425421884FF0010C491C73
:1081E00089B2218000F801C02188491C89B2218010
:1081F00009F801302088401C20807068B8B12188BF
:1082000090F9003001F1030C4846BC45B9D84254FE
:1082100021880A22491C89B2218042542188491CA4
:1082200089B2218009F801302088401C20803089E3
:1082300050B1CDE900474B460622022106F1080065
:1082400009F002F9051E9DD1308A50B1CDE90047F1
:108250004B460722032106F1100009F0F5F8051E30
:1082600090D1308B50B1CDE900474B4615221421F7
:1082700006F1180009F0E8F8051E83D1306A30B124
:108280003B462246494601F034F9051EDBD1706AAF
:1082900030B13B462246494603F05AFA051ED2D178
:1082A00096F82C0038B13B4622464946304608F045
:1082B000F9F9051EC7D1307838B13B462246494608
:1082C000304603F0D3FA051EBDD128465AE718B54B
:1082D00004460020ADF8000013466A46204600F030
:1082E00006F8002802D0BDF80000204418BD70B583
:1082F000E0B1DAB1002402E0045D2C44A4B2651CB4
:108300008D4206D21688A642F6D8061976789E4285
:10831000F2D18C420AD2A31C005D9BB200B1401E78
:108320000004000C02D01C188C4201D9002070BD42
:10833000138070BD80F8301070472DE9F0410D00BA
:10834000044606D02CB195F87A000026012803D007
:1083500006E00E20BDE8F08195F89800012821D0B4
:108360004FF00108A6702C2205F17801201DFFF7BF
:108370007FF884F83060D5F8A4006063D5F8A800D1
:10838000A0634FF6FF70A4F8240404F58260C4F8DB
:108390002004C4F82664A4F82A6484F82C642078A5
:1083A00010B104E00720D5E7FF2084F8540004F161
:1083B00055072046C4F81074FFF741FBA4F81404D5
:1083C00004F2144239462846FFF7C0FE0028C1D106
:1083D00004F23120C4F818042046FFF730FBA4F85B
:1083E0001C0404F21C4205F13C00D4F81814FFF7F9
:1083F000ADFE0028AED184F85180208BA4F848004F
:1084000084F83C80266484F85060606900216064D0
:10841000454604F13C02781E72DF00289AD125708F
:1084200098E710B50288102A1BD0112A20D0262ADE
:108430001DD1007A0C46012801D0022817D1A0785E
:108440000521401CB0FBF1F201FB1201204600F0B7
:108450003AF800280BD0A16B002908D0BDE81040E5
:108460000847C27B012A02D18088A1F8240410BDEC
:108470000C46002184F82E148088B4F82414884215
:10848000F5D120790028F2D10121DFE710B50446AB
:1084900090F8540074DF012084F82E04002084F842
:1084A000300484F850000621204601F0B2FE002876
:1084B00008D1A178204600F006F810B1A16B01B1F7
:1084C0008847002010BD2DE9F05F044600780F4674
:1084D00098B1A7700025C4F82654A4F82A5484F84B
:1084E0002C54A079012608B1012F09D0E07980B180
:1084F000012F05D0022F03D00BE00820BDE8F09F2C
:10850000616B21B184F82D640820884701E084F86C
:108510002D5404F2274100200A5C0AB1304603E0E2
:10852000401C0628F8D300204FF002084FF0030B40
:10853000012F06D0022F0CD0032F0FD0042F15D1FE
:1085400010E0A17929B194F8241011B908B130468E
:108550000DE0E17911B108B1404608E0207A08B198
:10856000584604E0607A08B1042000E02846A07074
:10857000616B41B1032801D0042804D1607910B1A6
:1085800094F82E0498B184F82F5404F13C0018217B
:108590000746FEF786FF84F83C6004F12C0006F0E5
:1085A000F1F958B194F82C0084F8510008E084F8EF
:1085B000305484F82F6407208847E6E784F8516038
:1085C00094F8240058B104F1280006F0DBF920B13A
:1085D00094F8280084F8520001E084F8526084F88E
:1085E0005050A27804F2264104F582694FF0060A41
:1085F000052A64D2DFE802F07C030F22420084F8EF
:108600003160C4F82054C4E9101584F83C808020FF
:10861000A4F8480055E084F8318094F824203846C6
:1086200012B10722027001E080F800B0228A828134
:10863000C4F820544160E168B96042E06069B86004
:10864000208BB88194F824003D460028204602D0B3
:1086500084F83CA001E084F83C6008F0C1FE50B111
:1086600085F814800421204601F0D3FD38BB052194
:1086700084F8311021E084F831B01EE0E069B86080
:10868000208CB88194F824003D460028204602D072
:1086900084F83CA001E084F83C6008F0A1FE48B1F9
:1086A00085F814800421204601F0B3FD38B984F820
:1086B00031A002E0042084F83100C4F82094A078AE
:1086C00078B13A4604F15400D4F8201472DF00283F
:1086D0007FF414AF94F8301094F8540073DF00283E
:1086E000F6D1616B11B194F831008847002005E79D
:1086F00084F83150F5E7000070B5040012D001464F
:108700001C221448FEF7B4FE1248134D0560206881
:1087100050B17ADF002806D12068016829604068DE
:10872000686005E00E2070BD0B487BDF0028FAD1A1
:1087300008484FF6FF711438084A20F8041B054911
:10874000343901600021FFF701FB0028EBD0032042
:1087500070BD0000142A0020582300207913030064
:1087600010B5044600F0A6F8002805D02146BDE863
:108770001040024803F090B910BD0000402A0020CC
:1087800070B515460E46044608F036FE002809D09E
:10879000054800EB8400C0692A463146BDE87040B8
:1087A00001F064BD70BD0000302A002010B5044601
:1087B00000F080F8002805D02146BDE810400248AE
:1087C00003F06AB910BD0000482A002010B5044625
:1087D00000F070F8002805D02146BDE8104002489E
:1087E00003F05AB910BD0000442A002070B50546B8
:1087F000002400F05FF838B12946044803F04CF932
:1088000008B1022400E00124204670BD3C2A00206B
:1088100070B50546002400F04DF838B129460448EB
:1088200003F03AF908B1022400E00124204670BDAB
:10883000382A002010B51821034803F008F9182839
:1088400000D0C0B210BD0000302A002070B505462F
:108850000C46084608F0D0FD60B1284600F02AF822
:1088600040B10548294600EB8400BDE870401C304B
:1088700003F012B9002070BD302A002070B5054603
:1088800016460C46084608F0B7FD00280ED02846CC
:1088900000F010F8002809D00548324600EB8400AB
:1088A0002946BDE870401C3001F0AEBC70BD000030
:1088B000302A0020142801D30020704701460148C7
:1088C00003F0EAB8342A00207CB5054608880C4637
:1088D0000930904201D90C207CBD68466DDF00282C
:1088E000FAD121880820685420881B21401C80B2BE
:1088F000208029542088401C80B220802844DDF844
:1089000001100160BDF8051081802088801D80B2B3
:1089100020809DF80010490800D0012129542088AA
:10892000401C208000207CBD38B5018804462129E8
:1089300030D012DC1E481F4A1029A0EB02004FEA7B
:10894000D0004FF0030202EB00400ED011292AD1D3
:10895000BDE8384018A104F08FB93B2924D056292E
:1089600021D18088132176DF0EE017A104F084F96D
:10897000072000F01FFB08B1FFF7D6F91548A188C2
:108980004180154803F0E6F900280CD0BDE83840D6
:10899000FFF7CAB900200090A08869468FDF002841
:1089A00001D0FFF7C1F938BD8088132176DFEBE7EE
:1089B000143603006C350300446973636F6E6E6593
:1089C000637465642E000000436F6E6E65637465AA
:1089D000642E0000802200209425002010B51A4C3F
:1089E0000188606810290ED011292BD1401E6060CB
:1089F00028D1FFF72EF8002824D02168002921D0A3
:108A0000BDE810400847D0B900210122084600F017
:108A1000AFFA08B107280FD107220221012000F088
:108A2000A7FA08B1072807D104220221002000F08C
:108A30009FFA20B1072802D0216801B188476068F9
:108A4000401C606010BD0000502300202DE9F0475D
:108A500001883B4E40F2F3194FF6FF7510291BD0E9
:108A600011293ED0122954D0502946D1C188F2890B
:108A7000841D914241D1618902293ED186883046C8
:108A800002F08AFA050038D004F10C0000F02AF94F
:108A9000A8B3294630464EE0C17B878804460129A9
:108AA0002BD1A846284602F077FA050017D02F8070
:108AB00000202872234843464A460168C5F80A1038
:108AC0004068C5F80E0004F1100105F10A0002F03B
:108AD00027FB6872F08900280FD129462AE004207C
:108AE00013E0808802F058FA040006D06068FFF7AF
:108AF00095F908B107F06EFC2580BDE8F087FFE727
:108B00006868FFF78BF90028F7D0BDE8F04707F059
:108B100061BC87880646384602F03EFA0400ECD075
:108B20002B464A4606F1080104F10A0002F0F8FA61
:108B3000607221463846BDE8F04700F021BD0000D4
:108B4000142A0020582300202DE9F04F044686887F
:108B50000188424897B0834610290CD0112950D083
:108B6000103019296AD01A2974D1217A0C09042CE1
:108B70004DD301224CE0394D083DA868C0430B900D
:108B800069680BA802F0ACFF0B990CA800F092FCEE
:108B90002C220CA96846FEF76BFC0027E946A84684
:108BA00010E000BF09EB47005FF00005B0F804A03B
:108BB00008EB85005146001D02F02EFF6D1C1E2D96
:108BC000F6D37F1C0098B842ECD8142E05D317B00A
:108BD0000420BDE8F04FFFF7A7B83146584602F031
:108BE00066FF314608F1040002F061FFE07B0228D5
:108BF00030D117B03146BDE8F04F1848001D02F0E3
:108C000056BF17B03146BDE8F04F02F005BF002255
:108C1000314601F0F9FA032C01D3012200E00022D1
:108C20000E4831460C3001F0EFFA022C01D301223C
:108C300000E0002209483146083006E0217A002988
:108C400008D1617AC1F3C002314617B0BDE8F04FD8
:108C500001F0DABA17B0BDE8F08F0000382A002022
:108C600070B51F4E044686B07078002836D0208834
:108C7000A588102811D031782846FFF7E7FD002895
:108C80002CD1204601F0B8FF204607F063FD06B066
:108C90002046BDE8704001F007BC00208DF80000C0
:108CA000142101A8FEF7FDFB01208DF804004FF60A
:108CB000FF70ADF8080004F108000390ADF806500D
:108CC000CDF810D001A801F053F89DF800203178BC
:108CD0002846FFF7D3FD9DF80000D0E706B070BD31
:108CE00090230020007800F0010070470149085CE3
:108CF000704700001C1A0300084908B5085C009082
:108D0000684603F031FDD0F810050099C84010F016
:108D1000010000D0012080F0010008BD1C1A0300F2
:108D20002DE9FC410646C0074FF000050ED0104F5C
:108D300000240122385D009500231146019503F0BF
:108D400047FC641C042CF4D300F04EF8B0070DD59A
:108D5000074E0024361D0022305D03230095114686
:108D6000019503F035FC641C042CF4D3BDE8FC81B0
:108D7000181A0300094908B5085C0090684603F01A
:108D8000F3FCD0F80425009B0121994021EA02035D
:108D9000C0F808351140C0F80C1508BD181A0300BA
:108DA0000249085C012103F04CBD0000181A0300C1
:108DB0000249085C002103F044BD0000181A0300BA
:108DC000084908B5085C0090684603F0CDFCD0F86F
:108DD00004050099C84010F0010000D0012080F087
:108DE000010008BD181A030010B500242046FFF743
:108DF000D7FF641C042CF9D310BD10B50024204605
:108E0000FFF7D6FF641C042CF9D310BD10B5024641
:108E1000064B4FF0FF3000215C5C944201D10846C4
:108E200010BD491C0429F7D310BD00001C1A030013
:108E300070B50C4E0C004FF0000530600BD00120D7
:108E400000F06AF808B1022004E0002000F064F8A5
:108E500000B10B202070706810B9FEF7FAFD0546CE
:108E6000284670BD5023002010B5002000F0DCF92A
:108E700008B1062806D1012000F0D6F908B106286D
:108E800000D1002010BD00002DE9F0470D468146BD
:108E9000FFF7BCFF0446042836D2DFF874801B4875
:108EA0001C4EA8F10C0725B3012D0ED0022D2BD19D
:108EB00004EB440030444578002D25D0B9680029E2
:108EC00022D02846BDE8F047084704EB4401755C12
:108ED0000E44717849B10E4A4FF48041093A8068D6
:108EE000FEF772FF08B987F80390B17808F804100C
:108EF000E2E78068FEF792FF04EB4401314418F882
:108F000004008D78A842D7D0BDE8F087201A03006E
:108F1000E8220020D4290020042801D2FFF7ECBE6B
:108F20000020704710B5104A042807D007280FD03A
:108F30000A2817D1BDE8104007F0F8BB132150886C
:108F400076DF0DE000280DD0BDE81040FEF7ECBE46
:108F50005088A0F57F41FF3904D10448FFF796FA05
:108F60000828EFD110BD000080220020A02500209D
:108F700070B50023042810D20D4D00EB4004012AE7
:108F800002D101290CD00022094E00EB40003044F0
:108F900061B1012906D0022906D00723184670BD09
:108FA0000E30C2B22A55F9E74270F7E78270F5E752
:108FB000D4290020044A014600201279D20702D0A9
:108FC000084600F04DB87047DC22002070B5064618
:108FD0001E480024C0E90161B00720D50025012208
:108FE00011462846FFF7C4FF6D1C0446042D02D22B
:108FF000002CF4D013E094B940F233320421144829
:10900000FEF710FE04000AD1FEF7FAFD040006D1B7
:109010000F48104A0021001FFEF798FE0446F00793
:1090200012D00120FFF77CFE74B909480A4A0021DA
:109030000C38FEF78BFE040006D10548074A0121D3
:109040000838FEF783FE0446204670BDDC2200206F
:109050002C1A030035930200B5B10200EF7B020029
:109060002DE9F05F6E4C054600266078B34618B1D6
:1090700084F801B002F086F86A4F4FF47A694FF431
:10908000C87A4FF00108182D69D2DFE805F00C13FB
:1090900013384754696E727B727BC58484848484E0
:1090A000B3B6B9BCC5C502F06DF83868FEF7B6FEB8
:1090B00006465CE00020FFF783FE00284FF000002A
:1090C00008D0FFF76DFE022D02D14FF4E16008E0F9
:1090D000484606E0FFF76CFE022D01D1C82000E0F3
:1090E0005046410CC0034FF47A72801841F10001E0
:1090F000257052000023FEF777F901462AE0002090
:10910000FFF75EFE00284FF0000004D0FFF748FE96
:109110004FF44870E5E7FFF74BFEDFE70020FFF76D
:109120004FFE00284FF0000002D0FFF739FECFE7D6
:10913000FFF73EFED4E70020FFF742FE00284FF085
:10914000000002D0FFF72CFE01E0FFF731FE257092
:1091500040F6CD4100223868FEF736FE064646E06E
:109160000020FFF707FE257008E0002051E0257081
:109170003DE084F801800120FFF7FCFD002240F271
:109180006661E8E784F801800120FFF7F3FD002223
:109190004FF40051DFE77868FEF740FE0646D5F150
:1091A000110000D02EB10220FFF7FAFD84F802B0C2
:1091B0001DE0012816D980B2C8214843C117C90350
:1091C00041EA5041C0034FF47A72801841F1000126
:1091D00052000023FEF708F9014600227868FEF7E6
:1091E000F3FD06460220FFF7E3FD84F802803046D7
:1091F000BDE8F09F01F0C6FFB9E701F0C3FFB4E797
:1092000001F0C0FF04E001F0BDFF0020FFF7D0FD3A
:109210000120FFF7CDFDAAE7FFF7EFFDA7E700006C
:10922000DC220020201A0300012108F075B900009B
:109230002DE9F84F0546861C00208DF80000914668
:109240000F464FF0010A6846FEF70AFE1B4C04F277
:109250001C4860683860D4E90101194F401A396828
:10926000081A0EE00121404602F034FC02F03AF9FF
:109270000146404602F02EFCD4E90101401A39684B
:10928000081A401C8642EDD8B9F1000F03D0052022
:1092900065F3891002E0062065F39F5061683A6823
:1092A000114004EB8101C8606068304460609DF843
:1092B0000000FEF7F9FD5046BDE8F88F3832002077
:1092C0001025002070B50D4604460A2902D10D2153
:1092D000FFF7F8FFA0682268411CA1601554D4E98B
:1092E0000101814204D32046BDE8704002F035BE42
:1092F00070BD0000044881684068814201D10120AE
:10930000704700207047000038320020034630B517
:10931000074800210478426806E000BF02EBC10064
:1093200005789D4203D0491CA142F7DB002030BDE7
:109330004824002000780221FFF7A6BD1CB5044692
:1093400001F07EFD00236A46092105F055F9052844
:1093500005D10348012241792046FFF78FFA1CBD51
:10936000602300201CB504460020009042F6A62091
:10937000ADF8000001208DF80200084801AA6946F6
:10938000006801902046A0DF002805D10448012292
:1093900081792046FFF772FA1CBD00004C1A0300C9
:1093A0006023002005494FF0FF32082841F82020B3
:1093B00002D3084480F8582070470000A42D0020F4
:1093C000F0B54FF0FF3512B10023082601E0082365
:1093D0000C260C4C05E000BF54F823707F1C04D011
:1093E0005B1CB342F8D32846F0BD26185DB286F860
:1093F000305044F82310002AF5D1E11881F85800C4
:10940000F1E70000A42D00200249084490F9300043
:1094100070470000A42D002070B504464FF6FF757C
:109420000A462846AC4209D14FF4807421461046C2
:1094300002F00DFB80B2A0420BD070BDFF2CFCD817
:109440002146104602F0F3FA90F0010F01D02046B9
:1094500070BD284670BD000070B5084C050009D0ED
:1094600010342168002907D0086820604968284620
:109470008847F6E70834F4E770BD0000902D00201F
:10948000054A012120B1012805D19170FFF7E4BF01
:1094900051700020FAE77047902D002010B5D0E9F8
:1094A0000234D1E90220D11AA04101D3012010BD1C
:1094B000002010BD73B58CB00646002000900D98BA
:1094C00080B100246D4621460DA802F0E5FA30B1C6
:1094D000009805EB400084800098401C0090641CBC
:1094E000142CF0D32C2269463046FDF7C1FF0EB094
:1094F00070BD2DE9F04117880646B81D14460D468B
:10950000984202D90C20BDE8F08131880722062953
:109510000AD34FF4486C4FF6FF73614501D9994265
:1095200002D17088062801D21046ECE7604501D9C7
:109530009842F9D1994203D0984201D08142F3D8A0
:109540000520E85520881221401C80B22080295433
:109550002088401C80B220804119308807F085FEA9
:109560002188084480B220804119708807F07DFE70
:109570002188084420800020C5E7FEF7D5BB000005
:1095800038B54A7A0F4B62B100220A725969002934
:1095900006D001228DF80020ADF802006846884709
:1095A00038BD0A7A62B19B684C680246194620466B
:1095B000FEF70AFC0028F3D0BDE8384006F00ABFE9
:1095C0005B68F1E7142A0020F0B585B016460F4617
:1095D00004461D4614220B496846FDF749FF0A4818
:1095E0008DF80870ADF80240ADF80A608DF80C50A7
:1095F000017800222046FFF741F9684600F0CEFBD3
:1096000005B0F0BD981B030000240020FEF754B9FC
:1096100070B588B00646002005900690ADF814108D
:10962000ADF816100190029001AA05A9304690DF0E
:10963000050021D003F05AFF034611481149324674
:10964000401AC108012000EB014004460E4903F016
:109650001EFBBDF8042012B9BDF8060028B1BDF804
:109660000630204609A103F012FBBDF808201AB10C
:109670002046164903F004FB08B0284670BD0000E0
:10968000843503006C350300D42203005468652040
:109690007265717565737465642054582F52582033
:1096A0007061636B6574206C656E677468206973A4
:1096B00020746F6F206C6F6E672062792025752F84
:1096C0002575206F63746574732E000020230300DA
:1096D00070B504460948012102F017FABFF35F8F05
:1096E0000025002808D1204601F070FE002803D193
:1096F000BFF35F8F0148056070BD00006C23002040
:109700002DE9FF410C4620B14FF4064004B0BDE8FE
:10971000F0812079002748F2096538B141F61D56DD
:1097200001281BD0022826D0681DEFE702202071F7
:1097300002970397E0680190694601A806F088FA4D
:1097400050B102988188E18000882081BDF8001026
:10975000029806F0FBFAD9E72846D7E70A4B6A4693
:109760000021A01D06F02CFA38B1074918398F6185
:10977000CF61A842CAD13046C8E703488188019822
:1097800006F0E4FAF5E70000C824002070B50024D4
:109790000F4D10E0686800EBC406307803F0CEFF90
:1097A0007178012901D0012100E000214140307889
:1097B00000F048FA641C28788442EBDBD5E9040108
:1097C000084303D0BDE8704007F09CBB70BD0000AB
:1097D0004824002010B50021024802F096F980F3D9
:1097E000100010BD543600204FF480328A400168CA
:1097F000C1F848230068C0F8082370474FF4A072EE
:1098000002EB810189B200F08DBA2DE9F0410546E5
:109810000E464FF4A07000EB860081B228684FF42A
:109820008034B440984622F07F47C0F80843286847
:10983000C0F84843286803F0EDFB286800EB860079
:10984000C0F840752868C0F84443B8F1000F02D052
:109850002868C0F80443BDE8F0810068D0F804052A
:109860007047000070B54379234C44F823204279B7
:10987000231D03EBC202224C1579204A121BD40887
:109880002DB10825022000EB04401EA130E0056840
:109890000A88C5F8082590F904208978002A4FEA3B
:1098A000411104DB02F1E02282F8001405E002F02D
:1098B0000F0202F1E02282F8141D90F90410012237
:1098C000002909DB01F01F0502FA05F549098900A5
:1098D00001F1E021C1F800514179002503EBC101FC
:1098E0000A71417943F83100032000EB04400EA1D6
:1098F00003F0C2F9284670BDA4240020F43503000B
:109900006C35030052544320696E7374616E636555
:1099100020616C726561647920696E697469616C3B
:10992000697A65642E0000005254433A20696E69DA
:109930007469616C697A65642E00000090F9040016
:10994000002809DB00F01F0201219140400980003E
:1099500000F1E020C0F8001270470A46022100F032
:1099600067B94FF4827100F0DDB900680121016030
:10997000704700680121416070472DE9F05F07469C
:109980000C464FF4A07000EB84001FFA80FA386890
:109990004FF48036A6409B4622F07F45C0F84863CE
:1099A0003868C0F808633868D0F8048500EB840292
:1099B000D2F84095C2F840855146386803F02AFB3A
:1099C000A9EB080020F07F40012806D1102003F009
:1099D000F9FD5146386803F01DFB3868D0F804855E
:1099E000C0F84463A5EB080121F07F4138680129E4
:1099F00000EB840010D0C0F840553868D0F804154A
:109A00006FF07F4C6A1A521E22F07F42ACEB0B03C0
:109A1000934217D362B118E06D1CC0F84055102076
:109A200003F0D0FD3868D0F8040540450AD10CE0B9
:109A300000EB84006D1CC0F840553868D0F8040570
:109A4000884202D00D20BDE8F09F01223146384601
:109A500000F0EEF80020F6E713460A460021FFF773
:109A6000B3BD00002DE9F843104D0F4680461E4659
:109A700091466946286801F0A3FF040014D01C2118
:109A8000FDF70FFD01202071C4F81490380BC4F8C5
:109A90000080C4E902606946286801F0B2FF05F061
:109AA000FBFF0020BDE8F8830420FBE7A01C0300B7
:109AB00010B503780022072B06D2DFE803F0050477
:109AC0000610202930000A7010BD01230B70038995
:109AD0008B818388CB81C06888600A7410BD0222A4
:109AE0000A7002898A818288CA81C2688A60807D00
:109AF000062802D00020087410BD0120FBE70322D5
:109B00000A70C2888A810289CA81C068886010BDD3
:109B100004230B70C0888881CA818A6010BD05202B
:109B2000087010BD70B5064D0646002455F8241087
:109B300009B130468847641C042CF7D370BD00007F
:109B4000102F002030B50446006887B00D468068AD
:109B500000281FD018216846FDF7A3FC0195A068D6
:109B60000590207910B1012810D107E001208DF86F
:109B7000000020690290E068039005E002208DF863
:109B80000000E0680003029060690490206881682A
:109B90006846884707B030BDF0B585B017460C0061
:109BA00005463AD0112C38D0082C36D01C481D4917
:109BB000401AC6080D2C11D0204603F097FC02462F
:109BC000012000EB06402B46174903F060F82A46B7
:109BD0000821684601F0A8FE02941BE0022000EB79
:109BE00006402A46114903F04BF82A4604216846EC
:109BF00001F09AFE27B13878C00701D0012000E0BB
:109C000002208DF8080000208DF80C0041F20110B0
:109C1000ADF80A00684600F0CFF805B0F0BD0000CE
:109C2000B43503006C350300442D0300342C0300CD
:109C30000368C3F84413002A02D00068C0F8041374
:109C4000704700002DE9F84F0E463449804601EB7D
:109C50005001C007097801D00F0901E001F00F079A
:109C60004FF00009424601204946FDF7EEFBDFF8C0
:109C7000B0A004460D46052F4ED2DFE807F00316CC
:109C80001B282C00002E47D00121404606F0F8FF8B
:109C90008DF800906846FEF7E3F85046D0E90412CC
:109CA0000C431543CAE9044532E00EB1022114E029
:109CB000002112E04EB10321404606F0E1FF40468C
:109CC000BDE8F84F012107F0AFBB012105E0002EF0
:109CD00022D1042101E02EB103214046BDE8F84F16
:109CE00006F0CEBF0021404606F0CAFF00214046E4
:109CF00007F09AFB8DF800906846FEF7B1F85046E1
:109D0000E243D0E904341A4024EA0501CAE90421F7
:109D10009DF80000FEF7C8F8BDE8F88F602E00201F
:109D20004824002010B5006842581AB103F072F9B7
:109D3000012010BD002010BD10B50446408801F080
:109D40007FF8A080024801682046BDE8104008471F
:109D50006823002010B50446808800F0BBFF6080B7
:109D6000024801682046BDE81040084778230020DB
:109D70002DE9F04107460024064E074D05E000BFDF
:109D800056F8241038468847641C28798442F7DB4B
:109D9000BDE8F081442D00209023002010B504463A
:109DA000408801F04DF8A080024801682046BDE8D7
:109DB00010400847581B0300014909680847000084
:109DC000D41B030070B586B0044614216846FDF725
:109DD00068FBA0890125A0F54040ADF8040020787B
:109DE0002F4E062833D2DFE800F0320303032C4A5B
:109DF000A08900F0EDF930B9E08943F6FE71A0F5D5
:109E00004040884223D8A07B8DF8080020780328A2
:109E10000FD000208DF80900A0680390606850B151
:109E20000A208DF8000060680490684604F036FB54
:109E30000DE00120EEE709208DF800008DF81050AC
:109E4000F3E7A08900F0C4F908B1E08930B1707877
:109E5000002801D004F076FC06B070BD606830B117
:109E60000C208DF80000606802907570DDE70B2013
:109E70008DF80000BDF8040004F008FDF5E7606807
:109E800048B115208DF80000606802904FF6FF7011
:109E9000ADF80400C9E714208DF80000F6E70000D3
:109EA0007C23002038B504460F480078B0B1A4F5F3
:109EB0007F40FF380FD0684605F01EFD88B10521B0
:109EC000017001210171C480684605F023FD05F091
:109ED000D5FD002038BD48F2036038BD48F201606E
:109EE00038BD48F2076038BDD02400200D4808B5C1
:109EF000007888B1684605F0FFFC80B1062101704A
:109F0000684605F007FD0848017809B10121017391
:109F100005F0B4FD002008BD48F2016008BD48F21C
:109F2000076008BDD0240020D42F0020F0B587B0F2
:109F300014216846FDF7B5FA314C207818B168460F
:109F4000FFF7F0FD5AE0201D01F0C1FDA0BB40F677
:109F5000F8700168481C02D14FF0102041694FF0A1
:109F60008050026940694B1C01D100FB02F1254879
:109F700000220161A1F54051C160234902F082F93C
:109F8000002826D122481C238C222049006801F099
:109F900004FD04F00FF805004FF0000615D0022D67
:109FA00013D00127062D16D005A805F0A5FCA8B1F1
:109FB00007700C2D1DD200E020E0DFE805F01A123A
:109FC0001A121A191A191A1416142670666048F211
:109FD0000A6007B0F0BD27706660B0E748F207601E
:109FE000F7E7067105E0032100E00221017100E0BE
:109FF000077105A805F08EFC05F040FD0020E8E79C
:10A00000D02400206C250020B01C0300202F00204D
:10A01000181C030038B5040014D0694605F018FE7A
:10A02000B0B1BDF8000000EB80010B4800EB8100EF
:10A03000C16851B1A17A41B1C168491EC160002017
:10A04000A07238BD48F2046038BD48F2056038BDE2
:10A0500048F2096038BD0000AC2F00201FB501A9EF
:10A06000684605F0ADFD04B010BD07B513460A46BD
:10A070006946002005F0A4FD0EBD07B513460A464B
:10A080000021684605F09CFD0EBD20B119B10068A5
:10A0900008600020704748F204607047F8B50D462C
:10A0A000040018D0BDB1694605F0D2FDB0B1BDF8CD
:10A0B00000000C4900EB800001EB800001210C3016
:10A0C000666801F007FD2E6060680C306860012052
:10A0D000A0720020F8BD48F20460F8BD48F20960A3
:10A0E000F8BD0000AC2F002018B10323002207F0B8
:10A0F0005FBB48F2046070470223002207F058BBA0
:10A10000094910B50A69042A0AD0084A096942F8BF
:10A11000210005480121103001F0DCFC002010BDB9
:10A1200048F20B6010BD0000B0240020102F00206A
:10A130002DE9F84F044624480078D8B1F4B1122133
:10A140002046FDF7AEF90320DFF88090208000253F
:10A1500004F1100804F10E0A05EB850109EB8106F4
:10A1600030897189084487B2706803F0ADFE032816
:10A1700007D009E048F20160BDE8F88F48F20460BA
:10A18000FAE72088401E20806088F16808446080DB
:10A190002089718908442081608938446081C7F52D
:10A1A0008060A18980B2814200D2A0815346A21D65
:10A1B000211D2846CDF8008005F0E6FD6D1CADB2EE
:10A1C000022DC9D30020D7E7D0240020AC2F0020D7
:10A1D00043F6FE71A0F54040884201D80120704747
:10A1E0000020704710B504460078182802D1FEF709
:10A1F00021FB207010BD10B504460078182802D14C
:10A20000FEF718FB207010BD0AB101F050BC01F040
:10A2100003BC70B50D460446B0F81414D0F8100411
:10A220000122FEF754F800B1057004F13C0204F578
:10A23000826104F1540072DF70BD000070B51346F6
:10A2400000220546112900D10122074C33B12179A2
:10A25000FEF714FB00226178284600E06178BDE833
:10A260007040FEF70BBB000008240020F7B517462E
:10A270000E0011D00098002560B1002421466846E8
:10A2800001F00AFC18B1A0B23946B0476D1C641C3D
:10A29000142CF3D32846FEBD0020FEBD406805F017
:10A2A0004BBB000070B510B14FF4064070BD1C4CA4
:10A2B0000025207B08B1257301E000F0A5F8207887
:10A2C00008282AD2DFE800F02904080C10291422FB
:10A2D000BDE8704000F026B8BDE8704000F082B8DC
:10A2E000BDE8704000F064B8BDE8704000F040B8D0
:10A2F0000620207060880A4900EB8000283901EBB5
:10A3000080004068BDE8704003F034BE0720207034
:10A310006560BDE8704003F03BBE48F20E6070BD62
:10A32000D42F00201149F0B48A1C00200346A1F16B
:10A3300028050C18A67A4EB1A37200EB800405EB39
:10A340008404E66816B9247C012C0AD0401C80B233
:10A350000228EED30B704B804B60F0BC41F61D50D1
:10A3600070471080F0BC00F03DB80000D42F0020F2
:10A370000C48418801EB8102A0F1280101EB820128
:10A38000CA6852B105210170074802218180016825
:10A3900000230122054801F0D9BE04220270496859
:10A3A000F6E70000D42F0020D82400206C250020E0
:10A3B00038B50A49084803240B684268898803EBCA
:10A3C000810153880470DB1C00201B0400909B0B50
:10A3D000034802F00FF838BDD42F0020D824002005
:10A3E0006C250020074910B54888091D05F080FC40
:10A3F00018B1BDE81040FFF7DBBFBDE81040FFF724
:10A40000B7BF0000D42F002070B5194C012120786F
:10A4100008281AD2DFE800F00419191C2529291888
:10A420002089134A401C2081002060802073283A34
:10A4300000EB800312F8233043B100232518401CA1
:10A4400080B2AB720228F3D3217070BD0123F5E70F
:10A450006068084940888A88C01C104488800220AF
:10A4600004E000F009F8062000E00720207070BD2D
:10A47000D42F0020D82400200A49094849880268BE
:10A4800001EB81030749283901EB83014B68036025
:10A490004A6082880A810222828000200874704704
:10A4A000D8240020D42F00202DE9F04306468088D0
:10A4B0003288DFF85C8185B00746502A37D010DC3F
:10A4C0005449554B06F10A05A1EB03014FEAD101AE
:10A4D0004FF0020303EB0144352A3AD0362A07D164
:10A4E00068E0522A02D0542AF9D102E000F012FFAB
:10A4F00082E0142249496846FCF7BAFFADF80270C1
:10A50000384600F09DFCADF8040000F0C9F90022C7
:10A51000444698F804103846FEF7B0F90022E17876
:10A520003846FEF7ABF96846FFF706FC64E0307B7F
:10A53000012861D1B07A01285ED13089A0F524517B
:10A54000023959D10121384600F038FF06F0FCFEEF
:10A5500052E098F80610FEF779F900284CD0002256
:10A5600098F806103846FEF789F9F288B2F5857F2B
:10A5700017D012B120462AA10BE02A88012A03D065
:10A58000204636A102F07CFB6A88012A04D02046CE
:10A5900041A102F075FB04E0A98800223846A1DF42
:10A5A00008B1002125E0012298F807103846FEF78F
:10A5B00065F921E04FF0000998F80710FEF746F919
:10A5C000D0B1002298F807103846FEF757F9F28804
:10A5D00012B1204612A104E0AA88012A04D0204624
:10A5E0002DA102F04DFB03E0A87900B101208146C6
:10A5F0004946384606F0A8FB0022364998F8020082
:10A60000FEF7BEF805B0BDE8F04305F043BF00001B
:10A61000602300206C3503006C350300A41A03008E
:10A62000556E6578706563746564204741545420A5
:10A63000737461747573207768696C6520676574DD
:10A6400074696E67204341522063686172207661AD
:10A650006C75653A20307825780000004D756C7473
:10A6600069706C6520282564292043415220636865
:10A670006172616374657269737469637320666F74
:10A68000756E642C207573696E672074686520662A
:10A69000697273742E000000556E6578706563747E
:10A6A000656420434152206368617261637465721E
:10A6B00069737469632076616C7565206C656E677B
:10A6C000746820282564292C2073746F72652030EB
:10A6D0002E000000C97F020070B5044600780028F3
:10A6E00014D1608800F016FE6588284600F0E8F96D
:10A6F00028B107480122C1782846FEF7BFF86088D4
:10A70000FEF71CFEBDE8704006F01EBE70BD0000E6
:10A710006023002070B5204C00252570FEF78AF8D4
:10A720006070FEF787F8A070FEF784F8E070FEF71F
:10A7300081F82071FEF77EF86071FEF77BF8A0715A
:10A74000FEF778F8E07162780121182A18D0A27813
:10A75000182A15D0E278182A12D02279182A0FD098
:10A760006279182A0CD0A279182A09D0182807D0A3
:10A7700004F10C000560BFF35F8F2170002070BDF5
:10A780000648074A801AC00801EB0040054902F05C
:10A7900073FA032070BD0000602300206C350300B5
:10A7A0006C350300941F03007CB50446007809282B
:10A7B00037D1607A58BB207A1C4E4FF6FF750128BE
:10A7C00011D0072802D008282BD121E0A08800F062
:10A7D00081FA0446A84224D0012100F0EFFD204672
:10A7E000FEF7ACFD1DE0A0886A46012103F078FD6C
:10A7F00068B90198007850B1A08800F06BFAA842BF
:10A800000FD00122F178FEF739F805F043FE08E099
:10A81000F068012805D1BFF35F8F044900200C3197
:10A820000860BDE87C4006F08FBD0000602300207A
:10A8300010B50B48FFF711F8094A083AD2E9043479
:10A84000C018D2E9063244F10001C31A71EB0202CA
:10A8500004D24FF08072801841F1000110BD000059
:10A860008824002010B5C0B2FEF750FD04460078E1
:10A8700002F064FF01466078012801D0012000E069
:10A88000002090EA010F08D00449D1E904010843EF
:10A8900003D1BDE8104006F035BB10BD48240020B0
:10A8A0001CB5054AD2E90212CDE900120022694620
:10A8B00003F0DCFE1CBD0000BC1A030003484FF689
:10A8C000FF718180012101700020704770230020FA
:10A8D0002DE9FC41804600F0B3FA0024032501274E
:10A8E000A0F57F412646FF3908D06A46082103F0CB
:10A8F000F7FC18B90198841D8688056832462B46F6
:10A9000021464046B1DF042804D0082804D00B2893
:10A9100008D002E0112000E00020002F00D10B2021
:10A92000BDE8FC810027A80701D50125E6E73443EF
:10A9300003D0002426460325E0E7064806494246A0
:10A94000401AC008012101EB0040044902F098F9C7
:10A95000E5E70000743503006C3503005C2203005A
:10A960002DE9FF47824600F06BFAA0F57F41814652
:10A97000FF3916D03B493C4A0127891AC90807EB21
:10A98000014600BF3A467F1C4FF00008BFB202AB41
:10A990000821484603F0EEFC040007D0072C5ED0E7
:10A9A0005EE043F2020004B0BDE8F087039D03239C
:10A9B0002A1DA91D50462B60B2DF040004D00C2CC8
:10A9C00037D0052C38D038E06A460821484603F0D5
:10A9D00087FC58B1052814D002F088FD02463046A5
:10A9E000534622A102F053F90320DCE70198AA881C
:10A9F0008088824205D10199A81D891DFCF763FD5D
:10AA000030B14A460821104603F02CFD044627E0E9
:10AA10000821484603F01CFD48B102F067FD0346DB
:10AA200030464A461F4902F032F9032418E00B244D
:10AA300016E04FF0010800E000240821484603F02A
:10AA400007FD40B102F052FD034630464A46154923
:10AA500002F01DF90324B8F1000F93D100E00C249B
:10AA60002046A0E7743503006C3503007064625F14
:10AA7000706565725F646174615F7074725F676551
:10AA80007428292072657475726E656420257320A0
:10AA9000666F7220636F6E6E5F68616E646C653A9C
:10AAA00020256400DC21030004488088A0F57F4154
:10AAB000FF3901D005F0F8BC70470000702300207A
:10AAC0000EB502A9019100F0BBF96A46012103F01D
:10AAD00007FC08B100200EBD019800780EBD0000F3
:10AAE0002DE9F04107464FF6FF761048B3DF78B105
:10AAF00002F0FCFC02460E480E49401AC008012133
:10AB000001EB00400C4902F0BBF80320BDE8F081E6
:10AB1000064C43F20305A41E324661883846AFDF77
:10AB2000A842F3D16088401C6080F5E772230020C2
:10AB3000743503006C35030090210300428800EB5C
:10AB400082020C328A4201D9022070478188A1F525
:10AB50007F42FF3A06D0018821B18068401C01D0B5
:10AB60000020704701207047884204D20068401CD2
:10AB700001D001207047002070473EB502780223C3
:10AB80000C46B3EB520F17D1B0F80110ADF800101E
:10AB9000C1788DF802108188ADF8041080798DF8A5
:10ABA000060002AA01A92046FCF7F8FF032202A929
:10ABB0006846FCF788FC08B100203EBD01203EBD80
:10ABC00070B50D460446142810D2FDF773FE68B127
:10ABD000084904EB840001EB4000D0F80210296022
:10ABE000C188A980007AA871002070BD43F20200DC
:10ABF00070BD0000AC2A002070B5018890B010290B
:10AC000061D1011D2C226846FCF732FC9DF804003E
:10AC10004FF6FF7603213446B1EB500F2BD003F0F3
:10AC2000E3FC9DF804006D4640080ED001280CD0CE
:10AC3000022820D118E00D99281D1131FCF7DAFE09
:10AC400018B100BFBDF82C4015E00CAA0BA90720D5
:10AC500003F09EFC0028EED10DE00D99281D491C43
:10AC6000FFF78BFF0028EDD10CAA0BA9072003F0FA
:10AC70008FFC0028F1D1BDF80000B44200EB800148
:10AC8000124820F8114000EB41000199C0F8021071
:10AC9000BDF80810C1809DF80A10017213D0BDF8EC
:10ACA0000000ADF82E000020ADF83040084E8DF8C1
:10ACB0002C000BAD044600BF56F8241028468847E8
:10ACC000641C022CF8D310B070BD0000AC2A002028
:10ACD000D01A03002DE9F0414FF6FF760546B04249
:10ACE00013D00B4F002400BF04EB840037F8100092
:10ACF000A84206D12046FDF7DDFD10B12046BDE893
:10AD0000F081641CA4B2142CEED33046F7E70000A7
:10AD1000AC2A00203EB50C46054603F065FC0BE06E
:10AD2000BDF80000A04207D02846029900F00EF8B6
:10AD300010B1BDF800003EBD01AA6946072003F02E
:10AD400027FC0028ECD14FF6FF703EBD2DE9F04105
:10AD50000C46054600F1110701F111061022491CAD
:10AD6000401CFCF7B0FB48B9681C00F0FBF928B1A7
:10AD7000601C00F0F7F908B1012400E0002431461E
:10AD80003846FCF737FE3B780222B2EB530F0CD06B
:10AD90000321B1EB530F08D03378B2EB530F04D03B
:10ADA000B1EB530F01D0012100E00021084201D195
:10ADB0008C4302D00120BDE8F0810020FBE7018830
:10ADC00011B9421892780AB101207047491C08292C
:10ADD000F7D30020704710B50C460346FFF7EFFF8E
:10ADE00000280AD018882188884205D10822A11C91
:10ADF000981CFCF768FB08B1002010BD012010BDB5
:10AE0000142804D2024A00EB800022F81010704788
:10AE1000AC2A002070B50546FFF75CFF04462846C3
:10AE200003F062FA002808D1142C06D2034B04EB7D
:10AE300084024FF6FF7123F8121070BDAC2A002077
:10AE400010B50446142808D2FDF734FD28B1044992
:10AE500004EB840031F8100010BD4FF6FF7010BDF8
:10AE6000AC2A00203EB5044603F0BEFB0EE001997B
:10AE700020464631FFF7AFFF28B9019920462A3115
:10AE8000FFF7A9FF10B1BDF808003EBD6A4602A950
:10AE9000072003F07DFB0028E9D14FF6FF703EBD8F
:10AEA00010B50A4941600A4800F011FE58B902F095
:10AEB0007DFA07491C238C22087404488C39001F32
:10AEC000006800F06AFD002010BD0000A41C030013
:10AED000803000202DE9F0412C4D002420B16C6021
:10AEE0004FF40640BDE8F0810879012250B1284BAB
:10AEF00001280BD0254A02260832022821D0032837
:10AF000029D12CE00A7103F043F822E05FF0000041
:10AF100000EB800113F82110022908D0401C80B2F8
:10AF20000228F5D32A706C6041F61D50DAE700EB79
:10AF3000800003F8204003EB8000406803F01AF81B
:10AF400007E00C719680116800230122114801F07E
:10AF5000FDF80028C6D06C6048F20D60C2E70C48CE
:10AF60000C7128304188106801EB810703EB8701E1
:10AF7000D1F804C0C2F800C04860B2F804C0A1F81B
:10AF800008C0968003F82740D8E70000D0240020AE
:10AF9000AC2F00206C2500200146034802888A421D
:10AFA00000D0002070470000002A00202DE9FC5F3F
:10AFB0000E008346DDE90C47C6F100009846924634
:10AFC000814600D40846012503E000BF90FBFAF05B
:10AFD0006D1C5045FADAA84500D9454624B1002E2B
:10AFE00001DB780700D5641EB80702D5B8F1000F61
:10AFF0000AD0F80708D13CB1A54205D22021584615
:10B00000641EFEF75FF9F6E7002E02DA4E462D21A8
:10B0100002E0780703D52B215846FEF753F907F0D5
:10B02000030002280BD1B8F1000F08D13CB1A542B2
:10B0300005D230215846641EFEF744F9F6E7CDE903
:10B040000047434652463146584606F023F9BDE8CC
:10B05000FC9F000070B50D46044600684FF48871EF
:10B0600002F064FA4FF49071206802F05FFA4FF436
:10B070009271206802F05AFA4FF4A271206802F02F
:10B0800055FA4FF4AC71206802F050FA206812496A
:10B09000C0F804132068690740F30730090E002840
:10B0A00004DB00F1E02080F8001405E000F00F0060
:10B0B00000F1E02080F8141D206840F307300028DC
:10B0C00009DB00F01F02012191404009800000F1DE
:10B0D000E020C0F8001170BD1003420002460020BD
:10B0E0001268530713D502F00300012802D002288A
:10B0F0000CD105E0C2F383100B68801C184404E0F7
:10B100000223086803EB9252104408600120704744
:10B110000248007A002800D00120704780300020CB
:10B12000F0B58488A518944200D82246A41AC28893
:10B13000D6189A4200D81346D21A4B880788BB42C9
:10B140000CD34088834209D88888A04206D3A842FD
:10B1500004D8C888904201D3B04201D90020F0BD84
:10B160000120F0BD0021425C0AB101207047491C5A
:10B170001029F8D300207047800701D000207047C5
:10B18000012070470A4810B5807860B1002401E0C2
:10B19000022C06D02046FDF703FE641C042CF7D3D6
:10B1A00010BD0324F6E7BDE81040FDF71DBE00000A
:10B1B000DC22002003480179C90702D00078FDF79E
:10B1C0004FBF7047DC220020172101804180002101
:10B1D000017141711B218171C17170472DE9FE4FD1
:10B1E0002E4F984692460D00814601D000260DE074
:10B1F000684600F08FFB6A460021484602F0CCFF0B
:10B200003878009E10B99DF8090098B15246314631
:10B21000484605F04DFC0446014600224846FFF72B
:10B220000DF80D2C37D008DCA4B3082C33D00B2C30
:10B2300009D130E00520BDE8FE8F112C1ED0A4F509
:10B240004050023827D0204602F050F902461448F8
:10B2500014494B46401AC008012101EB0040124935
:10B2600001F015FD5FF00305B8F1000F04D0324680
:10B2700021464846FEF790FC2846DCE72A46F97846
:10B280004846FDF7FBFA5246B9784846FDF7F6FA0C
:10B290000025E9E7FFE72546E6E70000082400204F
:10B2A000B43503006C350300EC2C030070B50E467A
:10B2B0000C49154604460978FDF7C8FA00280FD056
:10B2C000204602F00FFF00282A463146204603D0D0
:10B2D000BDE8704002F00CBFBDE87040FEF7BCBB9B
:10B2E00070BD00000024002070B5094D0646A97805
:10B2F000FDF7ACFA0446E9783046FDF7A7FA0146B7
:10B3000022463046BDE870400123FFF767BF0000CA
:10B3100008240020F0B585B00546002714216846B2
:10B32000FCF7BFF8A5F57F40ADF80250FF3825D0F7
:10B330002846FFF7CDFA040022D01B481B49401ACB
:10B34000C6080B2C22D0112C1ED0A4F54050023878
:10B350000ED0204602F0CAF80246012000EB06405B
:10B360002B46134901F093FC2146284605F04AF884
:10B3700010483A4681782846FDF780FA05B0F0BDBE
:10B380000F208DF800000BE00127F1E710208DF869
:10B390000000022000EB06402A46074901F070FC3D
:10B3A0006846FEF7C9FCE3E76C3503006C35030023
:10B3B0006420030060230020B82003000A460249ED
:10B3C0004978FDF75BBA0000602300202DE9F041C9
:10B3D000002786B080463E46FFF7C2FA04461F4863
:10B3E0001F49401AC508112C23D003DCFCB10B2CDB
:10B3F00006D114E0862C1ED0A4F5405002380ED0A1
:10B40000204602F073F80246012000EB0540434657
:10B4100014A101F03CFC2146404604F0F3FF3946FC
:10B420004046FFF7CBFF06B03046BDE8F08101266D
:10B43000F5E70127F3E714221A496846FCF718F8E4
:10B440000220ADF8028000EB0540424616A101F053
:10B4500017FC6846FEF770FCE1E700006C3503005E
:10B460006C3503006773636D5F6C6F63616C5F6461
:10B47000625F63616368655F7570646174652829E4
:10B480002072657475726E656420257320666F7214
:10B4900020636F6E6E5F68616E646C653A20256430
:10B4A000000000007C1A0300466C6173682066751A
:10B4B0006C6C2E20436F756C64206E6F74207374F7
:10B4C0006F7265206461746120666F7220636F6EB5
:10B4D0006E5F68616E646C653A2025640000000050
:10B4E000704700002DE9FF410026244800F0ECFAE7
:10B4F0002248001F074600F0E7FA214C2149A068C6
:10B5000000900D6800E000986946284004EB800038
:10B510000C30FFF7E3FD0028F5D101AA009901EAFC
:10B52000050304EB8303491CDB6842F82030401C10
:10B5300000910228F2D3019800F0030001280BD0FB
:10B54000022810D10198032101EB90500099BDF819
:10B550000A6001EB900005E00198BDF80A60C0F3B5
:10B56000831008440090384600F0ABFA08B1009808
:10B57000A06004B03046BDE8F081000050360020E5
:10B58000383200201025002088B04FF48041002080
:10B5900001F0F0FB08B1FCF7C7FB01F045FAFCF73E
:10B5A000E5FB08B1FCF7C0FB554A01215548FCF703
:10B5B000CDFB08B1FCF7B8FB53490320FDF706FDAE
:10B5C00008B1FCF7B1FB69460020FDF731FC08B17A
:10B5D000FCF7AAFB9DF8000002287DD05FF0000573
:10B5E00001F0D2FC08B1FCF79FFB01F093FE08B11B
:10B5F000FCF79AFB002469460120009401F01AFD33
:10B6000008B1FCF791FB684601F094FD08B1FCF726
:10B610008BFB9DF808003DA120F00F00401C20F09E
:10B62000F00010308DF808000F2202A87CDF08B16E
:10B63000FCF77AFB00945020ADF80000A0200194A4
:10B64000ADF80200ADF804404FF4C870ADF8060044
:10B6500068467ADF08B1FCF767FB00212F4800F04D
:10B66000BFFA08B1FCF760FBFCF70EFA2C4800901B
:10B670002A486946143000F078FB08B1FCF754FB07
:10B680001C216846FBF70DFF4FF4A030CDE90040C8
:10B690004FF4F020029023480590032622488DF8AD
:10B6A0000C600690ADF80E408DF810406846FDF72E
:10B6B00023F808B1FCF738FB03F02EF91B481C49AE
:10B6C000401AC00806EB00401AA101F0D5FA00228A
:10B6D0004FF470210B4800E00FE00068FCF774FBAA
:10B6E00008B1FCF721FB2846FCF730FA01F0AAF973
:10B6F0000028FBD101F05CFCF8E7012570E70000B1
:10B700004F7A0200141A0300258F02004E6F7264F4
:10B7100069635F54656D706C6174650080250020FD
:10B72000F5CF020059DD02007B95020014360300BC
:10B730006C35030054656D706C61746520657861CB
:10B740006D706C6520737461727465642E00000006
:10B7500070B5144682880E4605462088111D0144A6
:10B76000921C994201D8FE2A01D90C2070BD521CAE
:10B7700032542088FF21401C80B220803154208820
:10B78000401C80B220808119288805F06EFD218838
:10B79000084480B22080AA8842B1A96841B13044EF
:10B7A000FBF766FE2088A98808442080002070BD31
:10B7B000072070BD2DE9F047C5881E1DB6FBF5F7C3
:10B7C0008946B6FBF5F1044605FB176C407916680F
:10B7D0006843DDF820A0F718001F874200D9C61A79
:10B7E000166001E02468491E0029FBD1A5EB0C0777
:10B7F0008846B74216D818E004EB0C00001D09EB90
:10B800000803BAF1000F3A4602D00146184600E09C
:10B810001946FBF72DFE2468F61B4FF0000CB844C8
:10B82000B54201D9374600E02F46002EE4D1BDE8ED
:10B83000F087000030B5024651B101F0AFFA0021A7
:10B84000074C08E034F821301568AB4202D1116092
:10B85000002030BD491C8142F4D3052030BD0000DA
:10B8600000000000BFF35F8F00F016B9F8B50F4677
:10B87000017814460546012901D1687830B1208845
:10B88000821C9A4232D8012902D006E00720F8BD76
:10B8900069780144891C994228D8181A801E86B2FA
:10B8A000ADF800602188B81C084469467DDF002897
:10B8B000EDD12978022904D06878BDF800209042A3
:10B8C00005D3BDF80000B04201D809200AE00820E5
:10B8D000012905D16978B14202D8ADF8001001E024
:10B8E000ADF80060BDF80010FE2901D90C20F8BDAC
:10B8F0002288491CB9542188491C89B22180785476
:10B900002088401C2080BDF80010084420800020C2
:10B91000F8BD0000034A00219268C0E9002181605F
:10B92000704700000824002070B586B00D4606461A
:10B93000144614216846FBF7B4FD8DF80050ADF8AD
:10B9400002402046FFF77CFAADF804001422694655
:10B950003046FBF78DFD06B070BD70B54FF6FF7534
:10B960000E46A84201D1002000E0401C84B208E04D
:10B970002146304600F090F808B1204670BD641CA6
:10B98000A4B2FF2CF4D9284670BD10B5FBF78FFC8C
:10B9900008B1002010BD112010BD10B531B1B2FBAF
:10B9A000F3F403FB14241CB1092010BD0E2010BDBC
:10B9B00001600021416081608281C381084610BD21
:10B9C00070B50C460546FBF727FC002802D02188FD
:10B9D0002868084470BD10B50A8849888A4203D196
:10B9E000FBF75CFC012010BD002010BD70B50C46BB
:10B9F0000546FBF736FC002802D061882868084419
:10BA000070BD10B50A8849888A4203D1FBF720FC33
:10BA1000012010BD002010BD01F01F0301229A403B
:10BA2000D243490900EB8100114600F059B80A469B
:10BA300001F01F030121994010B552090C4600EB9B
:10BA4000820000F05DF8204000D0012010BD2DE9FB
:10BA5000F04180460D460024481E012101EB50179D
:10BA600016E058F82400C04390FAA0F0B0FA80F035
:10BA700020280CD200EB4416AE4208D23146404694
:10BA8000FFF7D5FF0028ECD13046BDE8F081641CFB
:10BA9000A742E6D82846F8E74A0950F8220001F004
:10BAA0001F0201219140084000D00120704701F0A1
:10BAB0001F0301229A40490900EB8100114600F062
:10BAC00029B8002100F017B8012100F023B80121A6
:10BAD00000F016B808B56A46FBF735FC009808BDBB
:10BAE00008B56A46FBF715FC009808BD08B56A461C
:10BAF000FBF729FC08BD08B56A46FBF70AFC08BD40
:10BB000008B56A46FBF7F8FB08BD08B56A46FBF7BF
:10BB1000E7FB08BD08B56A46FBF7EEFB009808BDD9
:10BB200008B56A46FBF71CFC009808BD38B504460A
:10BB300000258DF800506846FCF792F9216862688C
:10BB4000086890420ED9401E08600178238AE26896
:10BB500001FB0325227A2168101AC0B20A798242B9
:10BB600000D208719DF80000FCF79EF9284638BD08
:10BB700038B5054600208DF800000C466846FCF7F5
:10BB80006FF9E868298A201AB0FBF1F12A68106879
:10BB9000431C136001709DF80000FCF785F938BD67
:10BBA00010B530B1017A42680368891AC9B21A60C7
:10BBB00006E00E2010BD03681A68541C1C6011704A
:10BBC000491EC9B2F7D2006800210171084610BDB4
:10BBD000C20800F007030120895C984008407047C4
:10BBE00010B560B10161172120F8021B20F8021B7B
:10BBF0001B2100F8021BFFF7E7FA002010BD0E2002
:10BC000010BD0000F0B5858893B00C46002D39D1E9
:10BC1000018800263F4F24293BD006DC102909D09B
:10BC200011290CD0232958D14FE03A290BD055299E
:10BC300053D129E00146204602F09CF84DE0A01DBA
:10BC4000FFF7C2FA49E02246408934F8061F8142D4
:10BC500000D808466080172800D21720608010693D
:10BC600070B1607960B1D7E90001CDE90301ADF8A9
:10BC70000E506088ADF81000136903A9104698476C
:10BC80006671267113B0F0BD0146204602F0C6F879
:10BC900023E0011D2C2206A8FBF7EAFBBDF81800E3
:10BCA000BDF81C2004EBC0014A732269AAB1D7E990
:10BCB0000423CDE90423ADF81200487B8DF814006D
:10BCC0002269204604A9904707E0017A207B884238
:10BCD00000D201462846FDF79BFCA07A0028D1D06F
:10BCE000E1882846A5DF012580B11128CAD001F0DE
:10BCF000FDFB02460848094913B0401AC00805EB8D
:10BD00000040BDE8F04006A100F0BABFA672E5729F
:10BD1000B8E70000D81A0300843503006C3503002F
:10BD200073645F626C655F67617474635F65786399
:10BD300068616E67655F6D74755F72657175657357
:10BD40007428292072657475726E65642025732EBF
:10BD50000000000020B10278DE2A03D008207047DE
:10BD60000E20704741800020704760B159B10278C1
:10BD7000DE2A0AD009684160DE2101704FF6FF71AA
:10BD80004180002070470E207047082070477FB523
:10BD9000054600294DD0002D4BD008780C46DE28F2
:10BDA00047D1A8886188884202D1204605F02AFB45
:10BDB0002888012825D002283BD011283AD05128C4
:10BDC00037D135F8040F6188884232D1A978A81C90
:10BDD00002292ED1017A042903D0062901D0052990
:10BDE00027D10021009102228DF8002001914FF40B
:10BDF000C07202910391ADF80420007A05280FD09B
:10BE000010E0297A2046012913D1A988428891425D
:10BE10000FD10121017204B0BDE8704005F0F2BA03
:10BE2000ADF8041028886946B0DF002801D06168A9
:10BE300088477FBDA88861888842FAD14FF6FF7095
:10BE400060807FBD00F180400068002800D00120A4
:10BE5000704708B500F18040002101600068009043
:10BE600008BD000070B50D4C0125207808B185266D
:10BE70000EE00020A06060602061E060084801F0F2
:10BE800079FB064601F092FA08B901F05DFB2570D6
:10BE900001F052FB00B1A570304670BD902D00201E
:10BEA0008194020038B500258DF800506846FBF7F4
:10BEB000D7FF084CE068401EE060E06828B901F058
:10BEC0003BFB10B901F066FBA5709DF80000FBF785
:10BED000EBFF38BD902D0020F0B5054604781548DD
:10BEE00089B0164640F82420124A08690832A2F1A7
:10BEF0000C0742F82400487F385520226846FBF79B
:10BF0000B7FA04942878385C48B10EB10A4A00E0C8
:10BF100000226946281D01F0CBFD09B0F0BD0EB12D
:10BF2000064A00E00022694605F10C0001F08AFC97
:10BF3000F3E700002424002029110300710F0300FF
:10BF40000FB408B50399002904D004AA00926A46E8
:10BF500000F00FF801B05DF814FB10B582680446DC
:10BF6000002A05D0D4E90403216898470020A06086
:10BF700010BD2DE9FC4791460C00804676D014F8A0
:10BF8000011B39B125290ED04046FDF79BF92078D9
:10BF90000028F4D198F80C00002867D04046BDE88E
:10BFA000FC47FFF7DABF0020012221782B291BD0A4
:10BFB0002D2902D0302908D102E040F0010001E033
:10BFC00040F00200641C002AEFD100252A290ED07F
:10BFD0002178A1F130020A2A11D205EB850201EB8A
:10BFE0004205641C303DF1E740F00400EAE7D9F86F
:10BFF00000100B1DC9F800300968641C0D4421783D
:10C0000000232E290BD114F8011FA1F130020A2AB6
:10C0100005D203EB830201EB4203303BF3E76C29CB
:10C020000DD068290BD0692921D00BDC252918D027
:10C03000582931D063290ED0642915D117E014F89E
:10C04000011FECE7702969D0732932D075291BD004
:10C05000782909D120E0D9F80000011DC9F80010A5
:10C0600001784046FDF72EF9641C90E76CE0D9F8A2
:10C0700000100A1DC9F800200968CDE900500A2205
:10C080004046FEF793FFEFE7D9F800100A1DC9F804
:10C09000002009680A2206E0D9F800100A1DC9F834
:10C0A000002009681022CDE90050404605F0F2F862
:10C0B000DAE7D9F8001000270A1DC9F800200E6839
:10C0C000C00705D112E04046761C7F1CFDF7FAF848
:10C0D00031780029F7D104E0202140466D1EFDF79C
:10C0E000F1F8BD42C0D9002DF6D1BDE74EB13046C2
:10C0F000FBF7E2F9074604E0202140466D1EFDF7FC
:10C10000E1F8BD4206D9002DF6D103E04046761C89
:10C11000FDF7D8F831780029F8D1A5E7D9F8000063
:10C12000011DC9F80010056830214046FDF7CAF826
:10C1300078214046FDF7C6F808200021CDE900012E
:10C14000034610222946B0E7BDE8FC872DE9F843F5
:10C15000884605002C482D499946A0EB01004FEA7E
:10C16000D0004FF00101164601EB004424D02868AE
:10C1700000282CD0002E34D0696840464FF01007BC
:10C180000A68511E11EA080F11D101467243284670
:10C19000FBF749FC00282ED028684B46324604693C
:10C1A00001B041462846A446BDE8F043604720461A
:10C1B000174B18A2009722E00E2000902046144B47
:10C1C0001EA220A100F06BFD0E20BDE8F883082020
:10C1D000009020460E4B26A21AA100F060FD082018
:10C1E000F3E7092000902046094B24A215A100F096
:10C1F00056FD0920E9E7064B214A2046009711A188
:10C2000000F04DFD1020E0E7FC3503006C35030025
:10C210008B1C0300616464725F69735F70616765A2
:10C220005F616C69676E656428705F66732C20704F
:10C230006167655F6164647229000000705F667306
:10C2400000000000257320636865636B20666169E8
:10C250006C656420696E20257328292077697468CD
:10C260002076616C756520307825782E00000000FE
:10C27000705F66732D3E705F617069006C656E0063
:10C28000B02D030038B503001148124D4FF00E04D5
:10C29000A0EB05004FEAD0004FF0010505EB004090
:10C2A00009D061B119600C6801B0A446BDE8304006
:10C2B000114618466047084B08A2009402E0064B5E
:10C2C00008A2009409A100F0EAFC0E2038BD00008D
:10C2D000FC3503006C350300401C0300705F66737F
:10C2E00000000000705F617069000000257320632A
:10C2F0006865636B206661696C656420696E2025E2
:10C3000073282920776974682076616C7565203000
:10C310007825782E00000000044801214174007A3D
:10C3200008B10020704701207047000080300020D5
:10C33000012801D0032808D10449002201284A74A9
:10C3400000D00020087403F049BB70478030002003
:10C3500070B50246022801D0032A45D1234C207A29
:10C36000002841D0012833D0022831D120480023B1
:10C37000022A006802D0032A2AD11BE0E360017977
:10C3800011B1012924D10DE0D0E90565711B4FF4ED
:10C390008056B14200D33146294481614569A942A2
:10C3A0000ED015E00169491C0161426991420FD12B
:10C3B000237213E0E168491CE160082908D9E360B1
:10C3C0002372022A0AD00D21FDF7BCFB03F0AAFA62
:10C3D000607C28B1BDE8704000F0EEBF0021F3E7BB
:10C3E000BDE8704003F0FABA70BD00008030002054
:10C3F000E02400202DE9F84F90468A463A493B4A0E
:10C400000500A1EB02014FEAD1014FF00102DDF876
:10C4100028901E464FF00E0002EB01441AD0B8F1EE
:10C42000000F1CD02868002822D00920002E29D017
:10C4300069684968B6FBF1F201FB1261002926D058
:10C4400000902B4B20462BA235A100F028FC0920A0
:10C45000BDE8F88F00902046254B3CA203E00090F9
:10C46000234B20463BA22EA100F019FC0E20EFE743
:10C470000820009020461E4B38A229A100F00FFC96
:10C480000820E5E700902046194B37A2DCE750462C
:10C49000FBF7C3FA102798B14046FBF7BEFAA0B1EC
:10C4A000324651462846FBF7BEFA98B1CDF80090C7
:10C4B000286833464246C46851462846A047C7E725
:10C4C00020460B4B29A2009708E02046084B2DA2DE
:10C4D000009703E0064B204633A2009710A100F01E
:10C4E000DEFB1020B4E70000FC3503006C350300D0
:10C4F000781C030021286C656E202520705F667310
:10C500002D3E705F666C6173685F696E666F2D3E6D
:10C5100070726F6772616D5F756E697429000000DB
:10C52000257320636865636B206661696C656420B0
:10C53000696E202573282920776974682076616CDC
:10C54000756520307825782E00000000705F6673D6
:10C5500000000000705F737263000000705F66731C
:10C560002D3E705F617069006C656E00616464727D
:10C570005F69735F616C69676E65643332286465F7
:10C5800073742900616464725F69735F616C6967C9
:10C590006E65643332282875696E7433325F74298E
:10C5A000705F737263290000616464725F69735F16
:10C5B00077697468696E5F626F756E647328705F07
:10C5C00066732C20646573742C206C656E290000E2
:10C5D0002DE9FF411C46DDE90A7815460E466846FE
:10C5E00000F0C2F846EA450141EA840141EA072227
:10C5F00042EA0841009A00EB8200C0F80017BDE84B
:10C60000FF812DE9FF411C46DDE90A7815460E46FB
:10C61000684600F0B7F846EA450141EA840141EA7C
:10C62000072242EA0841009A00EB8200C0F8001796
:10C63000BDE8FF812DE9FF411C46DDE90A7815467A
:10C640000E46684600F0ACF846EA450141EA84012E
:10C6500041EA072242EA0841009A00EB8200C0F852
:10C660000017BDE8FF812DE9FF411C46DDE90A788E
:10C6700015460E46684600F0A1F846EA450141EA33
:10C68000840141EA072242EA0841009A00EB820055
:10C69000C0F80017BDE8FF811CB5002100910B46D2
:10C6A00001220191FFF7C6FF1CBD1CB500210091BE
:10C6B0000B4601220191FFF7D6FF1CBD1CB50022DD
:10C6C0000B46009211460192FFF7B4FF1CBD1CB54A
:10C6D00000220B46009211460192FFF7C4FF1CBDD9
:10C6E0001CB5002100910B46012201911146FFF774
:10C6F000A1FF1CBD1CB5002100910B460122019138
:10C700001146FFF7B0FF1CBD13B50C46684600F09C
:10C7100039F8009900EB8101D1F8002722F440326A
:10C72000C1F80027009900EB8100D0F8001741EA1A
:10C730000441C0F800171CBD3CB50A4CD4E90034D4
:10C74000CDE900346B46441808E000BF53F82010D0
:10C75000D1F8205520C2C1F82055401C8442F5D89C
:10C760003CBD0000D81B03000168202902D24FF015
:10C77000A040704701F01F010160014870470000B0
:10C78000000300500168202902D24FF0A0407047FA
:10C7900001F01F01016001487047000000030050D4
:10C7A0000168202902D24FF0A040704701F01F011C
:10C7B0000160014870470000000300500168202913
:10C7C00002D24FF0A040704701F01F010160014804
:10C7D000704700000003005042094FF0000102D0F2
:10C7E000012A05D102E04FF0FF3101E04FF6FF7161
:10C7F00000F01F00012282400A4201D00120704750
:10C800000020704701B56846FFF7BCFFD0F810055F
:10C810000099C84000F0010008BD01B56846FFF767
:10C82000BFFF009A01219140C0F8081508BD01B56D
:10C830006846FFF7C3FF009A01219140C0F8081530
:10C8400008BD38B501240090684631B1FFF78CFF70
:10C8500000998C40C0F8084538BDFFF785FF009966
:10C860008C40C0F80C4538BD034908B50844002188
:10C8700001600068009008BD006000400249405817
:10C88000012800D0002070470060004030B5154AF4
:10C8900001460020D2F8104423460AE0DB681D79E7
:10C8A000854205D1401C0A28F6DB4FF0FF3030BD31
:10C8B0001B68002BF2D1431CF9D0CB681871D2F859
:10C8C000103443B1DB68CC681B682360D2F81024B5
:10C8D000D268116030BDC2F81014C96800220A6025
:10C8E00030BD000038320020F0B595B01C4615462A
:10C8F0000E4608461A9F00F021FB182109A8FAF7F6
:10C90000D0FD0E97CDE909540023082203A9304633
:10C9100000F029FB05980690BDF81000ADF81C004A
:10C92000BDF81200ADF81E0000208DF8210003991B
:10C93000082501F00300012802D0022816D02FE0BC
:10C94000C1F3C200C1F383178C0A8DF82000BA002E
:10C950002B460FA9304600F006FB09A8009006AB55
:10C960003A460FA9204600F045FA19E0C1F3C2008B
:10C970008C0D8DF82000082C01D2274600E00827F6
:10C980002B463A460FA9304600F0EDFA3D44E41B31
:10C9900009AB06AA39460FA800F094F9002CEAD199
:10C9A000304600F0D1FA15B0F0BD7047012004F018
:10C9B000FDBA0000084810B50178084A515C19B169
:10C9C000001D01F00FF902E00C3001F009F8BDE89C
:10C9D0001040002004F0EABAF424002020240020B3
:10C9E00008B5034A00924023024AFFF77DFF08BDC5
:10C9F00055040300A03000200A4A012902EBC000C0
:10CA000007D0022907D0032907D0042907D0002026
:10CA100070470220704704207047007970474079C2
:10CA2000704700006C35030010B5FFF7BFFF04210D
:10CA30000348FFF72BFF02490120C968487110BD68
:10CA40005C3503002DE9F04F8DB0FCF753FC18B1B5
:10CA500000200DB0BDE8F08F7D4C4FF0000BC4F806
:10CA600018B4BFF34F8F7B49A06802900D68D84679
:10CA7000284004EB80000BE0D4F8180470B961681A
:10CA80000298814201D8A160E2E7284004EB8000CF
:10CA90000C3002A9FEF722FB0028EDD1002009AAE4
:10CAA000029901EA050304EB8303491CDB6842F8A1
:10CAB0002030401C02910228F2D3099800F00301B3
:10CAC000022902D001294DD0A8E0810D50228946CB
:10CAD000B2EB905F00D850210E4666F39F5009904C
