:020000040002F8
:10600000B0550020C5630200CD630200CF630200DB
:10601000D1630200D3630200D563020000000000D8
:10602000000000000000000000000000D763020034
:10603000D963020000000000DB630200DD630200A0
:1060400021660200DF63020011670200DF630200C5
:10605000DF630200DF6302007D650200DF63020090
:10606000DF630200DF630200DF630200DF63020020
:10607000DF630200DF630200DF630200DF63020010
:10608000DF63020079660200DF630200DF63020063
:10609000DF630200DF63020089660200DF63020043
:1060A000DF630200DF630200DF630200DF630200E0
:1060B000DF630200DF630200000000000000000058
:1060C000DF630200DF630200DF630200DF630200C0
:1060D000DF630200DF630200DF63020000000000F4
:1060E00000000000000000000000000000000000B0
:1060F00000000000000000000000000000000000A0
:10610000000000000000000000000000000000008F
:10611000000000000000000000000000000000007F
:10612000000000000000000000000000000000006F
:10613000000000000000000000000000000000005F
:10614000000000000000000000000000000000004F
:10615000000000000000000000000000000000003F
:10616000000000000000000000000000000000002F
:10617000000000000000000000000000000000001F
:10618000000000000000000000000000000000000F
:1061900000000000000000000000000000000000FF
:1061A00000000000000000000000000000000000EF
:1061B00000000000000000000000000000000000DF
:1061C00000000000000000000000000000000000CF
:1061D00000000000000000000000000000000000BF
:1061E00000000000000000000000000000000000AF
:1061F000000000000000000000000000000000009F
:10620000DFF810D000F07CF90048004725A202001A
:10621000AFF30080B055002030B450E8012F93B2A6
:10622000C48923448489A34228BF1B1B0489A34239
:1062300002BFBFF32F8F002007E0C3EA020340E84C
:106240000134002CE9D14FF001000A6030BC7047E6
:1062500050E8012FC2EA024240E801210029F7D1AB
:10626000704730B450E8022F1FFAA2F3C488A3424B
:1062700002BFBFF32F8F00200DE0C489234484891F
:10628000A34228BF1B1BC2EA034340E80234002C90
:10629000E8D14FF001000A6030BC704750E8022F8F
:1062A000C2EA224240E802210029F7D170470346A2
:1062B00053E8022FD988B2EB324F4FF0000017BFDE
:1062C00092B241EA014142EA014104E05A68B2EB6C
:1062D000324F08BF012043E80212002AE8D170477C
:1062E00030B4044654E8000F0D4644E80053002B38
:1062F000F8D1156030BC704730B4044654E8000F44
:1063000040EA010544E80053002BF7D1156030BC8A
:10631000704730B4044654E8000F00EA010544E831
:106320000053002BF7D1156030BC704730B40446E1
:1063300054E8000F80EA010544E80053002BF7D130
:10634000156030BC704730B4044654E8000F00EBD1
:10635000010544E80053002BF7D1156030BC7047AD
:1063600030B4044654E8000FA0EB010544E80053A4
:10637000002BF7D1156030BC704770B404464FF065
:10638000000054E8006F0D68AE4207BF44E80023E8
:10639000012044E800630E60002B1CBF0020F0E7E2
:1063A00070BC704730B4044654E8000F88422CBFDC
:1063B000451A054644E80053002BF5D1156030BC62
:1063C000704700000648804706480047FEE7FEE7A2
:1063D000FEE7FEE7FEE7FEE7FEE7FEE7FEE7FEE795
:1063E0008D660200016202002DE9F05F0546002083
:1063F00092469B4688460646814640241BE0284636
:1064000041464746224600F06BF853465A46C01AAA
:10641000914110D311461846224600F016F82D1A65
:1064200067EB01084F4622460120002100F00DF8DD
:1064300017EB00094E41201EA4F10104DFDC4846A1
:1064400031462A464346BDE8F09F202A04DB203A25
:1064500000FA02F1002070479140C2F1200320FAB7
:1064600003F319439040704700487047000A030047
:1064700040EA01039B0703D009E008C9121F08C0C6
:10648000042AFAD203E011F8013B00F8013B521E46
:10649000F9D27047D2B201E000F8012B491EFBD2BD
:1064A00070470022F6E710B513460A46044619461F
:1064B000FFF7F0FF204610BD421C10F8011B002919
:1064C000FBD1801A704730B504460020034600E037
:1064D0005B1C934203D2E05CCD5C401BF8D030BD26
:1064E000202A04DB203A21FA02F00021704721FA29
:1064F00002F3D040C2F12002914008431946704790
:10650000064C074D06E0E06840F0010394E8070000
:1065100098471034AC42F6D3FFF776FEAC1F030069
:10652000CC1F030070B58C1810F8015B15F0070341
:1065300001D110F8013B2A1106D110F8012B03E01C
:1065400010F8016B01F8016B5B1EF9D12B0705D424
:106550000023521E0DD401F8013BFAE710F8013B6D
:10656000CB1A921C03E013F8015B01F8015B521E89
:10657000F9D5A142D8D3002070BD00002DE9F84321
:106580000025DFF894804FF4807601242F46009593
:10659000304604F047FF38B1D8F80403204203D056
:1065A000304604F035FF2543361D64007F1CB6B22B
:1065B000082FEDD34FF4BE74204604F033FF48B1EA
:1065C000204604F025FF45F000456A4601210020E1
:1065D00004F0EEFE15F0FF0F16D0012600242E4227
:1065E0000ED008EB8401D1F81005D1F81015C0F3D6
:1065F00004200A4AC1F3014152F8242002B1904715
:106600007600641C082CEAD3002D02DA684607F0F5
:1066100027FEBDE8F883000000600040FC2C00204D
:1066200070B54FF48076304604F06AFA114CB50527
:1066300060B1304604F06BFA0120C5F808036079B8
:1066400020B9012060712168002088474FF48276CC
:10665000304604F055FA00280AD0304604F057FAC4
:106660000220C5F808032168BDE8704001200847F2
:1066700070BD00004423002002490248091F096838
:10668000006808479823002005F052BC1B4800B55D
:10669000016841F470010160BFF34F8FBFF36F8F4A
:1066A0004FF01022D2F80002002803DBD2F80402D7
:1066B00000281FDA012006F0EFF81521C2F80012B9
:1066C0000F480368002BFCD0C2F8041201680029AF
:1066D000FCD0002006F0E0F8BFF34F8F07487C386D
:1066E0000168084A01F4E06111430160BFF34F8F74
:1066F00000BFFDE705490448086000BD88ED00E0E3
:1067000000E401400400FA050090D0035824002062
:1067100001480068004700004C23002002E008C840
:10672000121F08C1002AFAD170477047002001E00B
:1067300001C1121F002AFBD170470000012120284F
:1067400003DA81400548014003E0402802DA20389E
:10675000814009B10120704700207047FC06FFBD51
:106760002DE9F843804643F2020659B9694606F01E
:1067700081FFB04202D008B100F0C6F99DF80000D8
:10678000800744D40021404606F07EFF05003ED03D
:10679000112D3CD01F482049401AC708022000EBA9
:1067A00007440D2D0AD00B2D1DD0B5421FD11B491A
:1067B00020464246BDE8F84305F036B8204642463A
:1067C000174905F031F81321404676DF00281ED026
:1067D00005F060FC024601B020464346BDE8F043A8
:1067E00010A105F028B8204642461C49E2E7284699
:1067F00005F050FC0246012000EB0740434618A17B
:1068000005F019F82846BDE8F84300F07DB9BDE869
:10681000F883000014200300DC1F03008411030030
:106820001011030073645F626C655F6761705F6481
:106830006973636F6E6E6563742829207265747561
:10684000726E6564202573206F6E20636F6E6E5FBD
:1068500068616E646C652025642E0000D011030011
:10686000417373657274696E672E20706D5F636F1C
:106870006E6E5F7365637572652829207265747525
:10688000726E6564202573206F6E20636F6E6E5F7D
:1068900068616E646C652025642E000010B560B1DF
:1068A00059B102780B785208B2EB530F05D106228A
:1068B000401C491CFFF707FE08B1002010BD012055
:1068C00010BD800701D00020704701207047C368C9
:1068D0008B4206D811440069491E814201D801202B
:1068E00070470020704790F82400012801D01F2035
:1068F0007047EE20704710B501220221002001F000
:10690000D5F908B1072810D107220221012001F092
:10691000CDF908B1072808D100210A22084601F064
:10692000C5F908B1072800D1002010BD10B560B12D
:106930000B480C49401AC008032101EB00400AA192
:1069400004F06EFF07F01CFC03E003210A4800F08E
:1069500092FC002803D0BDE8104000F0D5B810BD6F
:1069600084200300DC1F0300457261736520626FA1
:106970006E647321000000009024002070B58CB07C
:1069800015460E4600236C46C3F10F01415CE154ED
:106990005B1C102BF8D30D2104F11000FFF781FDD3
:1069A0000020C0F10F02315C2244401C1174032806
:1069B000F7D3684646DF0020C0F10F01214491F86B
:1069C00020102954401C0328F6D30CB070BD0220BF
:1069D00001F076B80149C97800F010BE18230020F4
:1069E00070B50024064D06E06868012110F83400F7
:1069F00005F0C4FB641C28788442F5D3002070BDE8
:106A000058230020F8B516460C4605460A2A01D23E
:106A10000720F8BD05F0ACFC18B905F06FFC0028A4
:106A2000F7D1134F102113487D603C70BE60FFF713
:106A300038FD0020C7E904000F4E0DE005EBC4004F
:106A40003168009181788DF8011000780B4A694611
:106A500005F0E4FB0028DCD1641EE4B2EED2BDE810
:106A6000F84005480021064A001D00F05FB800000C
:106A700058230020C82D00205C060300A5950200C5
:106A8000D184020010B572B604F074FF04F0AEFDBC
:106A90000028FBD111481249401AC408012000EB1C
:106AA000044010A104F0BCFE11480068C00700D0EB
:106AB00000BE022000EB04400EA104F0B1FEBFF3C3
:106AC0004F8F0B48E43801680E4A01F4E06111432E
:106AD0000160BFF34F8F00BFFDE70000842003007B
:106AE000DC1F0300466174616C206572726F720076
:106AF000F0ED00E053797374656D20726573657411
:106B0000000000000400FA050EB500210091CDE957
:106B100001106A4644F20100FFF7B4FF0EBD000009
:106B2000014801F03CBD0000782300203AB1006824
:106B30000129426100D00021016100207047072037
:106B40007047000038B51148082358224168009169
:106B50000F49006803F07FFD002815D10D4A6946F2
:106B60000D4801F021FD04000ED101210A4801F079
:106B700096FD0123094A1946074801F0E8FC064939
:106B8000012008390870204638BD00006406030063
:106B9000E82D002041E9020078230020FFFF7F005C
:106BA00070B50446007F0D4608B1002070BDA2619B
:106BB00002F0DEFC401941F10001C4E90201206944
:106BC00000B125612146BDE87040002008F0C6BE36
:106BD000014600200877012008F0C0BE30B5EFF371
:106BE000108172B60D4A9468012324B10370002904
:106BF00000D162B630BD93604FF0E023D3F88051EE
:106C0000074C25401560C3F88041D3F88441546097
:106C10005A17C3F8842100220270E8E7402E0020B2
:106C2000FC06FFBD0B498A68002A11D000280FD14D
:106C3000EFF3108072B60B684FF0E022C2F800311B
:106C40004B68C2F8043100228A60002800D162B685
:106C500070470000402E00202DE9F04106460868EC
:106C60000C46411C4FF0A0474FF0010506D005FA35
:106C700000F1C7F80815206804F074FB6068411C37
:106C800002D0002104F05CFB3168A069C1F8240542
:106C9000607D227D31681043C1F86C05D4E9001293
:106CA0003068C0F81425C0F80C15207D012815D1D6
:106CB000A068411C02D0002104F042FBE068411CA6
:106CC00005D08540C7F80855E06804F04BFBD4E9CF
:106CD00002123068C0F80825C0F81015BDE8F08130
:106CE0002DE9F041064608680C46411C4FF0A047CC
:106CF0004FF0010506D005FA00F1C7F80815206825
:106D000004F03AFB6068411C02D0002104F021FB32
:106D10003168A069C1F82405607D217D326808438F
:106D2000C2F86C05D4E900123068C0F80C15C0F840
:106D30001425207D012815D1A068411C02D0002116
:106D400004F007FBE068411C05D08540C7F80855F2
:106D5000E06804F011FBD4E902123068C0F808259D
:106D6000C0F81015BDE8F08103F028B92DE9F0470F
:106D7000814605884A484FF000088AB001784246AB
:106D8000284600F053FC99F80500400701D4002183
:106D900076E005F58077B8B205AB0122072106F051
:106DA000BFF804003F48404A4FF00101A0EB020049
:106DB0004FEAD00001EB00460AD0204605F06AF900
:106DC000024630462B46394904F035FD214629E07C
:106DD000284602F087FE4FF6FF71044688422BD109
:106DE0008A46069802F0E8FD0446504510D0014658
:106DF000284602F057FE2846FFF7ECFDE0B928468A
:106E000008F054F82846FFF7E5FD0028BFD013E04E
:106E100006F05CFA0446504508D1304624A104F03F
:106E2000FFFC0421284608F06FF8B0E70146284629
:106E300002F038FE4FF00108B8B22246072106F0F2
:106E4000E7F807001BD0862F1ED005F023F9024675
:106E500030462B462349009404F0F5FC3946284679
:106E600008F052F80021484605F052FFB8F1000F33
:106E700002D0204602F020FE0AB0BDE8F0870121D2
:106E8000484605F045FFF7E7142217496846FFF723
:106E9000EFFAADF80250684601F022FEEFE700007D
:106EA000182300201C200300DC1F0300CC14030067
:106EB000436F756C64206E6F7420616C6C6F6361DE
:106EC0007465206E657720706565725F6964206601
:106ED0006F7220696E636F6D696E6720626F6E649A
:106EE0002E000000E8150300FC0503002DE9FC4717
:106EF000002517880646158090F82D00144689460F
:106F000030B13A462146484600F0B6FB051E09D18D
:106F1000B0784FF00C0A18B32088C846001DB8425C
:106F200002D95046BDE8FC87684679DF0028F9D1D0
:106F30002088032108F8001020881921401C80B205
:106F4000208008F800102088401C80B2208000EBD0
:106F50000801BDF8000008F0D0FE21880844208018
:106F6000F0780222C8B1218896F9033001F1030CB0
:106F70004846BC45D5D8425421884FF0010C491CE5
:106F800089B2218000F801C02188491C89B2218082
:106F900009F801302088401C20807068B8B1218831
:106FA00090F9003001F1030C4846BC45B9D8425471
:106FB00021880A22491C89B2218042542188491C17
:106FC00089B2218009F801302088401C2080308956
:106FD00050B1CDE900474B460622022106F10800D8
:106FE00008F07AFF051E9DD1308A50B1CDE90047E7
:106FF0004B460722032106F1100008F06DFF051E25
:1070000090D1308B50B1CDE900474B461522142169
:1070100006F1180008F060FF051E83D1306A30B118
:107020003B462246494601F006F9051EDBD1706A4F
:1070300030B13B462246494603F0E8F9051ED2D15D
:1070400096F82C0038B13B4622464946304608F0B7
:1070500097F8051EC7D1307838B13B4622464946DD
:10706000304603F061FA051EBDD128465AE718B52F
:1070700004460020ADF8000013466A46204600F0A2
:1070800006F8002802D0BDF80000204418BD70B5F5
:10709000E0B1DAB1002402E0045D2C44A4B2651C26
:1070A0008D4206D21688A642F6D8061976789E42F8
:1070B000F2D18C420AD2A31C005D9BB200B1401EEB
:1070C0000004000C02D01C188C4201D9002070BDB5
:1070D000138070BD80F8301070472DE9F0410D002D
:1070E000044606D02CB195F87A000026012803D07A
:1070F00006E00E20BDE8F08195F89800012829D01F
:10710000D5F8A000042825D0D5F89C00042821D06B
:107110004FF00108A6702C2205F17801201DFFF721
:10712000A7F984F83060D5F8A4006063D5F8A8000A
:10713000A0634FF6FF70A4F8240404F58260C4F83D
:107140002004C4F82664A4F82A6484F82C64207807
:1071500010B104E00720CDE7FF2084F8540004F1CB
:1071600055072046C4F81074FFF7BDFBA4F81404BB
:1071700004F2144239462846FFF7B8FE0028B9D178
:1071800004F23120C4F818042046FFF7ACFBA4F841
:107190001C0404F21C4205F13C00D4F81814FFF75B
:1071A000A5FE0028A6D184F85180208BA4F84800C1
:1071B00084F83C80266484F8506060690021606433
:1071C000454604F13C02781E72DF002892D12570FA
:1071D00090E710B50288102A1BD0112A20D0262A49
:1071E0001DD1007A0C46012801D0022817D1A078C1
:1071F0000521401CB0FBF1F201FB1201204600F01A
:107200003AF800280BD0A16B002908D0BDE8104047
:107210000847C27B012A02D18088A1F8240410BD4E
:107220000C46002184F82E148088B4F82414884277
:10723000F5D120790028F2D10121DFE710B504460D
:1072400090F8540074DF012084F82E04002084F8A4
:10725000300484F850000621204601F07AFE002810
:1072600008D1A178204600F006F810B1A16B01B159
:107270008847002010BD2DE9F05F044600780F46D6
:1072800098B1A7700025C4F82654A4F82A5484F8AD
:107290002C54A079012608B1012F09D0E07980B1E2
:1072A000012F05D0022F03D00BE00820BDE8F09F8E
:1072B000616B21B184F82D640820884701E084F8CF
:1072C0002D5404F2274100200A5C0AB1304603E045
:1072D000401C0628F8D300204FF002084FF0030BA3
:1072E000012F06D0022F0CD0032F0FD0042F15D161
:1072F00010E0A17929B194F8241011B908B13046F1
:107300000DE0E17911B108B1404608E0207A08B1FA
:10731000584604E0607A08B1042000E02846A070D6
:10732000616B41B1032801D0042804D1607910B108
:1073300094F82E0498B184F82F5404F13C001821DD
:107340000746FFF7AEF884F83C6004F12C0006F025
:10735000EFF858B194F82C0084F8510008E084F854
:10736000305484F82F6407208847E6E784F851609A
:1073700094F8240058B104F1280006F0D9F820B19F
:1073800094F8280084F8520001E084F8526084F8F0
:107390005050A27804F2264104F582694FF0060AA3
:1073A000052A64D2DFE802F07C030F22420084F851
:1073B0003160C4F82054C4E9101584F83C80802062
:1073C000A4F8480055E084F8318094F82420384629
:1073D00012B10722027001E080F800B0228A828197
:1073E000C4F820544160E168B96042E06069B86067
:1073F000208BB88194F824003D460028204602D016
:1074000084F83CA001E084F83C6008F031FD50B104
:1074100085F814800421204601F09BFD38BB05212E
:1074200084F8311021E084F831B01EE0E069B860E2
:10743000208CB88194F824003D460028204602D0D4
:1074400084F83CA001E084F83C6008F011FD48B1EC
:1074500085F814800421204601F07BFD38B984F8BA
:1074600031A002E0042084F83100C4F82094A07810
:1074700078B13A4604F15400D4F8201472DF0028A1
:107480007FF414AF94F8301094F8540073DF0028A0
:10749000F6D1616B11B194F831008847002005E7FF
:1074A00084F83150F5E7000070B5040012D00146B1
:1074B0001C221448FEF7DCFF1248134D05602068BB
:1074C00050B17ADF002806D1206801682960406841
:1074D000686005E00E2070BD0B487BDF0028FAD104
:1074E00008484FF6FF711438084A20F8041B054974
:1074F000343901600021FFF719FB0028EBD003208D
:1075000070BD00006C2900207022002009FE0200DE
:1075100010B5044600F0A6F8002805D02146BDE8C5
:107520001040024803F016B910BD00009829002051
:1075300070B515460E46044608F0A6FC002809D092
:10754000054800EB8400C0692A463146BDE870401A
:1075500001F02CBD70BD00008829002010B5044644
:1075600000F080F8002805D02146BDE81040024810
:1075700003F0F0B810BD0000A029002010B50446AB
:1075800000F070F8002805D02146BDE81040024800
:1075900003F0E0B810BD00009C29002070B505463E
:1075A000002400F05FF838B12946044803F0D2F80F
:1075B00008B1022400E00124204670BD9429002077
:1075C00070B50546002400F04DF838B1294604484E
:1075D00003F0C0F808B1022400E00124204670BD89
:1075E0009029002010B51821034803F08EF81828C0
:1075F00000D0C0B210BD00008829002070B505463B
:107600000C46084608F040FC60B1284600F02AF815
:1076100040B10548294600EB8400BDE870401C30AD
:1076200003F098B8002070BD8829002070B5054689
:1076300016460C46084608F027FC00280ED02846BF
:1076400000F010F8002809D00548324600EB84000D
:107650002946BDE870401C3001F076BC70BD0000CA
:1076600088290020142801D30020704701460148D2
:1076700003F070B88C2900207CB5054608880C46BC
:107680000930904201D90C207CBD68466DDF00288E
:10769000FAD121880820685420881B21401C80B220
:1076A000208029542088401C80B220802844DDF8A6
:1076B00001100160BDF8051081802088801D80B216
:1076C00020809DF80010490800D00121295420880D
:1076D000401C208000207CBD38B50188044621294B
:1076E00030D012DC1E481F4A1029A0EB02004FEADE
:1076F000D0004FF0030202EB00400ED011292AD136
:10770000BDE8384018A104F08BB83B2924D0562995
:1077100021D18088132176DF0EE017A104F080F8D4
:10772000072000F0E5FA08B1FFF7EEF91548A18847
:107730000180154803F06CF900280CD0BDE83840F2
:10774000FFF7E2B900200090A08869468FDF00288B
:1077500001D0FFF7D9F938BD8088132176DFEBE738
:1077600084200300DC1F0300446973636F6E6E6541
:10777000637465642E000000436F6E6E656374650C
:10778000642E0000502200208424002010B51A4CE2
:107790000188606810290ED011292BD1401E60602D
:1077A00028D1FFF7A8F8002824D02168002921D08B
:1077B000BDE810400847D0B900210122084600F07A
:1077C00075FA08B107280FD107220221012000F025
:1077D0006DFA08B1072807D104220221002000F029
:1077E00065FA20B1072802D0216801B18847606896
:1077F000401C606010BD0000682200202DE9F047A9
:1078000001883B4E40F2F3194FF6FF7510291BD04B
:1078100011293ED0122954D0502946D1C188F2896D
:10782000841D914241D1618902293ED1868830462A
:1078300002F006FA050038D004F10C0000F0FCF864
:10784000A8B3294630464EE0C17B8788044601290B
:107850002BD1A846284602F0F3F9050017D02F8057
:1078600000202872234843464A460168C5F80A109A
:107870004068C5F80E0004F1100105F10A0002F09D
:10788000A3FA6872F08900280FD129462AE0042063
:1078900013E0808802F0D4F9040006D06068FFF796
:1078A00097F908B107F014FB2580BDE8F087FFE7E2
:1078B0006868FFF78DF90028F7D0BDE8F04707F0BA
:1078C00007BB87880646384602F0BAF90400ECD0B8
:1078D0002B464A4606F1080104F10A0002F074FA48
:1078E000607221463846BDE8F04700F0EBBC00006E
:1078F0006C290020702200202DE9F04F0446868874
:107900000188424897B0834610290CD0112950D0E5
:10791000103019296AD01A2974D1217A0C09042C43
:107920004DD301224CE0394D083DA868C0430B906F
:1079300069680BA802F032FF0B990CA800F05CFC00
:107940002C220CA96846FEF793FD0027E946A846BD
:1079500010E000BF09EB47005FF00005B0F804A09D
:1079600008EB85005146001D02F0B4FE6D1C1E2D73
:10797000F6D37F1C0098B842ECD8142E05D317B06C
:107980000420BDE8F04FFFF7BFB83146584602F07B
:10799000ECFE314608F1040002F0E7FEE07B02282D
:1079A00030D117B03146BDE8F04F1848001D02F045
:1079B000DCBE17B03146BDE8F04F02F08BBE0022AE
:1079C000314601F0C1FA032C01D3012200E000226C
:1079D0000E4831460C3001F0B7FA022C01D30122D7
:1079E00000E0002209483146083006E0217A0029EB
:1079F00008D1617AC1F3C002314617B0BDE8F04F3B
:107A000001F0A2BA17B0BDE8F08F00009029002065
:107A100010B504460748007800280AD0204601F037
:107A20003DFF204607F004FC2046BDE8104001F071
:107A3000DBBB10BDA8220020007800F001007047D9
:107A40000149085C70470000940403000649095C82
:107A50004FF0A040D0F81005C84010F0010000D051
:107A6000012080F001007047940403002DE9FC41DF
:107A70000646C0074FF000050ED0104F002401222B
:107A8000385D009500231146019503F0FFFB641C4F
:107A9000042CF4D300F046F8B0070DD5074E0024AF
:107AA000361D0022305D032300951146019503F039
:107AB000EDFB641C042CF4D3BDE8FC8190040300AE
:107AC00007490B5C4FF0A041D1F8042501209840F4
:107AD00020EA0203C1F808351040C1F80C057047D0
:107AE000900403000249085C012103F086BC0000F9
:107AF000900403000249085C002103F07EBC0000F2
:107B0000900403000649095C4FF0A040D0F804053A
:107B1000C84010F0010000D0012080F00100704743
:107B20009004030010B500242046FFF7DBFF641C1F
:107B3000042CF9D310BD10B500242046FFF7DAFF5E
:107B4000641C042CF9D310BD10B50246064B4FF04F
:107B5000FF3000215C5C944201D1084610BD491CF5
:107B60000429F7D310BD00009404030070B50C4E37
:107B70000C004FF0000530600BD0012000F06AF8D7
:107B800008B1022004E0012000F064F800B10B20ED
:107B90002070706810B9FEF7AEFE0546284670BD2D
:107BA0006822002010B5012000F0E0F908B1062895
:107BB00006D1012000F0DAF908B1062800D1002032
:107BC00010BD00002DE9F0470D468146FFF7BCFFD0
:107BD0000446042836D2DFF874801B481C4EA8F1F6
:107BE0000C0725B3012D0ED0022D2BD104EB440040
:107BF00030444578002D25D0B968002922D0284688
:107C0000BDE8F047084704EB4401755C0E44717809
:107C100049B10E4A4FF4A031093A8068FEF7C0FF1F
:107C200008B987F80390B17808F80410E2E7806893
:107C3000FEF7CEFF04EB4401314418F804008D78C0
:107C4000A842D7D0BDE8F087980403006422002042
:107C500008290020042801D2FFF7F8BE0020704751
:107C60000146104810B50088042907D007290ED016
:107C70000A2915D1BDE8104007F0C6BA132176DFF6
:107C80000CE000280CD0BDE81040FEF73DBFA0F589
:107C90007F41FF3904D10448FFF7D0FA0828F0D11A
:107CA00010BD0000502200209024002070B5002359
:107CB000042810D20D4D00EB4004012A02D1012905
:107CC0000CD00022094E00EB4000304461B1012984
:107CD00006D0022906D00723184670BD0E30C2B266
:107CE0002A55F9E74270F7E78270F5E70829002086
:107CF000044A014600201279D20702D0084600F05B
:107D00004DB870475822002070B506461E48002422
:107D1000C0E90161B00720D500250122114628469F
:107D2000FFF7C4FF6D1C0446042D02D2002CF4D0D2
:107D300013E094B940F2333204211448FEF762FE96
:107D400004000AD1FEF74CFE040006D10F48104A89
:107D50000021001FFEF7EAFE0446F00712D00120C2
:107D6000FFF784FE74B909480A4A00210C38FEF76F
:107D7000DDFE040006D10548074A01210838FEF758
:107D8000D5FE0446204670BD58220020A4040300FE
:107D9000798002005D9E0200CF6902002DE9F05F4C
:107DA000704C054600266078B34618B184F801B0DF
:107DB00002F03CF86C4F4FF47A694FF4C87A4FF0F8
:107DC0000108182D69D2DFE805F00C131338475469
:107DD000696E727F767FC98888888888B7BABDC087
:107DE000C9C902F023F83868FEF7F2FE06465CE0E7
:107DF0000020FFF787FE00284FF0000008D0FFF7B3
:107E000071FE022D02D14FF4E16008E0484606E021
:107E1000FFF770FE022D01D1C82000E05046410C52
:107E2000C0034FF47A72801841F1000125705200AE
:107E30000023FEF7D9FA01462AE00020FFF762FE90
:107E400000284FF0000004D0FFF74CFE4FF44870BC
:107E5000E5E7FFF74FFEDFE70020FFF753FE0028BE
:107E60004FF0000002D0FFF73DFECFE7FFF742FEE4
:107E7000D4E70020FFF746FE00284FF0000002D0B4
:107E8000FFF730FE01E0FFF735FE257040F6CD41EB
:107E900000223868FEF784FE06464AE00020FFF71D
:107EA0000FFE25700CE0002055E0257041E084F8BD
:107EB0000180002002E084F801800220FFF700FE2C
:107EC000002240F26661E4E784F801800120FFF7B8
:107ED000F7FD00224FF40051DBE77868FEF778FEEB
:107EE0000646D5F1110000D02EB10220FFF7FAFDB1
:107EF00084F802B01DE0012816D980B2C821484399
:107F0000C117C90341EA5041C0034FF47A72801887
:107F100041F1000152000023FEF766FA01460022FB
:107F20007868FEF73DFE06460220FFF7E3FD84F881
:107F300002803046BDE8F09F01F078FFB5E701F020
:107F400075FFB0E701F072FF04E001F06FFF002061
:107F5000FFF7D0FD0120FFF7CDFDA6E7FFF7EBFD12
:107F6000A3E700005822002098040300012108F034
:107F70001AB800002DE9F84F0546861C00208DF840
:107F8000000091460F464FF0010A6846FEF726FEB4
:107F90001B4C04F21C4860683860D4E90101194F99
:107FA000401A3968081A0EE00121404602F0F0FB41
:107FB00002F0E6F80146404602F0EAFBD4E901018E
:107FC000401A3968081A401C8642EDD8B9F1000FF2
:107FD00003D0052065F3891002E0062065F39F5069
:107FE00061683A68114004EB8101C8606068304400
:107FF00060609DF80000FEF715FE5046BDE8F88F62
:10800000903100200024002070B50D4604460A2956
:1080100002D10D21FFF7F8FFA0682268411CA16082
:108020001554D4E90101814204D32046BDE87040D3
:1080300002F0F1BD70BD00000448816840688142D3
:1080400001D10120704700207047000090310020CE
:10805000034630B5074800210478426806E000BFB7
:1080600002EBC10005789D4203D0491CA142F7DB19
:10807000002030BD5823002000780221FFF7A2BD68
:108080001CB5044601F02EFD00236A46092105F0C7
:1080900089F8052805D10348012241792046FFF7D8
:1080A000C5FA1CBD782200201CB5044600200090B3
:1080B00042F6A620ADF8000001208DF80200084825
:1080C00001AA6946006801902046A0DF002805D17A
:1080D0000448012281792046FFF7A8FA1CBD000060
:1080E000C40403007822002005494FF0FF3208281D
:1080F00041F8202002D3084480F84820704700004F
:10810000FC2C0020F0B54FF0FF3512B100230826FB
:1081100001E008230C260C4C05E000BF54F8237046
:108120007F1C04D05B1CB342F8D32846F0BD261850
:108130005DB286F8305044F82310002AF5D1E118DA
:1081400081F84800F1E70000FC2C002002490844B7
:1081500090F9300070470000FC2C002070B50446F8
:108160004FF6FF750A462846AC4209D14FF4807499
:108170002146104602F0C9FA80B2A0420BD070BD71
:10818000FF2CFCD82146104602F0AFFA90F0010F08
:1081900001D0204670BD284670BD000070B5084C67
:1081A000050009D010342168002907D00868206034
:1081B000496828468847F6E70834F4E770BD0000B0
:1081C000E82C0020054A012120B1012805D1917039
:1081D000FFF7E4BF51700020FAE77047E82C002059
:1081E00010B5D0E90234D1E90220D11AA04101D35F
:1081F000012010BD002010BD73B58CB006460020D4
:1082000000900D9880B100246D4621460DA802F023
:10821000A1FA30B1009805EB400084800098401C22
:108220000090641C142CF0D32C2269463046FEF7D3
:108230001FF90EB070BD2DE9F04117880646B81D34
:1082400014460D46984202D90C20BDE8F0813188D1
:10825000072206290AD34FF4486C4FF6FF73614595
:1082600001D9994202D17088062801D21046ECE764
:10827000604501D99842F9D1994203D0984201D082
:108280008142F3D80520E85520881221401C80B295
:10829000208029542088401C80B2208041193088D9
:1082A00007F02BFD2188084480B220804119708896
:1082B00007F023FD2188084420800020C5E7FEF751
:1082C00023BC000038B54A7A0F4B62B100220A7213
:1082D0005969002906D001228DF80020ADF802006E
:1082E0006846884738BD0A7A62B19B684C68024686
:1082F00019462046FEF754FC0028F3D0BDE838406C
:1083000006F0E6BD5B68F1E76C290020F0B585B0AA
:1083100016460F4604461D4614220B496846FEF7D2
:10832000A7F80A488DF80870ADF80240ADF80A6069
:108330008DF80C50017800222046FFF777F9684647
:1083400000F0CEFB05B0F0BD10060300182300209E
:10835000FEF706BA70B588B0064600200590069074
:10836000ADF81410ADF816100190029001AA05A9FD
:10837000304690DF050021D003F08CFE0346114803
:1083800011493246401AC108012000EB0140044661
:108390000E4903F050FABDF8042012B9BDF80600EA
:1083A00028B1BDF80630204609A103F044FABDF813
:1083B00008201AB12046164903F036FA08B02846BC
:1083C00070BD0000F41F0300DC1F0300440D030018
:1083D00054686520726571756573746564205458BE
:1083E0002F5258207061636B6574206C656E6774E2
:1083F0006820697320746F6F206C6F6E67206279DC
:108400002025752F2575206F63746574732E000009
:10841000900D030070B504460948012102F0D3F91C
:10842000BFF35F8F0025002808D1204601F022FE0F
:10843000002803D1BFF35F8F0148056070BD0000C5
:10844000842200202DE9FF410C4620B14FF4064064
:1084500004B0BDE8F0812079002748F2096538B101
:1084600041F61D5601281BD0022826D0681DEFE7D3
:108470000220207102970397E0680190694601A8E5
:1084800006F074F950B102988188E180008820815B
:10849000BDF80010029806F0E7F9D9E72846D7E7BB
:1084A0000A4B6A460021A01D06F018F938B10749A9
:1084B00018398F61CF61A842CAD13046C8E7034856
:1084C0008188019806F0D0F9F5E70000B823002074
:1084D00070B500240F4D10E0686800EBC4063078DA
:1084E00003F002FF7178012901D0012100E0002191
:1084F0004140307800F048FA641C28788442EBDB75
:10850000D5E90401084303D0BDE8704007F042BA42
:1085100070BD00005823002010B50021024802F071
:1085200052F980F3100010BDAC3500204FF48032BA
:108530008A400168C1F848230068C0F808237047E2
:108540004FF4A07202EB810189B200F08DBA2DE9DF
:10855000F04105460E464FF4A07000EB860081B254
:1085600028684FF48034B440984622F07F47C0F822
:1085700008432868C0F84843286803F01FFB2868B0
:1085800000EB8600C0F840752868C0F84443B8F195
:10859000000F02D02868C0F80443BDE8F0810068ED
:1085A000D0F804057047000070B54379234C44F8B7
:1085B00023204279231D03EBC202224C1579204A65
:1085C000121BD4082DB10825022000EB04401EA187
:1085D00030E005680A88C5F8082590F904208978F4
:1085E000002A4FEA411104DB02F1E02282F8001474
:1085F00005E002F00F0202F1E02282F8141D90F96A
:1086000004100122002909DB01F01F0502FA05F51B
:108610004909890001F1E021C1F8005141790025A3
:1086200003EBC1010A71417943F83100032000EBEB
:1086300004400EA103F0F4F8284670BD94230020F6
:1086400064200300DC1F030052544320696E7374DE
:10865000616E636520616C726561647920696E6921
:108660007469616C697A65642E0000005254433A63
:1086700020696E697469616C697A65642E00000016
:1086800090F90400002809DB00F01F02012191404D
:108690004009800000F1E020C0F8001270470A464F
:1086A000022100F067B94FF4827100F0DDB9006873
:1086B00001210160704700680121416070472DE988
:1086C000F05F07460C464FF4A07000EB84001FFAE1
:1086D00080FA38684FF48036A6409B4622F07F45EA
:1086E000C0F848633868C0F808633868D0F8048573
:1086F00000EB8402D2F84095C2F8408551463868B4
:1087000003F05CFAA9EB080020F07F40012806D1B5
:10871000102003F02BFD5146386803F04FFA3868FB
:10872000D0F80485C0F84463A5EB080121F07F412F
:108730003868012900EB840010D0C0F84055386833
:10874000D0F804156FF07F4C6A1A521E22F07F4257
:10875000ACEB0B03934217D362B118E06D1CC0F869
:108760004055102003F002FD3868D0F8040540455C
:108770000AD10CE000EB84006D1CC0F8405538684D
:10878000D0F80405884202D00D20BDE8F09F0122F8
:108790003146384600F0EEF80020F6E713460A4668
:1087A0000021FFF7B3BD00002DE9F843104D0F463F
:1087B00080461E4691466946286801F05FFF040026
:1087C00014D01C21FDF76DFE01202071C4F8149017
:1087D000380BC4F80080C4E902606946286801F0DB
:1087E0006EFF05F0E5FE0020BDE8F8830420FBE7FE
:1087F0001007030010B503780022072B06D2DFE82C
:1088000003F005040610202930000A7010BD012372
:108810000B7003898B818388CB81C06888600A7460
:1088200010BD02220A7002898A818288CA81C268C8
:108830008A60807D062802D00020087410BD0120C7
:10884000FBE703220A70C2888A810289CA81C06854
:10885000886010BD04230B70C0888881CA818A603B
:1088600010BD0520087010BD70B5064D06460024E9
:1088700055F8241009B130468847641C042CF7D3FE
:1088800070BD0000682E002030B50446006887B037
:108890000D46806800281FD018216846FDF701FEAC
:1088A0000195A0680590207910B1012810D107E04A
:1088B00001208DF8000020690290E068039005E037
:1088C00002208DF80000E0680003029060690490C7
:1088D000206881686846884707B030BDF0B585B02C
:1088E00017460C0005463AD0112C38D0082C36D04B
:1088F0001C481D49401AC6080D2C11D0204603F013
:10890000C9FB0246012000EB06402B46174902F046
:1089100092FF2A460721684601F064FE02941BE09C
:10892000022000EB06402A46114902F07DFF2A464C
:108930000321684601F056FE27B13878C00701D000
:10894000012000E002208DF8080000208DF80C00C6
:1089500041F20110ADF80A00684600F0CFF805B00A
:10896000F0BD000024200300DC1F0300B417030047
:10897000A41603000368C3F84413002A02D0006859
:10898000C0F80413704700002DE9F84F0E46344933
:10899000804601EB5001C007097801D00F0901E0C2
:1089A00001F00F074FF00009424601204946FDF74C
:1089B0004CFDDFF8B0A004460D46052F4ED2DFE88F
:1089C00007F003161B282C00002E47D0012140463B
:1089D00006F0C4FE8DF800906846FEF7FFF850469A
:1089E000D0E904120C431543CAE9044532E00EB144
:1089F000022114E0002112E04EB10321404606F0AE
:108A0000ADFE4046BDE8F84F012107F055BA0121FF
:108A100005E0002E22D1042101E02EB103214046C1
:108A2000BDE8F84F06F09ABE0021404606F096FEDB
:108A30000021404607F040FA8DF800906846FEF7A6
:108A4000CDF85046E243D0E904341A4024EA050147
:108A5000CAE904219DF80000FEF7E4F8BDE8F88FAC
:108A6000C82D00205823002010B5006842581AB1C4
:108A700003F0A4F8012010BD002010BD10B504467D
:108A8000408801F02FF8A080024801682046BDE828
:108A9000104008478022002010B50446808800F06E
:108AA0006BFF6080024801682046BDE8104008471F
:108AB000902200202DE9F04107460024064E074D84
:108AC00005E000BF56F8241038468847641CE87853
:108AD0008442F7DBBDE8F0819C2C0020A822002016
:108AE00010B50446408800F0FDFFA08002480168F0
:108AF0002046BDE810400847D00503000149096839
:108B0000084700004C06030070B586B004461421E7
:108B10006846FDF7C6FCA0890125A0F54040ADF8E8
:108B2000040020782F4E062833D2DFE800F032030D
:108B300003032C4AA08900F0EBF930B9E08943F631
:108B4000FE71A0F54040884223D8A07B8DF8080034
:108B5000207803280FD000208DF80900A06803902A
:108B6000606850B109208DF8000060680490684684
:108B700004F06AFA0DE00120EEE708208DF800000D
:108B80008DF81050F3E7A08900F0C2F908B1E08930
:108B900030B17078002801D004F0AAFB06B070BD97
:108BA000606830B10B208DF800006068029075702D
:108BB000DDE70A208DF80000BDF8040004F03CFC5D
:108BC000F5E7606848B114208DF8000060680290F5
:108BD0004FF6FF70ADF80400C9E713208DF80000D0
:108BE000F6E700009422002038B504460F480078CC
:108BF000B0B1A4F57F40FF380FD0684605F008FCFF
:108C000088B10521017001210171C480684605F019
:108C10000DFC05F0BFFC002038BD48F2036038BDF4
:108C200048F2016038BD48F2076038BDC02300201B
:108C30000D4808B5007888B1684605F0E9FB80B1B9
:108C400006210170684605F0F1FB0848017809B17A
:108C50000121017305F09EFC002008BD48F201606F
:108C600008BD48F2076008BDC02300202C2F00205B
:108C7000F0B587B014216846FDF713FC304C20781E
:108C800018B16846FFF7F0FD57E0201D01F07DFDAB
:108C900098BB40F6F8700168481C02D14FF01020D4
:108CA00041694FF08050026940694B1C01D100FBC3
:108CB00002F1244800220161A1F54051C16022491E
:108CC00002F03EF9002823D121481C238C221F49A1
:108CD000006801F0C0FC03F043FF050016D0022D30
:108CE00014D000270126062D14D005A805F090FB0E
:108CF00098B106700C2D1BD200E01EE0DFE805F0F5
:108D000018101810181718171812141248F20A60C1
:108D100007B0F0BD26706760B3E748F20760F7E779
:108D2000077105E0032100E00221017100E00671F6
:108D300005A805F07BFB05F02DFC0020E8E700000E
:108D4000C02300205C24002020070300782E002090
:108D50008806030038B5040014D0694605F006FD06
:108D6000B0B1BDF8000000EB80010B4800EB8100C2
:108D7000C16851B1A17A41B1C168491EC1600020EA
:108D8000A07238BD48F2046038BD48F2056038BDB5
:108D900048F2096038BD0000042F00201FB501A96A
:108DA000684605F09BFC04B010BD07B513460A46A3
:108DB0006946002005F092FC0EBD07B513460A4631
:108DC0000021684605F08AFC0EBD20B119B100688B
:108DD00008600020704748F204607047F8B50D46FF
:108DE000040018D0BDB1694605F0C0FCB0B1BDF8B3
:108DF00000000C4900EB800001EB800001210C30E9
:108E0000666801F0C5FC2E6060680C306860012067
:108E1000A0720020F8BD48F20460F8BD48F2096075
:108E2000F8BD0000042F002018B10323002207F032
:108E3000FDB948F2046070470223002207F0F6B93A
:108E4000094910B50A69042A0AD0084A096942F892
:108E5000210005480121103001F09AFC002010BDCE
:108E600048F20B6010BD0000A0230020682E0020F7
:108E70002DE9F84F044624480078D8B1F4B1122106
:108E80002046FDF70EFB0320DFF8809020800025B0
:108E900004F1100804F10E0A05EB850109EB8106C7
:108EA00030897189084487B2706803F0E3FD0328B4
:108EB00007D009E048F20160BDE8F88F48F204608D
:108EC000FAE72088401E20806088F16808446080AE
:108ED0002089718908442081608938446081C7F500
:108EE0008060A18980B2814200D2A0815346A21D38
:108EF000211D2846CDF8008005F0D4FC6D1CADB2D4
:108F0000022DC9D30020D7E7C0230020042F002062
:108F100043F6FE71A0F54040884201D80120704719
:108F20000020704710B504460078182802D1FEF7DB
:108F300059FB207010BD10B504460078182802D1E6
:108F4000FEF750FB207010BD0AB101F00EBC01F01D
:108F5000C1BB70B50D460446B0F81414D0F8100427
:108F60000122FEF784F800B1057004F13C0204F51B
:108F7000826104F1540072DF70BD000070B51346C9
:108F800000220546112900D10122074C33B1217975
:108F9000FEF74CFB00226178284600E06178BDE8CE
:108FA0007040FEF743BB000020230020F7B51746B2
:108FB0000E0011D00098002560B1002421466846BB
:108FC00001F0C8FB18B1A0B23946B0476D1C641C53
:108FD000142CF3D32846FEBD0020FEBD406805F0EA
:108FE00037BA000070B510B14FF4064070BD1C4C8C
:108FF0000025207B08B1257301E000F0A5F820785A
:1090000008282AD2DFE800F02904080C10291422CD
:10901000BDE8704000F026B8BDE8704000F082B8AE
:10902000BDE8704000F064B8BDE8704000F040B8A2
:109030000620207060880A4900EB8000283901EB87
:1090400080004068BDE8704003F06ABD07202070D2
:109050006560BDE8704003F071BD48F20E6070BD00
:109060002C2F00201149F0B48A1C00200346A1F1E6
:1090700028050C18A67A4EB1A37200EB800405EB0C
:109080008404E66816B9247C012C0AD0401C80B206
:109090000228EED30B704B804B60F0BC41F61D50A4
:1090A00070471080F0BC00F03DB800002C2F00206D
:1090B0000C48418801EB8102A0F1280101EB8201FB
:1090C000CA6852B1052101700748022181800168F8
:1090D00000230122054801F097BE0422027049686E
:1090E000F6E700002C2F0020C82300205C2400207D
:1090F00038B50A49084803240B684268898803EB9D
:10910000810153880470DB1C00201B0400909B0B22
:10911000034801F0CDFF38BD2C2F0020C8230020CC
:109120005C240020074910B54888091D05F06EFB36
:1091300018B1BDE81040FFF7DBBFBDE81040FFF7F6
:10914000B7BF00002C2F002070B5194C01212078EA
:1091500008281AD2DFE800F00419191C252929185B
:109160002089134A401C2081002060802073283A07
:1091700000EB800312F8233043B100232518401C74
:1091800080B2AB720228F3D3217070BD0123F5E7E2
:109190006068084940888A88C01C10448880022082
:1091A00004E000F009F8062000E00720207070BD00
:1091B0002C2F0020C82300200A490948498802684A
:1091C00001EB81030749283901EB83014B680360F8
:1091D0004A6082880A8102228280002008747047D7
:1091E000C82300202C2F00202DE9F043064680885C
:1091F0003288DFF85C8185B00746502A37D010DC12
:109200005449554B06F10A05A1EB03014FEAD10180
:109210004FF0020303EB0144352A3AD0362A07D136
:1092200068E0522A02D0542AF9D102E000F0C6FECA
:1092300082E0142249496846FDF71AF9ADF8027038
:10924000384600F04FFCADF8040000F0C9F90022E8
:10925000444698F804103846FEF7E8F90022E17811
:109260003846FEF7E3F96846FFF708FC64E0307B18
:10927000012861D1B07A01285ED13089A0F524514E
:10928000023959D10121384600F0ECFE06F0A4FD68
:1092900052E098F80610FEF7B1F900284CD00022F1
:1092A00098F806103846FEF7C1F9F288B2F5857FC6
:1092B00017D012B120462AA10BE02A88012A03D038
:1092C000204636A102F0B0FA6A88012A04D020466E
:1092D00041A102F0A9FA04E0A98800223846A1DFE2
:1092E00008B1002125E0012298F807103846FEF762
:1092F0009DF921E04FF0000998F80710FEF77EF97C
:10930000D0B1002298F807103846FEF78FF9F2889E
:1093100012B1204612A104E0AA88012A04D02046F6
:109320002DA102F081FA03E0A87900B10120814665
:109330004946384606F074FA0022364998F8020089
:10934000FEF7F6F805B0BDE8F04305F011BE0000E9
:1093500078220020DC1F0300DC1F03001C05030033
:10936000556E657870656374656420474154542078
:10937000737461747573207768696C6520676574B0
:1093800074696E6720434152206368617220766180
:109390006C75653A20307825780000004D756C7446
:1093A00069706C6520282564292043415220636838
:1093B0006172616374657269737469637320666F47
:1093C000756E642C207573696E67207468652066FD
:1093D000697273742E000000556E65787065637451
:1093E00065642043415220636861726163746572F1
:1093F00069737469632076616C7565206C656E674E
:10940000746820282564292C2073746F72652030BD
:109410002E000000696D020070B504460078002837
:1094200014D1608800F0CAFD6588284600F09AF9DA
:1094300028B107480122C1782846FEF7F7F860886E
:10944000FEF71EFEBDE8704006F0C6BC70BD000011
:109450007822002070B5204C00252570FEF7C2F858
:109460006070FEF7BFF8A070FEF7BCF8E070FEF782
:10947000B9F82071FEF7B6F86071FEF7B3F8A07185
:10948000FEF7B0F8E07162780121182A18D0A278AE
:10949000182A15D0E278182A12D02279182A0FD06B
:1094A0006279182A0CD0A279182A09D0182807D076
:1094B00004F10C000560BFF35F8F2170002070BDC8
:1094C0000648074A801AC00801EB0040054902F02F
:1094D000A7F9032070BD000078220020DC1F0300E4
:1094E000DC1F0300040A03007CB50446007808284A
:1094F00037D1607A58BB207A1C4E4FF6FF75012891
:1095000011D0072802D008282BD121E0A08800F034
:1095100033FA0446A84224D0012100F0A3FD2046DE
:10952000FEF7AEFD1DE0A0886A46012103F0AEFC07
:1095300068B90198007850B1A08800F01DFAA842DF
:109540000FD00122F178FEF771F805F011FD08E067
:10955000F068012805D1BFF35F8F044900200C316A
:109560000860BDE87C4006F037BC0000782200208F
:1095700010B50B48FFF713F8094A083AD2E904344A
:10958000C018D2E9063244F10001C31A71EB02029D
:1095900004D24FF08072801841F1000110BD00002C
:1095A0007823002010B5C0B2FEF752FD04460078C3
:1095B00002F09AFE01466078012801D0012000E007
:1095C000002090EA010F08D00449D1E904010843C2
:1095D00003D1BDE8104006F0DDB910BD58230020CE
:1095E0001CB5054AD2E90212CDE9001200226946F3
:1095F00003F012FE1CBD00003405030003484FF6C3
:10960000FF718180012101700020704788220020B5
:109610002DE9FC41804600F065FA0024032501276E
:10962000A0F57F412646FF3908D06A46082103F09D
:109630002DFC18B90198841D8688056832462B4692
:1096400021464046B1DF042804D0082804D00B2866
:1096500008D002E0112000E00020002F00D10B20F4
:10966000BDE8FC810027A80701D50125E6E73443C2
:1096700003D0002426460325E0E706480649424673
:10968000401AC008012101EB0040044902F0CCF867
:10969000E5E70000E41F0300DC1F0300CC0C03001F
:1096A0002DE9FC41804600F01DFAA0F57F410646F9
:1096B000FF390ED001252A466D1C0027ADB26B463E
:1096C0000821304603F02CFC040006D0072C33D0D0
:1096D00033E043F20200BDE8FC81019903230A1D37
:1096E0000B604046891DB2DF040004D00C2C09D069
:1096F000052C09D009E032460821104603F088FC09
:1097000004461AE0012700E000240821304603F057
:1097100075FC70B102F0BEFC0346094809493246A7
:10972000401AC008012101EB0040074902F083F80C
:109730000324002FBFD100E00C242046CBE700001B
:10974000E41F0300DC1F03004C0C03000448808866
:10975000A0F57F41FF3901D005F014BC704700002F
:10976000882200200EB502A9019100F0BBF96A46DB
:10977000012103F08BFB08B100200EBD0198007899
:109780000EBD00002DE9F04107464FF6FF76104868
:10979000B3DF78B102F07EFC02460E480E49401A53
:1097A000C008012101EB00400C4902F03DF8032004
:1097B000BDE8F081064C43F20305A41E32466188E1
:1097C0003846AFDFA842F3D16088401C6080F5E7DF
:1097D0008A220020E41F0300DC1F0300000C0300AA
:1097E000428800EB82020C328A4201D90220704783
:1097F0008188A1F57F42FF3A06D0018821B18068B7
:10980000401C01D00020704701207047884204D2DC
:109810000068401C01D001207047002070473EB511
:10982000027802230C46B3EB520F17D1B0F80110A7
:10983000ADF80010C1788DF802108188ADF80410E1
:1098400080798DF8060002AA01A92046FDF796F856
:10985000032202A96846FCF736FE08B100203EBD8F
:1098600001203EBD70B50D460446142810D2FDF708
:10987000F9FE68B1084904EB840001EB4000D0F820
:1098800002102960C188A980007AA871002070BDEB
:1098900043F2020070BD0000042A002070B5018868
:1098A00090B0102961D1011D2C226846FCF7E0FD23
:1098B0009DF804004FF6FF7603213446B1EB500FBC
:1098C0002BD003F067FC9DF804006D4640080ED0D5
:1098D00001280CD0022820D118E00D99281D113143
:1098E000FCF7DCFF18B100BFBDF82C4015E00CAA56
:1098F0000BA9072003F022FC0028EED10DE00D9902
:10990000281D491CFFF78BFF0028EDD10CAA0BA9DD
:10991000072003F013FC0028F1D1BDF80000B44289
:1099200000EB8001124820F8114000EB4100019942
:10993000C0F80210BDF80810C1809DF80A1001722D
:1099400013D0BDF80000ADF82E000020ADF8304077
:10995000084E8DF82C000BAD044600BF56F82410BD
:1099600028468847641C022CF8D310B070BD000054
:10997000042A0020480503002DE9F0414FF6FF7648
:109980000546B04213D00B4F002400BF04EB840007
:1099900037F81000A84206D12046FDF763FE10B14B
:1099A0002046BDE8F081641CA4B2142CEED33046EE
:1099B000F7E70000042A00203EB50C46054603F0F8
:1099C000E9FB0BE0BDF80000A04207D02846029951
:1099D00000F00EF810B1BDF800003EBD01AA6946C6
:1099E000072003F0ABFB0028ECD14FF6FF703EBD23
:1099F0002DE9F0410C46054600F1110701F1110671
:109A00001022491C401CFCF75EFD48B9681C00F0A0
:109A1000FDF928B1601C00F0F9F908B1012400E05B
:109A2000002431463846FCF739FF3B780222B2EB7E
:109A3000530F0CD00321B1EB530F08D03378B2EBA6
:109A4000530F04D0B1EB530F01D0012100E00021EE
:109A5000084201D18C4302D00120BDE8F0810020F2
:109A6000FBE7018811B9421892780AB101207047CA
:109A7000491C0829F7D30020704710B50C4603464F
:109A8000FFF7EFFF00280AD018882188884205D107
:109A90000822A11C981CFCF716FD08B1002010BD7F
:109AA000012010BD142804D2024A00EB800022F8E5
:109AB00010107047042A002070B50546FFF75CFFC0
:109AC0000446284603F0E6F9002808D1142C06D2F3
:109AD000034B04EB84024FF6FF7123F8121070BDA4
:109AE000042A002010B50446142808D2FDF7BAFD58
:109AF00028B1044904EB840031F8100010BD4FF682
:109B0000FF7010BD042A00203EB5044603F042FB5E
:109B10000EE0019920464631FFF7AFFF28B90199C1
:109B200020462A31FFF7A9FF10B1BDF808003EBD5D
:109B30006A4602A9072003F001FB0028E9D14FF68D
:109B4000FF703EBD10B50A4941600A4800F01DFE95
:109B500058B902F0FFF907491C238C220874044805
:109B60008C39001F006800F076FD002010BD000059
:109B700014070300D82F00202DE9F0412D4F0025B8
:109B800020B17D604FF40640BDE8F08108790122E4
:109B900058B1294E01280CD0264C4FF00208083449
:109BA000022820D0032841D127E00A7102F0C6FF25
:109BB0003AE0002000EB800116F82110022908D0BD
:109BC000401C80B20228F5D33A707D6041F61D50EA
:109BD000DAE700EB800006F8205006EB80004068D2
:109BE00002F09EFF20E00D71A4F804800023012202
:109BF0001248216801F008F916E00D71206802F0A2
:109C00008FFF0D4923682831498801EB810206EB5B
:109C10008201D1F804C0C4F800C04B60A3880B8156
:109C2000A4F8048006F822500028ADD07D6048F2E8
:109C30000D60A9E7C0230020042F00205C24002031
:109C40000146034802888A4200D000207047000085
:109C5000582900202DE9FC5F0E008346DDE90C4702
:109C6000C6F1000098469246814600D40846012578
:109C700003E000BF90FBFAF06D1C5045FADAA845EE
:109C800000D9454624B1002E01DB780700D5641EBB
:109C9000B80702D5B8F1000F0AD0F80708D13CB1D7
:109CA000A54205D220215846641EFEF7ADF9F6E71D
:109CB000002E02DA4E462D2102E0780703D52B2133
:109CC0005846FEF7A1F907F0030002280BD1B8F1BE
:109CD000000F08D13CB1A54205D230215846641E80
:109CE000FEF792F9F6E7CDE9004743465246314682
:109CF000584606F017F8BDE8FC9F000070B50D4609
:109D0000044600684FF4887102F0E4F94FF4907152
:109D1000206802F0DFF94FF49271206802F0DAF95E
:109D20004FF4A271206802F0D5F94FF4AC712068AD
:109D300002F0D0F920681249C0F8041320686907BE
:109D400040F30730090E002804DB00F1E02080F822
:109D5000001405E000F00F0000F1E02080F8141D71
:109D6000206840F30730002809DB00F01F020121C2
:109D700091404009800000F1E020C0F8001170BD62
:109D800010034200024600201268530713D502F068
:109D90000300012802D002280CD105E0C2F3831091
:109DA0000B68801C184404E00223086803EB9252FD
:109DB00010440860012070470248007A002800D053
:109DC00001207047D82F0020F0B58488A518944250
:109DD00000D82246A41AC288D6189A4200D8134640
:109DE000D21A4B880788BB420CD34088834209D8DB
:109DF0008888A04206D3A84204D8C888904201D3DC
:109E0000B04201D90020F0BD0120F0BD0021425C2C
:109E10000AB101207047491C1029F8D3002070476F
:109E2000800701D000207047012070470A4810B514
:109E3000807860B1002401E0022C06D02046FDF7B6
:109E400051FE641C042CF7D310BD0324F6E7BDE8D3
:109E50001040FDF767BE000058220020034801793A
:109E6000C90702D00078FDF799BF7047582200203B
:109E70001721018041800021017141711B218171F5
:109E8000C17170472DE9FE4F2E4F984692460D0046
:109E9000814601D000260DE0684600F099FB6A4635
:109EA0000021484602F04EFF3878009E10B99DF818
:109EB000090098B152463146484605F067FB044612
:109EC000014600224846FFF759F80D2C37D008DC30
:109ED000A4B3082C33D00B2C09D130E00520BDE809
:109EE000FE8F112C1ED0A4F54050023827D02046FA
:109EF00002F0D0F80246144814494B46401AC008F4
:109F0000012101EB0040124901F095FC5FF00305CF
:109F1000B8F1000F04D0324621464846FEF7DEFC79
:109F20002846DCE72A46F9784846FDF77FFB52468B
:109F3000B9784846FDF77AFB0025E9E7FFE72546B3
:109F4000E6E700002023002024200300DC1F03009C
:109F50005C17030070B50E460C4915460446097897
:109F6000FDF74CFB00280FD0204602F091FE0028A0
:109F70002A463146204603D0BDE8704002F08EBE2E
:109F8000BDE87040FEF70ABC70BD00001823002039
:109F900070B5094D0646A978FDF730FB0446E9780F
:109FA0003046FDF72BFB014622463046BDE87040A7
:109FB0000123FFF767BF000020230020F0B585B024
:109FC0000546002714216846FCF76BFAA5F57F408B
:109FD000ADF80250FF3825D02846FFF719FB0400E2
:109FE00022D01B481B49401AC6080B2C22D0112C2A
:109FF0001ED0A4F5405002380ED0204602F04AF898
:10A000000246012000EB06402B46134901F013FCE9
:10A010002146284604F064FF10483A4681782846D5
:10A02000FDF704FB05B0F0BD0E208DF800000BE03D
:10A030000127F1E70F208DF80000022000EB064019
:10A040002A46074901F0F0FB6846FEF717FDE3E7F3
:10A05000DC1F0300DC1F0300D40A03007822002069
:10A06000280B03000A4602494978FDF7DFBA0000D1
:10A07000782200202DE9F041002786B080463E4638
:10A08000FFF70EFB040022D0112C22D01B481C49E4
:10A09000401AC508862C1ED0A4F5405002380ED0B8
:10A0A000204601F0F7FF0246012000EB0540434641
:10A0B00014A101F0C0FB2146404604F011FF3946CF
:10A0C0004046FFF7CFFF06B03046BDE8F0810126DD
:10A0D000F5E70127F3E714221A496846FCF7C8F9A7
:10A0E0000220ADF8028000EB0540424616A101F0C7
:10A0F0009BFB6846FEF7C2FCE1E70000DC1F0300A3
:10A10000DC1F03006773636D5F6C6F63616C5F647A
:10A11000625F63616368655F757064617465282957
:10A120002072657475726E656420257320666F7287
:10A1300020636F6E6E5F68616E646C653A202564A3
:10A1400000000000F4040300466C6173682066752B
:10A150006C6C2E20436F756C64206E6F742073746A
:10A160006F7265206461746120666F7220636F6E28
:10A170006E5F68616E646C653A20256400000000C3
:10A180002DE9FF410026244800F0FCFA2248001F78
:10A19000074600F0F7FA214C2149A06800900D68AD
:10A1A00000E000986946284004EB80000C30FFF77F
:10A1B000E9FD0028F5D101AA009901EA050304EBA5
:10A1C0008303491CDB6842F82030401C00910228C0
:10A1D000F2D3019800F0030001280BD0022810D11F
:10A1E0000198032101EB90500099BDF80A6001EB42
:10A1F000900005E00198BDF80A60C0F383100844A0
:10A200000090384600F0BBFA08B10098A06004B096
:10A210003046BDE8F0810000A835002090310020D4
:10A2200000240020ACB04FF48041002001F076FB08
:10A2300008B1FCF769FC01F0CBF9FCF783FC08B12D
:10A24000FCF762FC5F490320FDF75EFD08B1FCF7F7
:10A250005BFC69460020FDF789FC08B1FCF754FC63
:10A260009DF8000002287CD05FF0000501F060FC42
:10A2700008B1FCF749FC01F021FE08B1FCF744FCF1
:10A28000002469460120009401F0A8FC08B1FCF705
:10A290003BFC684601F022FD08B1FCF735FC9DF857
:10A2A000080049A120F00F00401C20F0F000103001
:10A2B0008DF80800062202A87CDF08B1FCF724FC18
:10A2C00000945020ADF80000A0200194ADF80200E9
:10A2D000ADF804404FF4C870ADF8060068467ADF68
:10A2E00008B1FCF711FC0021394800F0D7FA08B199
:10A2F000FCF70AFCAC216846FCF7D3F802208DF885
:10A30000000001208DF802000621ADF810008DF844
:10A310007C008DF803104FF496702E492290059121
:10A3200044F2506023902C482990294869462030F7
:10A33000FCF7D3FE08B1FCF7E7FB254801212030EC
:10A34000FCF7C8FE2548009021486946143000F00B
:10A350006AFB08B1FCF7D8FB1C216846FCF7A1F8A2
:10A3600000E02CE04FF4A030CDE900404FF4F020A5
:10A3700002901B48059003261A488DF80C60069041
:10A38000ADF80E408DF810406846FDF78DF808B125
:10A39000FCF7BAFB03F096F813481449401AC008BA
:10A3A00006EB004012A101F03BFA2846FCF7BEFA8A
:10A3B00001F01CF90028FBD101F0CEFBF8E70125E4
:10A3C00054E70000617C0200494F544C41420000B8
:10A3D0007024002052220020B1C802009DBB020060
:10A3E00005C90200BF82020084200300DC1F0300B5
:10A3F00054656D706C617465206578616D706C6515
:10A4000020737461727465642E00000070B5144688
:10A4100082880E4605462088111D0144921C9942EF
:10A4200001D8FE2A01D90C2070BD521C325420885C
:10A43000FF21401C80B2208031542088401C80B213
:10A4400020808119288805F058FC2188084480B2B2
:10A450002080AA8842B1A96841B13044FCF708F8CD
:10A460002088A98808442080002070BD072070BD86
:10A470002DE9F047C5881E1DB6FBF5F78946B6FBEA
:10A48000F5F1044605FB176C407916686843DDF862
:10A4900020A0F718001F874200D9C61A166001E0F5
:10A4A0002468491E0029FBD1A5EB0C078846B7425A
:10A4B00016D818E004EB0C00001D09EB0803BAF1F4
:10A4C000000F3A4602D00146184600E01946FBF755
:10A4D000CFFF2468F61B4FF0000CB844B54201D9F9
:10A4E000374600E02F46002EE4D1BDE8F08700009B
:10A4F00030B5024651B101F025FA0021074C08E0C1
:10A5000034F821301568AB4202D11160002030BD13
:10A51000491C8142F4D3052030BD0000000000003A
:10A52000BFF35F8F00F016B9F8B50F4601781446F7
:10A530000546012901D1687830B12088821C9A42F1
:10A5400032D8012902D006E00720F8BD697801441D
:10A55000891C994228D8181A801E86B2ADF800606E
:10A560002188B81C084469467DDF0028EDD1297890
:10A57000022904D06878BDF80020904205D3BDF8C8
:10A580000000B04201D809200AE00820012905D1C5
:10A590006978B14202D8ADF8001001E0ADF8006072
:10A5A000BDF80010FE2901D90C20F8BD2288491CF5
:10A5B000B9542188491C89B2218078542088401CD4
:10A5C0002080BDF80010084420800020F8BD000065
:10A5D000034A00219268C0E90021816070470000B1
:10A5E0002023002070B586B00D460646144614217F
:10A5F0006846FBF756FF8DF80050ADF80240204644
:10A60000FFF770FAADF80400142269463046FBF7F4
:10A610002FFF06B070BD70B54FF6FF750E46A8420D
:10A6200001D1002000E0401C84B208E02146304601
:10A6300000F090F808B1204670BD641CA4B2FF2C55
:10A64000F4D9284670BD10B5FBF731FE08B10020E3
:10A6500010BD112010BD10B531B1B2FBF3F403FBF6
:10A6600014241CB1092010BD0E2010BD0160002172
:10A67000416081608281C381084610BD70B50C467F
:10A680000546FBF7C9FD002802D021882868084448
:10A6900070BD10B50A8849888A4203D1FBF7FEFDD8
:10A6A000012010BD002010BD70B50C460546FBF71B
:10A6B000D8FD002802D061882868084470BD10B514
:10A6C0000A8849888A4203D1FBF7C2FD012010BDE8
:10A6D000002010BD01F01F0301229A40D243490916
:10A6E00000EB8100114600F059B80A4601F01F0343
:10A6F0000121994010B552090C4600EB820000F090
:10A700005DF8204000D0012010BD2DE9F0418046C9
:10A710000D460024481E012101EB501716E058F8A1
:10A720002400C04390FAA0F0B0FA80F020280CD2A8
:10A7300000EB4416AE4208D231464046FFF7D5FF43
:10A740000028ECD13046BDE8F081641CA742E6D871
:10A750002846F8E74A0950F8220001F01F020121BB
:10A760009140084000D00120704701F01F030122F2
:10A770009A40490900EB8100114600F029B80021F8
:10A7800000F017B8012100F023B8012100F016B83D
:10A7900008B56A46FBF7D7FD009808BD08B56A46BC
:10A7A000FBF7B7FD009808BD08B56A46FBF7CBFD7F
:10A7B00008BD08B56A46FBF7ACFD08BD08B56A469A
:10A7C000FBF79AFD08BD08B56A46FBF789FD08BD91
:10A7D00008B56A46FBF790FD009808BD08B56A46C3
:10A7E000FBF7BEFD009808BD38B5044600258DF87E
:10A7F00000506846FCF7F2F92168626808689042E8
:10A800000ED9401E08600178238AE26801FB032507
:10A81000227A2168101AC0B20A79824200D20871E5
:10A820009DF80000FCF7FEF9284638BD38B505460E
:10A8300000208DF800000C466846FCF7CFF9E86868
:10A84000298A201AB0FBF1F12A681068431C1360B2
:10A8500001709DF80000FCF7E5F938BD10B530B186
:10A86000017A42680368891AC9B21A6006E00E20AC
:10A8700010BD03681A68541C1C601170491EC9B2CF
:10A88000F7D2006800210171084610BDC20800F02F
:10A8900007030120895C98400840704710B560B1FB
:10A8A0000161172120F8021B20F8021B1B2100F870
:10A8B000021BFFF7DDFA002010BD0E2010BD0000C6
:10A8C000F0B5858893B00C46002D39D1018800265B
:10A8D0003F4F24293BD006DC102909D011290CD088
:10A8E000232958D14FE03A290BD0552953D129E0DB
:10A8F0000146204602F014F84DE0A01DFFF7B8FA1B
:10A9000049E02246408934F8061F814200D80846B3
:10A910006080172800D217206080106970B16079BC
:10A9200060B1D7E90001CDE90301ADF80E506088B0
:10A93000ADF81000136903A9104698476671267197
:10A9400013B0F0BD0146204602F03EF823E0011DA1
:10A950002C2206A8FBF78CFDBDF81800BDF81C20C2
:10A9600004EBC0014A732269AAB1D7E90423CDE9F7
:10A970000423ADF81200487B8DF8140022692046AC
:10A9800004A9904707E0017A207B884200D2014663
:10A990002846FDF7DFFCA07A0028D1D0E1882846C0
:10A9A000A5DF012580B11128CAD001F073FB024652
:10A9B0000848094913B0401AC00805EB0040BDE83B
:10A9C000F04006A100F030BFA672E572B8E70000C3
:10A9D00050050300F41F0300DC1F030073645F6273
:10A9E0006C655F67617474635F65786368616E67E7
:10A9F000655F6D74755F7265717565737428292064
:10AA000072657475726E65642025732E00000000F7
:10AA100020B10278DE2A03D0082070470E2070474C
:10AA200041800020704760B159B10278DE2A0AD017
:10AA300009684160DE2101704FF6FF7141800020FE
:10AA400070470E207047082070477FB505460029E3
:10AA50004DD0002D4BD008780C46DE2847D1A88871
:10AA60006188884202D1204605F014FA288801281E
:10AA700025D002283BD011283AD0512837D135F8BB
:10AA8000040F6188884232D1A978A81C02292ED1EE
:10AA9000017A042903D0062901D0052927D10021F4
:10AAA000009102228DF8002001914FF4C0720291B2
:10AAB0000391ADF80420007A05280FD010E0297A20
:10AAC0002046012913D1A988428891420FD1012142
:10AAD000017204B0BDE8704005F0DCB9ADF80410B7
:10AAE00028886946B0DF002801D0616888477FBDAB
:10AAF000A88861888842FAD14FF6FF7060807FBDD8
:10AB000000F180400068002800D00120704708B59F
:10AB100000F18040002101600068009008BD000045
:10AB200070B50D4C0125207808B185260EE0002077
:10AB3000A06060602061E060084801F0EFFA06461E
:10AB400001F008FA08B901F0D3FA257001F0C8FA4B
:10AB500000B1A570304670BDE82C0020C581020010
:10AB600038B500258DF800506846FCF737F8084CDA
:10AB7000E068401EE060E06828B901F0B1FA10B961
:10AB800001F0DCFAA5709DF80000FCF74BF838BD29
:10AB9000E82C0020F0B505460478154889B0164623
:10ABA00040F82420124A0869121DA2F1080742F851
:10ABB0002400487F385520226846FBF759FC04944E
:10ABC0002878385C48B10EB10A4A00E00022694694
:10ABD000281D01F043FD09B0F0BD0EB1064A00E0AA
:10ABE0000022694605F10C0001F002FCF3E70000C9
:10ABF0003C230020B9FB020001FA02000FB408B5A3
:10AC00000399002904D004AA00926A4600F00FF8C4
:10AC100001B05DF814FB10B582680446002A05D027
:10AC2000D4E90403216898470020A06010BD2DE9F5
:10AC3000FC4791460C00804676D014F8011B39B1D0
:10AC400025290ED04046FDF7DFF920780028F4D101
:10AC500098F80C00002867D04046BDE8FC47FFF795
:10AC6000DABF0020012221782B291BD02D2902D008
:10AC7000302908D102E040F0010001E040F002007C
:10AC8000641C002AEFD100252A290ED02178A1F1D9
:10AC900030020A2A11D205EB850201EB4205641C41
:10ACA000303DF1E740F00400EAE7D9F800100B1D51
:10ACB000C9F800300968641C0D44217800232E294E
:10ACC0000BD114F8011FA1F130020A2A05D203EBBF
:10ACD000830201EB4203303BF3E76C290DD0682976
:10ACE0000BD0692921D00BDC252918D0582931D067
:10ACF00063290ED0642915D117E014F8011FECE781
:10AD0000702969D0732932D075291BD0782909D1CF
:10AD100020E0D9F80000011DC9F800100178404674
:10AD2000FDF772F9641C90E76CE0D9F800100A1D79
:10AD3000C9F800200968CDE900500A224046FEF714
:10AD400089FFEFE7D9F800100A1DC9F8002009684B
:10AD50000A2206E0D9F800100A1DC9F80020096887
:10AD60001022CDE90050404604F0DCFFDAE7D9F8C4
:10AD7000001000270A1DC9F800200E68C00705D181
:10AD800012E04046761C7F1CFDF73EF93178002921
:10AD9000F7D104E0202140466D1EFDF735F9BD4294
:10ADA000C0D9002DF6D1BDE74EB13046FBF784FB8C
:10ADB000074604E0202140466D1EFDF725F9BD42FF
:10ADC00006D9002DF6D103E04046761CFDF71CF9AC
:10ADD00031780029F8D1A5E7D9F80000011DC9F89C
:10ADE0000010056830214046FDF70EF978214046F5
:10ADF000FDF70AF908200021CDE9000103461022E1
:10AE00002946B0E7BDE8FC872DE9F84388460500F0
:10AE10002C482D499946A0EB01004FEAD0004FF095
:10AE20000101164601EB004424D0286800282CD0EC
:10AE3000002E34D0696840464FF010070A68511E52
:10AE400011EA080F11D1014672432846FBF73FFD76
:10AE500000282ED028684B463246046901B041468E
:10AE60002846A446BDE8F04360472046174B18A289
:10AE7000009722E00E2000902046144B1EA220A135
:10AE800000F0E1FC0E20BDE8F88308200090204689
:10AE90000E4B26A21AA100F0D6FC0820F3E70920E9
:10AEA00000902046094B24A215A100F0CCFC0920FB
:10AEB000E9E7064B214A2046009711A100F0C3FCA8
:10AEC0001020E0E76C200300DC1F0300FB060300FA
:10AED000616464725F69735F706167655F616C690B
:10AEE000676E656428705F66732C20706167655FAC
:10AEF0006164647229000000705F667300000000E6
:10AF0000257320636865636B206661696C656420E6
:10AF1000696E202573282920776974682076616C12
:10AF2000756520307825782E00000000705F66730C
:10AF30002D3E705F617069006C656E002018030023
:10AF400038B503001148124D4FF00E04A0EB050078
:10AF50004FEAD0004FF0010505EB004009D061B188
:10AF600019600C6801B0A446BDE83040114618468F
:10AF70006047084B08A2009402E0064B08A2009428
:10AF800009A100F060FC0E2038BD00006C20030019
:10AF9000DC1F0300B0060300705F66730000000052
:10AFA000705F617069000000257320636865636BE2
:10AFB000206661696C656420696E202573282920EC
:10AFC000776974682076616C756520307825782EF5
:10AFD00000000000044801214174007A08B10020FB
:10AFE0007047012070470000D82F0020012801D0B1
:10AFF000032808D10449002201284A7400D0002007
:10B00000087403F077BA7047D82F002070B5024655
:10B01000022801D0032A45D1234C207A002841D0B0
:10B02000012833D0022831D120480023022A0068A9
:10B0300002D0032A2AD11BE0E360017911B1012972
:10B0400024D10DE0D0E90565711B4FF48056B14263
:10B0500000D33146294481614569A9420ED015E0EB
:10B060000169491C0161426991420FD1237213E0C9
:10B07000E168491CE160082908D9E3602372022ACB
:10B080000AD00D21FDF700FC03F0D8F9607C28B14F
:10B09000BDE8704000F064BF0021F3E7BDE87040F8
:10B0A00003F028BA70BD0000D82F0020D023002064
:10B0B0002DE9F84F90468A463A493B4A0500A1EBF4
:10B0C00002014FEAD1014FF00102DDF828901E463F
:10B0D0004FF00E0002EB01441AD0B8F1000F1CD063
:10B0E0002868002822D00920002E29D069684968E4
:10B0F000B6FBF1F201FB1261002926D000902B4B28
:10B1000020462BA235A100F09EFB0920BDE8F88F58
:10B1100000902046254B3CA203E00090234B2046A4
:10B120003BA22EA100F08FFB0E20EFE7082000903D
:10B1300020461E4B38A229A100F085FB0820E5E738
:10B1400000902046194B37A2DCE75046FBF7B9FBCD
:10B15000102798B14046FBF7B4FBA0B132465146E8
:10B160002846FBF7B4FB98B1CDF800902868334629
:10B170004246C46851462846A047C7E720460B4BC5
:10B1800029A2009708E02046084B2DA2009703E073
:10B19000064B204633A2009710A100F054FB10206C
:10B1A000B4E700006C200300DC1F0300E806030086
:10B1B00021286C656E202520705F66732D3E705FC0
:10B1C000666C6173685F696E666F2D3E70726F6743
:10B1D00072616D5F756E69742900000025732063CC
:10B1E0006865636B206661696C656420696E202503
:10B1F00073282920776974682076616C7565203022
:10B200007825782E00000000705F66730000000053
:10B21000705F737263000000705F66732D3E705F35
:10B22000617069006C656E00616464725F69735F70
:10B23000616C69676E6564333228646573742900D4
:10B24000616464725F69735F616C69676E656433C2
:10B2500032282875696E7433325F7429705F737297
:10B2600063290000616464725F69735F7769746861
:10B27000696E5F626F756E647328705F66732C20F1
:10B28000646573742C206C656E29000070B541EA0A
:10B290004201DDE904564FF0A04441EA830141EA4E
:10B2A000052104EB800041EA0641C0F8001770BD9B
:10B2B00070B541EA4201DDE904564FF0A04441EA8D
:10B2C000830141EA052104EB800041EA0641C0F810
:10B2D000001770BD70B541EA4201DDE904564FF038
:10B2E000A04441EA830141EA052104EB800041EAE0
:10B2F0000641C0F8001770BD70B541EA4201DDE9B2
:10B3000004564FF0A04441EA830141EA052104EBD1
:10B31000800041EA0641C0F8001770BD1CB500214D
:10B3200000910B4601220191FFF7D4FF1CBD1CB513
:10B33000002100910B4601220191FFF7DDFF1CBDAA
:10B340001CB500220B46009211460192FFF7C2FF86
:10B350001CBD1CB500220B46009211460192FFF75E
:10B36000CBFF1CBD1CB5002100910B4601220191B1
:10B370001146FFF7AFFF1CBD1CB5002100910B4625
:10B38000012201911146FFF7B7FF1CBD4FF0A0420B
:10B3900002EB8000D0F8002722F44032C0F80027EA
:10B3A000D0F8002742EA0141C0F8001770470000BA
:10B3B00038B5094B44181B6800936B4608E000BF82
:10B3C00053F82010D1F8205520C2C1F82055401C58
:10B3D0008442F5D838BD00005006030042094FF002
:10B3E000000100D1491E00F01F00012282400A42E4
:10B3F00001D0012070470020704701224FF0A04388
:10B40000824011B1C3F808257047C3F80C25704776
:10B41000034908B50844002101600068009008BD98
:10B420000060004002494058012800D000207047C9
:10B430000060004030B5154A01460020D2F81044A3
:10B4400023460AE0DB681D79854205D1401C0A28A5
:10B45000F6DB4FF0FF3030BD1B68002BF2D1431CF0
:10B46000F9D0CB681871D2F8103443B1DB68CC68DE
:10B470001B682360D2F81024D268116030BDC2F876
:10B480001014C96800220A6030BD0000903100200D
:10B49000F0B595B01C4615460E4608461A9F00F0BA
:10B4A00021FB182109A8FAF7FCFF0E97CDE90954F2
:10B4B0000023082203A9304600F029FB05980690D6
:10B4C000BDF81000ADF81C00BDF81200ADF81E006C
:10B4D00000208DF821000399082501F003000128C0
:10B4E00002D0022816D02FE0C1F3C200C1F38317A7
:10B4F0008C0A8DF82000BA002B460FA9304600F0C8
:10B5000006FB09A8009006AB3A460FA9204600F0BA
:10B5100045FA19E0C1F3C2008C0D8DF82000082C0B
:10B5200001D2274600E008272B463A460FA93046AD
:10B5300000F0EDFA3D44E41B09AB06AA39460FA81A
:10B5400000F094F9002CEAD1304600F0D1FA15B0A1
:10B55000F0BD7047012004F071BA0000084810B532
:10B560000178084A515C19B1001D01F011F902E09F
:10B570000C3001F00BF8BDE81040002004F05EBA7A
:10B58000E42300203823002008B5034A009240231A
:10B59000024AFFF77DFF08BD31EF0200F82F0020BF
:10B5A0000A4A012902EBC00007D0022907D003296B
:10B5B00007D0042907D000207047022070470420DC
:10B5C000704700797047407970470000DC1F030026
:10B5D00010B5FFF7BFFF04210348FFF72BFF024917
:10B5E0000120C968487110BDCC1F03002DE9F04F40
:10B5F0008DB0FCF721FD18B100200DB0BDE8F08F33
:10B600007D4C4FF0000BC4F818B4BFF34F8F7B494B
:10B61000A06802900D68D846284004EB80000BE03B
:10B62000D4F8180470B961680298814201D8A16009
:10B63000E2E7284004EB80000C3002A9FEF7A2FBF1
:10B640000028EDD1002009AA029901EA050304EBC4
:10B650008303491CDB6842F82030401C0291022819
:10B66000F2D3099800F00301022902D001294DD03C
:10B67000A8E0810D50228946B2EB905F00D850219E
:10B680000E4666F39F50099008315D4800F0E1F9DD
:10B69000070077D000F026FA4346082209A9384669
:10B6A00000F03DFA029908F1080A2940681A800062
:10B6B000001D864223D9504D0C3530B1C2B204EB87
:10B6C0008101301A90460C3104E02946F2B200257F
:10B6D00090462846C6B25346384600F020FA0AEB98
:10B6E00008032DB1324629464FEA070000F017FA49
:10B6F000029909F1030001EB9000029039E004EB9C
:10B7000081015346324638460C31EFE7C0F38311CE
:10B71000062900D3062161F389100990C0F3831034
:10B72000801C8100364800F094F907004AD000F0F0
:10B73000D9F94346082209A9384600F0F0F908F182
:10B74000080800260FE00298434600EA0501401C65
:10B7500004EB81010290042238460C3100F0DFF93D
:10B7600008F10408761C0998C0F38310B042EAD8A7
:10B7700047B1D4F81054D4F8180478B1384600F022
:10B78000B7F934E01EE0E8684079012804D12A685E
:10B790002846394612689047E8680568002DF2D1BE
:10B7A000384600F0A5F98DF800B06846FBF716FAA8
:10B7B000D4F8180408B90298A0609DF80000FBF7BF
:10B7C00031FA14E0D4F8104405E021682046896875
:10B7D0008847E0680468002CF7D10A480A49401AF3
:10B7E000C008022101EB004008A100F019F8FCF7A5
:10B7F00023FC80F0010000E79031002000240020AD
:10B80000A420030084200300DC1F03004261636B5B
:10B81000656E647320666C75736865640000000073
:10B8200000231A4603F0B2BF08B5012300926A460E
:10B8300003F0ACFF08BD1CB5CDE9002302236A4626
:10B8400003F0A4FF1CBD3EB5069C8DE81C0003233D
:10B850006A4603F09BFF3EBD7FB5DDE908458DE8F4
:10B860003C0004236A4603F091FF7FBD2DE9F047B9
:10B870000E4680461C469246082940D894F80C9003
:10B88000002020731946104602F06AFD0025B542DB
:10B8900006D218F805201BA12046FFF7AFF903E0F8
:10B8A0001AA12046FFF7AAF96D1C082DEFD318A1A5
:10B8B0002046FFF7A3F90025B54212D218F805700B
:10B8C0007E2F08D8FAF7D0FD0068C05D10F03E0F5B
:10B8D00001D03A4600E02E220EA12046FFF78EF955
:10B8E00003E00DA12046FFF789F96D1C082DE3D375
:10B8F00001222146504602F015FD84F80C90BDE867
:10B90000F087000020253032780000002020200041
:10B910007C0000002563000020000000064910B5EF
:10B9200000200870054800F0E1F8002803D1044821
:10B9300000F036F9002010BD90310020A420030053
:10B94000CC08030002480349401AC00870470000B1
:10B95000A4200300DC1F030013B56846FEF7C8FDF2
:10B9600008B100201CBD0248009950F831001CBDF0
:10B97000DC1F030070B508480125D0F8104405709D
:10B9800007E0E06845712168204649688847E0681B
:10B990000468002CF5D170BD903100202DE9FF47DF
:10B9A00081460C9D00200C462F7B28739846164636
:10B9B0002946184602F0D4FC072E42D2DFE806F0F2
:10B9C00004090F161F2A360049462846FFF716F9C4
:10B9D00037E0494628462268FFF710F931E0D4E9FC
:10B9E000002349462846FFF709F92AE0A06800909D
:10B9F000D4E9002349462846FFF700F921E0D4E9BD
:10BA00000201CDE90001D4E9002349462846FFF7A9
:10BA1000F5F816E004F1080007C88DE80700D4E93E
:10BA2000002349462846FFF7E9F80AE004F1080038
:10BA30000FC88DE80F00D4E9002349462846FFF7D8
:10BA4000DDF800222946404602F06CFC2F73BDE869
:10BA5000FF872DE9F041058A80462D1F4819C01C3B
:10BA6000B0FBF5F0C6B24046FEF7BEFE041E19D08C
:10BA70000020207101206071E58000272546761E98
:10BA8000C4F800800BE04046FEF7AEFE60B161797D
:10BA9000491C6171286005467F1CC0F80080B742D0
:10BAA000F1D32046BDE8F081204600F002F80020E6
:10BAB000F8E72DE9F041457901466B1E002201E0CF
:10BAC0000968521C9A42FBD30F680146002605E024
:10BAD00038460C68FEF7AAFE2146761CAE42F7D324
