:020000040002F8
:10600000A8410020C5630200CD630200CF630200F7
:10601000D1630200D3630200D563020000000000D8
:10602000000000000000000000000000D763020034
:10603000D963020000000000DB630200DD630200A0
:10604000B1650200DF630200A1660200DF630200A7
:10605000DF630200DF6302000D650200DF63020000
:10606000DF630200DF630200DF630200DF63020020
:10607000DF630200DF630200DF630200DF63020010
:10608000DF63020009660200DF630200DF630200D3
:10609000DF630200DF63020019660200DF630200B3
:1060A000DF630200DF630200DF630200DF630200E0
:1060B000DF630200DF630200000000000000000058
:1060C000DF630200DF630200DF630200DF630200C0
:1060D000DF630200DF630200DF63020000000000F4
:1060E00000000000000000000000000000000000B0
:1060F00000000000000000000000000000000000A0
:10610000000000000000000000000000000000008F
:10611000000000000000000000000000000000007F
:10612000000000000000000000000000000000006F
:10613000000000000000000000000000000000005F
:10614000000000000000000000000000000000004F
:10615000000000000000000000000000000000003F
:10616000000000000000000000000000000000002F
:10617000000000000000000000000000000000001F
:10618000000000000000000000000000000000000F
:1061900000000000000000000000000000000000FF
:1061A00000000000000000000000000000000000EF
:1061B00000000000000000000000000000000000DF
:1061C00000000000000000000000000000000000CF
:1061D00000000000000000000000000000000000BF
:1061E00000000000000000000000000000000000AF
:1061F000000000000000000000000000000000009F
:10620000DFF810D000F070F9004800472D7A020046
:10621000AFF30080A841002030B450E8012F93B2C2
:10622000C48923448489A34228BF1B1B0489A34239
:1062300002BFBFF32F8F002007E0C3EA020340E84C
:106240000134002CE9D14FF001000A6030BC7047E6
:1062500050E8012FC2EA024240E801210029F7D1AB
:10626000704730B450E8022F1FFAA2F3C488A3424B
:1062700002BFBFF32F8F00200DE0C489234484891F
:10628000A34228BF1B1BC2EA034340E80234002C90
:10629000E8D14FF001000A6030BC704750E8022F8F
:1062A000C2EA224240E802210029F7D170470346A2
:1062B00053E8022FD988B2EB324F4FF0000017BFDE
:1062C00092B241EA014142EA014104E05A68B2EB6C
:1062D000324F08BF012043E80212002AE8D170477C
:1062E00030B4044654E8000F0D4644E80053002B38
:1062F000F8D1156030BC704730B4044654E8000F44
:1063000040EA010544E80053002BF7D1156030BC8A
:10631000704730B4044654E8000F00EA010544E831
:106320000053002BF7D1156030BC704730B40446E1
:1063300054E8000F80EA010544E80053002BF7D130
:10634000156030BC704730B4044654E8000F00EBD1
:10635000010544E80053002BF7D1156030BC7047AD
:1063600030B4044654E8000FA0EB010544E80053A4
:10637000002BF7D1156030BC704770B404464FF065
:10638000000054E8006F0D68AE4207BF44E80023E8
:10639000012044E800630E60002B1CBF0020F0E7E2
:1063A00070BC704730B4044654E8000F88422CBFDC
:1063B000451A054644E80053002BF5D1156030BC62
:1063C000704700000648804706480047FEE7FEE7A2
:1063D000FEE7FEE7FEE7FEE7FEE7FEE7FEE7FEE795
:1063E0001D660200016202002DE9F05F05460020F3
:1063F00092469B4688460646814640241BE0284636
:1064000041464746224600F05EF853465A46C01AB7
:10641000914110D311461846224600F016F82D1A65
:1064200067EB01084F4622460120002100F00DF8DD
:1064300017EB00094E41201EA4F10104DFDC4846A1
:1064400031462A464346BDE8F09F202A04DB203A25
:1064500000FA02F1002070479140C2F1200320FAB7
:1064600003F31943904070470048704758A6020054
:1064700040EA01039B0703D009E008C9121F08C0C6
:10648000042AFAD203E011F8013B00F8013B521E46
:10649000F9D27047D2B201E000F8012B491EFBD2BD
:1064A00070470022F6E710B513460A46044619461F
:1064B000FFF7F0FF204610BD421C10F8011B002919
:1064C000FBD1801A7047202A04DB203A21FA02F01F
:1064D0000021704721FA02F3D040C2F1200291401E
:1064E0000843194670470000064C074D06E0E06877
:1064F00040F0010394E8070098471034AC42F6D30B
:10650000FFF782FECCAC0200ECAC02002DE9F843B0
:106510000025DFF894804FF4807601242F46009503
:10652000304601F0CDFE38B1D8F80403204203D044
:10653000304601F0BBFE2543361D64007F1CB6B219
:10654000082FEDD34FF4BE74204601F0B9FE48B1D8
:10655000204601F0ABFE45F000456A4601210020CF
:1065600001F074FE15F0FF0F16D0012600242E4214
:106570000ED008EB8401D1F81005D1F81015C0F346
:1065800004200A4AC1F3014152F8242002B1904785
:106590007600641C082CEAD3002D02DA684603F06A
:1065A000ADF8BDE8F883000000600040941A0020B8
:1065B00070B54FF48076304601F032FC114CB505D1
:1065C00060B1304601F033FC0120C5F80803607962
:1065D00020B9012060712168002088474FF482763D
:1065E000304601F01DFC00280AD0304601F01FFCA7
:1065F0000220C5F808032168BDE870400120084763
:1066000070BD0000F818002002490248091F0968FF
:10661000006808474819002002F098BB1B4800B5E5
:10662000016841F470010160BFF34F8FBFF36F8FBA
:106630004FF01022D2F80002002803DBD2F8040247
:1066400000281FDA012003F027F81521C2F80012F4
:106650000F480368002BFCD0C2F80412016800291F
:10666000FCD0002003F018F8BFF34F8F07487C38A8
:106670000168084A01F4E06111430160BFF34F8FE4
:1066800000BFFDE705490448086000BD88ED00E053
:1066900000E401400400FA050090D003D019002066
:1066A00001480068004700000019002002E008C807
:1066B000121F08C1002AFAD170477047002001E07C
:1066C00001C1121F002AFBD17047000001212028C0
:1066D00003DA81400548014003E0402802DA20380F
:1066E000814009B10120704700207047FC06FFBDC2
:1066F00030B595B059201BA1ADF83C00D1E900019F
:10670000CDE9120112A811900A20ADF8400004252D
:106710003C216846FFF7C5FE00240FA88DF8004015
:1067200009908DF8035018211048FFF7BAFE0F4862
:1067300005210F4A017044600475A02181608481A5
:1067400002CA684600F0DEF908B100F0ABF808496B
:10675000064A081F72DF002801D000F0A3F815B028
:1067600030BD00000102030405000000D419002020
:10677000CC180020022000F0E1BA000070B500241F
:10678000064D06E06868012110F8340002F0F6FBBF
:10679000641C28788442F5D3002070BD08190020BD
:1067A000F8B516460C4605460A2A01D20720F8BD60
:1067B00002F0DEFC18B902F0A1FC0028F7D1134F5B
:1067C000102113487D603C70BE60FFF76AFE002018
:1067D000C7E904000F4E0DE005EBC40031680091DD
:1067E00081788DF8011000780B4A694602F016FC9A
:1067F0000028DCD1641EE4B2EED2BDE8F8400548C2
:106800000021064A001D00F05FB8000008190020B2
:10681000601B002058A30200A57702009D730200B0
:1068200010B572B601F0E2FF01F02EFE0028FBD198
:1068300011481249401AC408012000EB044010A17D
:1068400001F03CFF11480068C00700D000BE0220E4
:1068500000EB04400EA101F031FFBFF34F8F0B4856
:10686000E43801680E4A01F4E06111430160BFF3AE
:106870004F8F00BFFDE700004CAD0200FCAC0200F2
:10688000466174616C206572726F7200F0ED00E019
:1068900053797374656D2072657365740000000030
:1068A0000400FA050EB500210091CDE901106A46F9
:1068B00044F20100FFF7B4FF0EBD0000014800F0F4
:1068C000D4BD0000281900203AB1006801294261B6
:1068D00000D00021016100207047072070470000B0
:1068E00038B5114808235822416800910F490068C3
:1068F00001F0DBF9002815D10D4A69460D4800F07A
:10690000B9FD04000ED101210A4800F02EFE01233A
:10691000094A1946074800F080FD06490120083958
:106920000870204638BD000060A30200801B0020D4
:10693000AD98020028190020FFFF7F0070B50446C3
:10694000007F0D4608B1002070BDA26100F010FF6D
:10695000401941F10001C4E90201206900B125613B
:106960002146BDE87040002003F030BA0146002007
:106970000877012003F02ABA30B5EFF3108172B620
:106980000D4A9468012324B10370002900D162B636
:1069900030BD93604FF0E023D3F88051074C254081
:1069A0001560C3F88041D3F8844154605A17C3F886
:1069B000842100220270E8E7D81B0020FC06FFBDFE
:1069C0000B498A68002A11D000280FD1EFF31080FC
:1069D00072B60B684FF0E022C2F800314B68C2F883
:1069E000043100228A60002800D162B6704700009E
:1069F000D81B00202DE9F041064608680C46411CD2
:106A00004FF0A0474FF0010506D005FA00F1C7F896
:106A10000815206801F0F4FB6068411C02D00021D9
:106A200001F0DCFB3168A069C1F82405607D227D9E
:106A300031681043C1F86C05D4E900123068C0F821
:106A40001425C0F80C15207D012815D1A068411C23
:106A500002D0002101F0C2FBE068411C05D0854056
:106A6000C7F80855E06801F0CBFBD4E902123068A2
:106A7000C0F80825C0F81015BDE8F0812DE9F041F7
:106A8000064608680C46411C4FF0A0474FF0010530
:106A900006D005FA00F1C7F80815206801F0BAFB26
:106AA0006068411C02D0002101F0A1FB3168A0699F
:106AB000C1F82405607D217D32680843C2F86C0569
:106AC000D4E900123068C0F80C15C0F81425207DF8
:106AD000012815D1A068411C02D0002101F087FBDC
:106AE000E068411C05D08540C7F80855E06801F012
:106AF00091FBD4E902123068C0F80825C0F81015DF
:106B0000BDE8F0812DE9FC47002517880646158071
:106B100090F82D001446894630B13A462146484641
:106B200000F0B1F8051E09D1B0784FF00C0A18B387
:106B30002088C846001DB84202D95046BDE8FC87EF
:106B4000684679DF0028F9D12088032108F8001071
:106B500020881921401C80B2208008F8001020886D
:106B6000401C80B2208000EB0801BDF8000003F05B
:106B7000FCFA218808442080F0780222C8B12188DC
:106B800096F9033001F1030C4846BC45D5D8425470
:106B900021884FF0010C491C89B2218000F801C006
:106BA0002188491C89B2218009F801302088401CC5
:106BB00020807068B8B1218890F9003001F1030C91
:106BC0004846BC45B9D8425421880A22491C89B29A
:106BD000218042542188491C89B2218009F8013062
:106BE0002088401C2080308950B1CDE900474B46B9
:106BF0000622022106F1080003F026FB051E9DD1A6
:106C0000308A50B1CDE900474B460722032106F1F7
:106C1000100003F019FB051E90D1308B50B1CDE967
:106C200000474B461522142106F1180003F00CFB17
:106C3000051E83D1306A30B13B462246494600F0FA
:106C400069FB051EDBD1706A30B13B4622464946DE
:106C500000F04EFF051ED2D196F82C0038B13B460D
:106C600022464946304602F065FF051EC7D13078FE
:106C700038B13B4622464946304600F0C3FF051E68
:106C8000BDD128465AE77CB5054608880C46093030
:106C9000904201D90C207CBD68466DDF0028FAD1F6
:106CA00021880820685420881B21401C80B2208045
:106CB00029542088401C80B220802844DDF801102F
:106CC0000160BDF8051081802088801D80B2208081
:106CD0009DF80010490800D0012129542088401C4B
:106CE000208000207CBD00002DE9FC410646C00745
:106CF0004FF000050ED0104F00240122385D0095A2
:106D000000231146019501F00FFA641C042CF4D302
:106D100000F046F8B0070DD5074E0024361D0022BE
:106D2000305D032300951146019501F0FDF9641CC7
:106D3000042CF4D3BDE8FC8116A3020007490B5CC8
:106D40004FF0A041D1F804250120984020EA020329
:106D5000C1F808351040C1F80C05704716A30200B1
:106D60000249085C012101F096BA000016A3020056
:106D70000249085C002101F08EBA000016A302004F
:106D80000649095C4FF0A040D0F80405C84010F057
:106D9000010000D0012080F00100704716A302001E
:106DA00010B500242046FFF7DBFF641C042CF9D348
:106DB00010BD10B500242046FFF7DAFF641C042C38
:106DC000F9D310BD10B50246064B4FF0FF3000213D
:106DD0005C5C944201D1084610BD491C0429F7D3DC
:106DE00010BD00001AA302002DE9F0470D468146B0
:106DF000FFF7E8FF0446042836D2DFF874801B480A
:106E00001C4EA8F10C0725B3012D0ED0022D2BD15D
:106E100004EB440030444578002D25D0B9680029A2
:106E200022D02846BDE8F047084704EB4401755CD2
:106E30000E44717849B10E4A4FF4A031093A806886
:106E4000FFF77CFD08B987F80390B17808F80410C3
:106E5000E2E78068FFF78AFD04EB4401314418F84B
:106E600004008D78A842D7D0BDE8F08720A30200A7
:106E7000E8180020501A002070B50023042810D212
:106E80000D4D00EB4004012A02D101290CD0002253
:106E9000094E00EB4000304461B1012906D00229BF
:106EA00006D00723184670BD0E30C2B22A55F9E746
:106EB0004270F7E78270F5E7501A0020044A014655
:106EC00000201279D20702D0084600F04DB8704772
:106ED000DC18002070B506461E480024C0E9016198
:106EE000B00720D50025012211462846FFF7C4FF30
:106EF0006D1C0446042D02D2002CF4D013E094B98A
:106F000040F2333204211448FFF74AFC04000AD14E
:106F1000FFF734FC040006D10F48104A0021001F7F
:106F2000FFF7D2FC0446F00712D00120FFF7DCFE89
:106F300074B909480A4A00210C38FFF7C5FC04005F
:106F400006D10548074A01210838FFF7BDFC044671
:106F5000204670BDDC1800202CA302003D72020008
:106F600075790200756702002DE9F05F704C0546E7
:106F700000266078B34618B184F801B000F0E2FC56
:106F80006C4F4FF47A694FF4C87A4FF00108182D0E
:106F900069D2DFE805F00C1313384754696E727F2D
:106FA000767FC98888888888B7BABDC0C9C900F00B
:106FB000C9FC3868FFF7DAFC06465CE00020FFF702
:106FC000DFFE00284FF0000008D0FFF7C9FE022DB9
:106FD00002D14FF4E16008E0484606E0FFF7C8FE42
:106FE000022D01D1C82000E05046410CC0034FF4EF
:106FF0007A72801841F10001257052000023FFF7DA
:10700000F3F901462AE00020FFF7BAFE00284FF00E
:10701000000004D0FFF7A4FE4FF44870E5E7FFF747
:10702000A7FEDFE70020FFF7ABFE00284FF00000CF
:1070300002D0FFF795FECFE7FFF79AFED4E70020D6
:10704000FFF79EFE00284FF0000002D0FFF788FEF9
:1070500001E0FFF78DFE257040F6CD410022386833
:10706000FFF76CFC06464AE00020FFF767FE25703C
:107070000CE0002055E0257041E084F801800020FC
:1070800002E084F801800220FFF758FE002240F25F
:107090006661E4E784F801800120FFF74FFE0022DB
:1070A0004FF40051DBE77868FFF760FC0646D5F146
:1070B000110000D02EB10220FFF752FE84F802B07A
:1070C0001DE0012816D980B2C8214843C117C90361
:1070D00041EA5041C0034FF47A72801841F1000137
:1070E00052000023FFF780F9014600227868FFF77D
:1070F00025FC06460220FFF73BFE84F8028030465E
:10710000BDE8F09F00F01EFCB5E700F01BFCB0E707
:1071100000F018FC04E000F015FC0020FFF728FE4A
:107120000120FFF725FEA6E7FFF743FEA3E70000D7
:10713000DC18002020A302002DE9F84F0546861C2C
:1071400000208DF8000091460F464FF0010A684676
:10715000FFF712FC1B4C04F21C4860683860D4E94D
:107160000101194F401A3968081A0EE00121404602
:1071700000F0E0FD00F008FC0146404600F0DAFDBA
:10718000D4E90101401A3968081A401C8642EDD83A
:10719000B9F1000F03D0052065F3891002E0062045
:1071A00065F39F5061683A68114004EB8101C86043
:1071B0006068304460609DF80000FFF701FC5046B5
:1071C000BDE8F88F881D00207819002070B50D46A5
:1071D00004460A2902D10D21FFF7F8FFA0682268B2
:1071E000411CA1601554D4E90101814204D3204619
:1071F000BDE8704000F09FBE70BD0000044881688B
:107200004068814201D10120704700207047000092
:10721000881D0020034630B50748002104784268E5
:1072200006E000BF02EBC10005789D4203D0491C77
:10723000A142F7DB002030BD0819002000780221B0
:10724000FFF7D2BD05494FF0FF32082841F8202052
:1072500002D3084480F8482070470000941A0020A8
:10726000F0B54FF0FF3512B10023082601E00823E6
:107270000C260C4C05E000BF54F823707F1C04D092
:107280005B1CB342F8D32846F0BD26185DB286F8E1
:10729000305044F82310002AF5D1E11881F8480055
:1072A000F1E70000941A00200249084490F93000E8
:1072B00070470000941A002070B5084C050009D0F2
:1072C00010342168002907D00868206049682846E2
:1072D0008847F6E70834F4E770BD0000801A002004
:1072E000054A012120B1012805D19170FFF7E4BFC3
:1072F00051700020FAE77047801A002010B5D0E9DD
:107300000234D1E90220D11AA04101D3012010BDDD
:10731000002010BD2DE9F04117880646B81D14461F
:107320000D46984202D90C20BDE8F0813188072231
:1073300006290AD34FF4486C4FF6FF73614501D913
:10734000994202D17088062801D21046ECE76045C8
:1073500001D99842F9D1994203D0984201D0814293
:10736000F3D80520E85520881221401C80B22080E7
:1073700029542088401C80B220804119308802F0B6
:10738000F4FE2188084480B220804119708802F000
:10739000ECFE2188084420800020C5E770B5002459
:1073A0000F4D10E0686800EBC406307801F09CFED9
:1073B0007178012901D0012100E00021414030789D
:1073C00000F05CF9641C28788442EBDBD5E9040109
:1073D000084303D0BDE8704002F014BD70BD00004A
:1073E0000819002010B50021024800F0AEFC80F31F
:1073F000100010BDA42100204FF480328A400168A3
:10740000C1F848230068C0F8082370474FF4A07201
:1074100002EB810189B200F0A1B92DE9F0410546E6
:107420000E464FF4A07000EB860081B228684FF43E
:107430008034B440984622F07F47C0F8084328685B
:10744000C0F84843286801F0F3FA286800EB86008A
:10745000C0F840752868C0F84443B8F1000F02D066
:107460002868C0F80443BDE8F0810068D0F804053E
:107470007047000070B54379234C44F823204279CB
:10748000231D03EBC202224C1579204A121BD4089B
:107490002DB10825022000EB04401EA130E0056854
:1074A0000A88C5F8082590F904208978002A4FEA4F
:1074B000411104DB02F1E02282F8001405E002F041
:1074C0000F0202F1E02282F8141D90F9041001224B
:1074D000002909DB01F01F0502FA05F549098900B9
:1074E00001F1E021C1F800514179002503EBC10110
:1074F0000A71417943F83100032000EB04400EA1EA
:1075000001F0DCF8284670BD4419002034AD0200BB
:10751000FCAC020052544320696E7374616E636563
:1075200020616C726561647920696E697469616C4F
:10753000697A65642E0000005254433A20696E69EE
:107540007469616C697A65642E00000090F904002A
:10755000002809DB00F01F02012191404009800052
:1075600000F1E020C0F8001270470A46022100F046
:107570007BB84FF4827100F0F1B80068012101601E
:10758000704700680121416070472DE9F05F0746B0
:107590000C464FF4A07000EB84001FFA80FA3868A4
:1075A0004FF48036A6409B4622F07F45C0F84863E2
:1075B0003868C0F808633868D0F8048500EB8402A6
:1075C000D2F84095C2F840855146386801F030FA4B
:1075D000A9EB080020F07F40012806D1102001F01F
:1075E000C5FC5146386801F023FA3868D0F80485A4
:1075F000C0F84463A5EB080121F07F4138680129F8
:1076000000EB840010D0C0F840553868D0F804155D
:107610006FF07F4C6A1A521E22F07F42ACEB0B03D4
:10762000934217D362B118E06D1CC0F8405510208A
:1076300001F09CFC3868D0F8040540450AD10CE004
:1076400000EB84006D1CC0F840553868D0F8040584
:10765000884202D00D20BDE8F09F01223146384615
:1076600000F002F80020F6E70368C3F84413002A8C
:1076700002D00068C0F80413704700002DE9F84FED
:107680000E463449804601EB5001C007097801D00D
:107690000F0901E001F00F074FF0000942460120F9
:1076A0004946FEF7D2FEDFF8B0A004460D46052F8E
:1076B0004ED2DFE807F003161B282C00002E47D01F
:1076C0000121404602F0B8FA8DF800906846FFF7B5
:1076D00053F95046D0E904120C431543CAE9044556
:1076E00032E00EB1022114E0002112E04EB103217C
:1076F000404602F0A1FA4046BDE8F84F012102F0F1
:1077000093BD012105E0002E22D1042101E02EB11C
:1077100003214046BDE8F84F02F08EBA00214046F2
:1077200002F08AFA0021404602F07EFD8DF80090BA
:107730006846FFF721F95046E243D0E904341A4085
:1077400024EA0501CAE904219DF80000FFF738F991
:10775000BDE8F88F601B00200819002010B50068F4
:1077600042581AB101F064F9012010BD002010BD8B
:1077700010B50B48FFF779FE094A083AD2E90434FC
:10778000C018D2E9063244F10001C31A71EB0202BB
:1077900004D24FF08072801841F1000110BD00004A
:1077A0002819002010B5C0B2FFF734FD0446007858
:1077B00001F09AFC01466078012801D0012000E028
:1077C000002090EA010F08D00449D1E904010843E0
:1077D00003D1BDE8104002F015BB10BD0819002010
:1077E0002DE9FC5F0E008346DDE90C47C6F1000081
:1077F00098469246814600D40846012503E000BF22
:1078000090FBFAF06D1C5045FADAA84500D94546C0
:1078100024B1002E01DB780700D5641EB80702D51D
:10782000B8F1000F0AD0F80708D13CB1A54205D243
:1078300020215846641EFFF7C9FCF6E7002E02DA45
:107840004E462D2102E0780703D52B215846FFF73D
:10785000BDFC07F0030002280BD1B8F1000F08D1DE
:107860003CB1A54205D230215846641EFFF7AEFC5C
:10787000F6E7CDE90047434652463146584602F006
:1078800079FCBDE8FC9F000070B50D460446006819
:107890004FF4887101F01EFB4FF49071206801F0E5
:1078A00019FB4FF49271206801F014FB4FF4A271A0
:1078B000206801F00FFB4FF4AC71206801F00AFB67
:1078C00020681249C0F804132068690740F30730A4
:1078D000090E002804DB00F1E02080F8001405E028
:1078E00000F00F0000F1E02080F8141D206840F344
:1078F0000730002809DB00F01F02012191404009F8
:10790000800000F1E020C0F8001170BD10034200BB
:10791000024600201268530713D502F00300012825
:1079200002D002280CD105E0C2F383100B68801C42
:10793000184404E00223086803EB925210440860E4
:10794000012070470A4810B5807860B1002401E03A
:10795000022C06D02046FFF703FA641C042CF7D350
:1079600010BD0324F6E7BDE81040FFF719BA000088
:10797000DC18002003480179C90702D00078FFF71E
:10798000F3BA7047DC1800202DE9FF410026244897
:1079900000F0CDF92248001F074600F0C8F9214C3D
:1079A0002149A06800900D6800E0009869462840D1
:1079B00004EB80000C30FFF7ABFF0028F5D101AAE3
:1079C000009901EA050304EB8303491CDB6842F8D4
:1079D0002030401C00910228F2D3019800F00300EF
:1079E00001280BD0022810D10198032101EB9050FF
:1079F0000099BDF80A6001EB900005E00198BDF820
:107A00000A60C0F3831008440090384600F08CF9F7
:107A100008B10098A06004B03046BDE8F0810000D5
:107A2000A0210020881D00207819002008B54FF4FF
:107A30008041002000F0AEFE08B1FEF733FF00F0F9
:107A400015FDFEF74DFF08B1FEF72CFF00210120C8
:107A5000FFF740FA08B1FEF725FF00F0A5FF08B1D7
:107A6000FEF720FF01F038F908B1FEF71BFF0020F8
:107A700000906946012000F0EBFF08B1FEF712FF0D
:107A8000684601F063F808B1FEF70CFFFEF730FE20
:107A90000E480F49401AC008032101EB00400DA118
:107AA00000F00CFE11480121007873DF08B1FEF7E9
:107AB000F9FE0220FFF702FA08B1FEF7F3FE00F02C
:107AC000E3FC0028FBD100F083FFF8E74CAD020097
:107AD000FCAC0200426561636F6E206578616D7079
:107AE0006C6520737461727465642E00C818002080
:107AF00070B5144682880E4605462088111D014443
:107B0000921C994201D8FE2A01D90C2070BD521C4A
:107B100032542088FF21401C80B2208031542088BC
:107B2000401C80B220808119288802F01EFB218829
:107B3000084480B22080AA8842B1A96841B130448B
:107B4000FEF796FC2088A98808442080002070BD9C
:107B5000072070BD2DE9F047C5881E1DB6FBF5F75F
:107B60008946B6FBF5F1044605FB176C40791668AB
:107B70006843DDF820A0F718001F874200D9C61A15
:107B8000166001E02468491E0029FBD1A5EB0C0713
:107B90008846B74216D818E004EB0C00001D09EB2C
:107BA0000803BAF1000F3A4602D00146184600E039
:107BB0001946FEF75DFC2468F61B4FF0000CB84434
:107BC000B54201D9374600E02F46002EE4D1BDE88A
:107BD000F087000030B5024651B100F0EFFD002102
:107BE000074C08E034F821301568AB4202D111602F
:107BF000002030BD491C8142F4D3052030BD000077
:107C000000000000F8B50F4601781446054601292A
:107C100001D1687830B12088821C9A4232D801297B
:107C200002D006E00720F8BD69780144891C99421A
:107C300028D8181A801E86B2ADF800602188B81CBA
:107C4000084469467DDF0028EDD12978022904D057
:107C50006878BDF80020904205D3BDF80000B0421E
:107C600001D809200AE00820012905D16978B1422C
:107C700002D8ADF8001001E0ADF80060BDF80010CA
:107C8000FE2901D90C20F8BD2288491CB95421884D
:107C9000491C89B2218078542088401C2080BDF87E
:107CA0000010084420800020F8BD10B531B1B2FBAF
:107CB000F3F403FB14241CB1092010BD0E2010BDE9
:107CC00001600021416081608281C381084610BD4E
:107CD00070B50C460546FEF79FFA002802D02188B1
:107CE0002868084470BD10B50A8849888A4203D1C3
:107CF000FEF7D4FA012010BD002010BD70B50C466F
:107D00000546FEF7AEFA002802D0618828680844CC
:107D100070BD10B50A8849888A4203D1FEF798FAE7
:107D2000012010BD002010BD002100F009B8012184
:107D300000F010B808B56A46FEF705FB009808BDCC
:107D400008B56A46FEF7E5FA08BD08B56A46FEF7CB
:107D5000C7FA08BD08B56A46FEF7CEFA009808BD16
:107D600008B56A46FEF7FCFA009808BD38B5044627
:107D700000258DF800506846FEF7FEFD2168626818
:107D8000086890420ED9401E08600178238AE26894
:107D900001FB0325227A2168101AC0B20A798242B7
:107DA00000D208719DF80000FEF70AFE284638BD93
:107DB00038B5054600208DF800000C466846FEF7F1
:107DC000DBFDE868298A201AB0FBF1F12A68106807
:107DD000431C136001709DF80000FEF7F1FD38BDF3
:107DE00010B530B1017A42680368891AC9B21A60C5
:107DF00006E00E2010BD03681A68541C1C60117048
:107E0000491EC9B2F7D2006800210171084610BDB1
:107E1000C20800F007030120895C984008407047C1
:107E200000F180400068002800D00120704708B5AC
:107E300000F18040002101600068009008BD000052
:107E400070B50D4C0125207808B185260EE0002084
:107E5000A06060602061E060084801F05FF80646BD
:107E600000F086FF08B901F043F8257001F038F8FA
:107E700000B1A570304670BD801A0020E17202008A
:107E800038B500258DF800506846FEF775FD084CA2
:107E9000E068401EE060E06828B901F021F810B900
:107EA00001F04CF8A5709DF80000FEF789FD38BD83
:107EB000801A0020F0B505460478154889B01646AA
:107EC00040F82420124A0869121DA2F1080742F85E
:107ED0002400487F385520226846FEF7C9FA0494EA
:107EE0002878385C48B10EB10A4A00E000226946A1
:107EF000281D01F0B3FA09B0F0BD0EB1064A00E04A
:107F00000022694605F10C0001F072F9F3E7000068
:107F1000F018002029A00200719E02000FB408B5DD
:107F20000399002904D004AA00926A4600F00FF8D1
:107F300001B05DF814FB10B582680446002A05D034
:107F4000D4E90403216898470020A06010BD2DE902
:107F5000FC4791460C00804676D014F8011B39B1DD
:107F600025290ED04046FFF731F920780028F4D1BA
:107F700098F80C00002867D04046BDE8FC47FFF7A2
:107F8000DABF0020012221782B291BD02D2902D015
:107F9000302908D102E040F0010001E040F0020089
:107FA000641C002AEFD100252A290ED02178A1F1E6
:107FB00030020A2A11D205EB850201EB4205641C4E
:107FC000303DF1E740F00400EAE7D9F800100B1D5E
:107FD000C9F800300968641C0D44217800232E295B
:107FE0000BD114F8011FA1F130020A2A05D203EBCC
:107FF000830201EB4203303BF3E76C290DD0682983
:108000000BD0692921D00BDC252918D0582931D073
:1080100063290ED0642915D117E014F8011FECE78D
:10802000702969D0732932D075291BD0782909D1DC
:1080300020E0D9F80000011DC9F800100178404681
:10804000FFF7C4F8641C90E76CE0D9F800100A1D33
:10805000C9F800200968CDE900500A224046FFF720
:10806000BFFBEFE7D9F800100A1DC9F80020096826
:108070000A2206E0D9F800100A1DC9F80020096894
:108080001022CDE90050404602F074F8DAE7D9F842
:10809000001000270A1DC9F800200E68C00705D18E
:1080A00012E04046761C7F1CFFF790F831780029DB
:1080B000F7D104E0202140466D1EFFF787F8BD424E
:1080C000C0D9002DF6D1BDE74EB13046FEF7F4F928
:1080D000074604E0202140466D1EFFF777F8BD42B9
:1080E00006D9002DF6D103E04046761CFFF76EF866
:1080F00031780029F8D1A5E7D9F80000011DC9F8A9
:108100000010056830214046FFF760F878214046AE
:10811000FFF75CF808200021CDE90001034610229A
:108120002946B0E7BDE8FC8770B541EA4201DDE9C8
:1081300004564FF0A04441EA830141EA052104EBD3
:10814000800041EA0641C0F8001770BD70B541EAF1
:108150004201DDE904564FF0A04441EA830141EABF
:10816000052104EB800041EA0641C0F8001770BD0C
:1081700070B541EA4201DDE904564FF0A04441EAFE
:10818000830141EA052104EB800041EA0641C0F881
:10819000001770BD70B541EA4201DDE904564FF0A9
:1081A000A04441EA830141EA052104EB800041EA51
:1081B0000641C0F8001770BD1CB5002100910B46A8
:1081C00001220191FFF7D4FF1CBD1CB500210091D5
:1081D0000B4601220191FFF7DDFF1CBD1CB50022FB
:1081E0000B46009211460192FFF7C2FF1CBD1CB561
:1081F00000220B46009211460192FFF7CBFF1CBDF7
:108200001CB5002100910B46012201911146FFF798
:10821000AFFF1CBD1CB5002100910B46012201914E
:108220001146FFF7B7FF1CBD4FF0A04202EB8000E4
:10823000D0F8002722F44032C0F80027D0F80027F9
:1082400042EA0141C0F800177047000038B5094BF9
:1082500044181B6800936B4608E000BF53F82010D9
:10826000D1F8205520C2C1F82055401C8442F5D8D1
:1082700038BD00004CA3020042094FF0000100D1BC
:10828000491E00F01F00012282400A4201D0012055
:1082900070470020704701224FF0A043824011B187
:1082A000C3F808257047C3F80C257047034908B583
:1082B0000844002101600068009008BD0060004093
:1082C00002494058012800D000207047006000405B
:1082D00030B5154A01460020D2F8104423460AE082
:1082E000DB681D79854205D1401C0A28F6DB4FF07A
:1082F000FF3030BD1B68002BF2D1431CF9D0CB6896
:108300001871D2F8103443B1DB68CC681B68236065
:10831000D2F81024D268116030BDC2F81014C968B8
:1083200000220A6030BD0000881D0020F0B595B025
:108330001C4615460E4608461A9F00F00FFB1821F2
:1083400009A8FEF7AEF80E97CDE9095400230822DC
:1083500003A9304600F017FB05980690BDF8100001
:10836000ADF81C00BDF81200ADF81E0000208DF81D
:1083700021000399082501F00300012802D00228FA
:1083800016D02FE0C1F3C200C1F383178C0A8DF819
:108390002000BA002B460FA9304600F0F4FA09A8D5
:1083A000009006AB3A460FA9204600F033FA19E0D8
:1083B000C1F3C2008C0D8DF82000082C01D2274695
:1083C00000E008272B463A460FA9304600F0DBFABA
:1083D0003D44E41B09AB06AA39460FA800F082F918
:1083E000002CEAD1304600F0BFFA15B0F0BD70475E
:1083F000012001F05BBD0000084810B50178084A73
:10840000515C19B1001D01F0C3F802E00C3000F01E
:10841000BDFFBDE81040002001F048BD5C19002000
:10842000EC18002008B5034A00924023024AFFF7E7
:108430007DFF08BDF59A0200F01B00200A4A0129C1
:1084400002EBC00007D0022907D0032907D0042976
:1084500007D0002070470220704704207047007941
:108460007047407970470000FCAC020010B5FFF780
:10847000BFFF04210348FFF72BFF02490120C96811
:10848000487110BDECAC02002DE9F04F8DB0FEF745
:10849000B5FE18B100200DB0BDE8F08F7D4C4FF057
:1084A000000BC4F818B4BFF34F8F7B49A06802904B
:1084B0000D68D846284004EB80000BE0D4F818047F
:1084C00070B961680298814201D8A160E2E7284052
:1084D00004EB80000C3002A9FFF71AFA0028EDD156
:1084E000002009AA029901EA050304EB8303491C51
:1084F000DB6842F82030401C02910228F2D3099830
:1085000000F00301022902D001294DD0A8E0810D1D
:1085100050228946B2EB905F00D850210E4666F398
:108520009F50099008315D4800F0CFF9070077D0DF
:1085300000F014FA4346082209A9384600F02BFA45
:10854000029908F1080A2940681A8000001D864235
:1085500023D9504D0C3530B1C2B204EB8101301A31
:1085600090460C3104E02946F2B200259046284698
:10857000C6B25346384600F00EFA0AEB08032DB196
:10858000324629464FEA070000F005FA029909F140
:10859000030001EB9000029039E004EB81015346A7
:1085A000324638460C31EFE7C0F38311062900D379
:1085B000062161F389100990C0F38310801C8100AB
:1085C000364800F082F907004AD000F0C7F9434668
:1085D000082209A9384600F0DEF908F1080800264B
:1085E0000FE00298434600EA0501401C04EB8101BC
:1085F0000290042238460C3100F0CDF908F104084D
:10860000761C0998C0F38310B042EAD847B1D4F879
:108610001054D4F8180478B1384600F0A5F934E0C5
:108620001EE0E8684079012804D12A6828463946C6
:1086300012689047E8680568002DF2D1384600F0CE
:1086400093F98DF800B06846FEF796F9D4F818044F
:1086500008B90298A0609DF80000FEF7B1F914E097
:10866000D4F8104405E02168204689688847E0680E
:108670000468002CF7D10A480A49401AC0080221B0
:1086800001EB004008A100F019F8FEF7B7FD80F0FB
:10869000010000E7881D0020781900206CAD020061
:1086A0004CAD0200FCAC02004261636B656E64730A
:1086B00020666C75736865640000000000231A462C
:1086C00001F0D2BA08B5012300926A4601F0CCFA53
:1086D00008BD1CB5CDE9002302236A4601F0C4FAA7
:1086E0001CBD00002DE9F0470E4680461C46924610
:1086F000082940D894F80C900020207319461046A1
:1087000001F07CF80025B54206D218F805201BA11F
:108710002046FFF703FC03E01AA12046FFF7FEFB0B
:108720006D1C082DEFD318A12046FFF7F7FB00259D
:10873000B54212D218F805707E2F08D8FDF794FEC6
:108740000068C05D10F03E0F01D03A4600E02E22D6
:108750000EA12046FFF7E2FB03E00DA12046FFF744
:10876000DDFB6D1C082DE3D301222146504601F0AC
:1087700027F884F80C90BDE8F087000020253032FF
:1087800078000000202020007C000000256300000D
:1087900020000000064910B500200870054800F0D0
:1087A000E1F8002803D1044800F034F9002010BD9E
:1087B000881D00206CAD020024A502000248034978
:1087C000401AC008704700006CAD0200FCAC02000B
:1087D00013B56846FFF7FEF908B100201CBD02483A
:1087E000009950F831001CBDFCAC020070B508487F
:1087F0000125D0F81044057007E0E0684571216854
:10880000204649688847E0680468002CF5D170BDAF
:10881000881D00202DE9FF4781460C9D00200C4655
:108820002F7B2873984616462946184600F0E6FF27
:10883000072E42D2DFE806F004090F161F2A360081
:1088400049462846FFF76AFB37E049462846226832
:10885000FFF764FB31E0D4E9002349462846FFF7DF
:108860005DFB2AE0A0680090D4E900234946284631
:10887000FFF754FB21E0D4E90201CDE90001D4E97E
:10888000002349462846FFF749FB16E004F108009B
:1088900007C88DE80700D4E9002349462846FFF7BA
:1088A0003DFB0AE004F108000FC88DE80F00D4E991
:1088B000002349462846FFF731FB0022294640465F
:1088C00000F07EFF2F73BDE8FF872DE9F041058A98
:1088D00080462D1F4819C01CB0FBF5F0C6B24046BB
:1088E000FFF744FA041E19D00020207101206071A6
:1088F000E58000272546761EC4F800800BE0404640
:10890000FFF734FA60B16179491C6171286005464E
:108910007F1CC0F80080B742F1D32046BDE8F0814B
:10892000204600F002F80020F8E72DE9F0414579F3
:1089300001466B1E002201E00968521C9A42FBD3DB
:108940000F680146002605E038460C68FFF730FA4C
:108950002146761CAE42F7D3BDE8F0810121001D0F
:10896000FFF7E8B9FFF73CBA10B504460121001D36
:10897000FFF7F6F910F0FF0F04D12046BDE81040D4
:10898000FFF7D3BF10BD1CB501920122009201AACE
:10899000FFF7E0F81CBD1CB501920022009201AA6D
:1089A000FFF7D8F81CBD0000064910B5002048703C
:1089B000091D0860BFF35F8F0349044800F0FCF90C
:1089C000002010BD50190020B0A30200E41B0020BD
:1089D00008B500208DF800006846FDF7CDFFF1EEE8
:1089E000100A20F09F00E1EE100ABFF35F8F0849E4
:1089F0004020C1F880029DF80000FDF7E1FF00F083
:108A0000B7F908B141DF08BD20BF40BF20BF08BD96
:108A100004E000E082680021916082681161826850
:108A200051618268D16082685160806801607047DE
:108A300008B5002242504058009008BD20B10349BB
:108A400009680160002070470E207047A8A5020049
:108A5000FEB502460E460846FFF7F0FF002866D135
:108A6000002400948DF8002001208DF8020001946C
:108A70000620ADF80400029469462020326869DFC0
:108A80002B492C4A891AC908012202EB014530B151
:108A900000F000FA024628462749FFF713FE00942B
:108AA0008DF801408DF80240019402948DF8034046
:108AB00069464020326869DF30B100F0EBF90246C8
:108AC00028461E49FFF7FEFD0094019402948DF89C
:108AD000004069460120326869DF30B100F0DAF900
:108AE000024628461649FFF7EDFDF8200090019454
:108AF00002946946A120326869DF30B100F0CAF9FA
:108B0000024628460F49FFF7DDFD009401940294C8
:108B10008DF800406946A020326869DF30B100F06E
:108B2000B9F9024628460849FFF7CCFD0020FEBDF2
:108B30005CAD0200FCAC0200A4AB0200ECAB020096
:108B400004AB020050AB0200B0AA02002DE9F041D4
:108B50000546076860DF804619491A482A68081ADE
:108B6000C608BA4219D9022000EB064416A12046D5
:108B7000FFF7A4FD20463A461FA12B68FFF7A9FD89
:108B80004FF08050D0F80C012968800200F10050AD
:108B9000421A204625A1FFF795FDB8F100004FF0DD
:108BA00001040AD000F076F9024604EB06402AA13F
:108BB000FFF788FD4046BDE8F0812F480470F9E7D3
:108BC0005CAD0200FCAC0200496E737566666963B9
:108BD00069656E742052414D20616C6C6F636174E5
:108BE000656420666F722074686520536F667444F4
:108BF00065766963652E00004368616E6765207461
:108C000068652052414D207374617274206C6F63EB
:108C10006174696F6E2066726F6D203078257820E0
:108C2000746F20307825782E000000004D6178693F
:108C30006D756D2052414D2073697A6520666F72A3
:108C4000206170706C69636174696F6E2069732054
:108C5000307825782E00000073645F626C655F6574
:108C60006E61626C6528292072657475726E656428
:108C70002025732E00000000CF19002030B51448C5
:108C800091B00078002820D05FF03405ADF8405056
:108C900010A903A861DF30B1052816D011B0BDE8D6
:108CA0003040FDF7FFBD03AC0A49684600F084F888
:108CB00007E000BFD0E9002120469047684600F059
:108CC00092F802980028E1D0F4E711B030BD00001E
:108CD000CF190020ACA502007CB5194C207808B152
:108CE00008207CBD0120A070002000F0D5FE1128D6
:108CF00019D0002000F0E8FE12480026006801901C
:108D00008DF800606846FDF737FE0F4901A810DFB7
:108D100005000AD0002020709DF80000FDF750FEED
:108D20002DB128467CBD00207CBD0120F3E7A67054
:108D3000667000F04FFF012000F0C6FEF3E7000070
:108D4000CC19002040A50200216802000EB5074999
:108D5000684600F031F805E0D0E900108847684621
:108D600000F041F802980028F6D10EBD5CA5020083
:108D70000148007870470000CC1900201FB56846F4
:108D80004BDF30B1052814D004B0BDE81040FDF72A
:108D900089BD084901A800F00FF806E0D0E90021DC
:108DA0000098904701A800F01EF803980028E6D02C
:108DB000F4E71FBDC8A50200016009684160AFF378
:108DC000008010B5D0E900215368994201D10021FB
:108DD00004E0D1E90034A34202D01946816010BDFD
:108DE00008314160F0E7816800290BD00268926881
:108DF0000A44826041684B689A4203D1083141605D
:108E0000FFF7DFBF704770B50D460646446804E0C3
:108E1000B2682946904718B1246820680028F7D125
:108E200020682860256070BD406800687047416810
:108E30000868002801D002680A60704702460020D6
:108E4000526806E08B4203D1086810600120704729
:108E50001A461368002BF5D1704700000C4A10B574
:108E600002F594730EE0991AC91001EBD171491003
:108E700002EBC1010C68844201D90B4602E005D225
:108E800001F108029A42EED3002010BD486810BDDF
:108E9000D0A3020000B5FFF7E1FF002800D1014890
:108EA00000BD0000BCA302004058002800D00120F3
:108EB000704708B5002242504058009008BDD0F8D5
:108EC0000403084000D0012070474058002800D01B
:108ED0000120704708B5002242504058009008BD5C
:108EE00002480068002800D00120704700040140BB
:108EF00008480068012110F0010F06D14FF0E02072
:108F0000C02280F800248430C16703490120086032
:108F10007047000000E100E01805004006490246E5
:108F200000200B790BB1852070470A6001220A717D
:108F300000224A7170470000F8180020022010B586
:108F40004107C1F808034FF48270FEF770FF05492E
:108F50000120086004480168C1F300410029FAD1EA
:108F600010BD00000C00004018040040002802D092
:108F7000014980010847704781A302002DE9F041B3
:108F80000E46054600F0A2FB0028284619D0FEF741
:108F90008BF9083800F00CFC032802D001280ED011
:108FA00007E04FF0A040D0F81005E84010F0010FA6
:108FB00005D003212846BDE8F041FFF735B902216D
:108FC000F8E700F08FFB002822D02846FEF76CF966
:108FD00004464FF4807000EB84000E4F81B207EB23
:108FE0008400D0F8102542F00102C0F81025084690
:108FF000FFF75CF9002E0BD02846FEF755F906491D
:1090000051F82000002803D00120A040C7F8040335
:10901000BDE8F08100600040941A00202DE9FC4179
:10902000DFF8B880044608EB0400002790F9300010
:109030001346C0170E46401C01D008274AE0B078FE
:109040001946C0F340022046FEF70AF90546401CC7
:109050003FD0B078410717D4C0070AD04FF0A040E6
:1090600000EB8400D0F8001721F00201C0F80017CF
:1090700007E000217378204600910A460191FFF72E
:1090800065F8204600F014FBB078800718D5144826
:10909000317800EB8500D0F81025124B1A40C0F84B
:1090A00010254FF4F8524FF4403302EA042203EA49
:1090B00001410A43D0F810150A43C0F8102509E011
:1090C00008EB0500327810F8481F41EA8211017060
:1090D00000E004273846BDE8FC810000941A002017
:1090E00000600040FFE0FCFF4FF0A041D1F81015F8
:1090F000C14011F0010000D00120704770B5194D3A
:1091000095F8580008B1082070BD0024661E20465E
:10911000FFF7B2F810B1281980F83060641CE4B28F
:10912000202CF4D300242046FEF78CF8641CE4B213
:109130000C2CF8D300200D4968650B4CC02081F839
:10914000000401264020891FC1F800014FF4BE70C1
:10915000FFF7ACF8A004C4F8040385F858600020B9
:1091600070BD0000941A00200060004006E000E09E
:10917000034890F85800002800D0012070470000F4
:10918000941A00200121B1EB507F01D101207047DA
:109190000020704738B50D4600F07CFB040014D069
:1091A00000208DF800006846FDF7E6FB207928B125
:1091B0009DF80000FDF704FC112038BD012025605A
:1091C00020719DF80000FDF7FBFB002038BD10B5B5
:1091D00000F060FB002802D000210160017110BD89
:1091E0000149024800F08ABEF01A00200020004029
:1091F0002DE9F0410546007916460F4600EB400187
:109200002D4A01EBC00102EB810494F82A1011B140
:109210000820BDE8F081294951F820102868FFF79F
:10922000B9FF08B11120F4E739462846FDF7E2FB03
:1092300066603869206030004FF001062FD03F7F14
:109240004FF48E712868FFF734FE4FF4A27128683E
:10925000FFF72FFE28681A49C0F8041328684FEA60
:10926000471140F30730002804DB00F1E02080F8CC
:10927000001405E000F00F0000F1E02080F8141D5C
:10928000286840F30730002809DB00F01F0106FAC8
:1092900001F14009800000F1E020C0F800112868C9
:1092A0000421C0F800150020A061E06184F82900C5
:1092B00044F8140FA675ACE7F01A002050A3020082
:1092C000800002002DE9F05F054600790B4600EBB7
:1092D000400101EBC000244901EB8004284600F066
:1092E00045F810B11120BDE8F09F62614FF0000910
:1092F000C4F82090A36084F828904FF48E784E46EE
:1093000041462868FFF7D5FD28684FF0010AC0F8EC
:1093100008A02146286800F081FD606808BBD5F8E8
:1093200000B067690FE000BF94F8280008B10F266D
:1093300015E041465846FFF7B7FD0028F4D0214616
:10934000584600F06BFD206AB842F2D357464146BA
:109350002868FFF7A9FD0028F9D02868C760C4F87D
:1093600014903046BFE70000F01A0020007900EBAF
:10937000400101EBC000044901EB80004069002876
:1093800000D0012070470000F01A00202DE9F047BE
:10939000044600794FF0000900EB400101EBC000EA
:1093A000284901EB80072068C0F800957868B0B1C3
:1093B00020682549C0F80813206840F307300028CA
:1093C0000DDB00F01F02012191404009800000F1F7
:1093D000E020C0F88011BFF34F8FBFF36F8F20687C
:1093E000D0F80C25D0F81485D0F80865D0F81055C1
:1093F0004FF0FF31C0F81415C0F80C152068C0F804
:109400000815C0F81015501C02D01046FEF7D4FE07
:10941000B8F1FF3F02D04046FEF7CEFE681C02D0F6
:109420002846FEF7C9FE701C02D03046FEF7C4FE87
:109430002068FFF7CCFE87F82A90C7F80490BDE8B3
:10944000F0870000F01A002084020200014902485F
:1094500000F002BE1C1B0020002000402DE9F0415E
:109460000546164600790F46154A00EBC00102EB8F
:10947000810494F8201011B10820BDE8F081114951
:1094800051F820102868FFF785FE08B11120F4E795
:1094900039462846FDF7F2FA6660386920601EB149
:1094A000397F2846FEF7F0F928680821C0F8001532
:1094B0000020A061E0616061012184F82010DCE7F8
:1094C0001C1B002054A302002DE9F04704460E4661
:1094D0000079274900EBC00001EB800517463046B4
:1094E000FFF750FE30B1204600F044F820B11120C3
:1094F000BDE8F0871020FBE76F61AE604FF4907716
:109500004FF0000839462068FFF7E4FC4FF4AC76D2
:1095100031462068FFF7DEFC2068AA686969C0F858
:109520004425C0F8481520684FF00109C0F808909C
:109530006868D0B9BA4651462068FFF7C6FC0746AE
:1095400031462068FFF7C1FC0743F4D010B14FF05B
:109550000F0808E02068C0F80C9031462068FFF73B
:10956000B4FC0028F9D0002068614046C0E7000044
:109570001C1B00200079054900EBC00001EB8000B6
:109580004069002800D00120704700001C1B00200B
:109590002DE9F047064600793D4900EBC00001EB9C
:1095A0008005346868680127A8B13A49C4F80813EF
:1095B000306840F3073000280DDB00F01F0107FA88
:1095C00001F14009800000F1E020C0F88011BFF3F4
:1095D0004F8FBFF36F8FD4F8000220F02000C4F843
:1095E0000002A8694FF4A27820B141462046FFF757
:1095F00071FC67604FF4AC7949462046FFF76AFC7E
:10960000E760474649462046FFF75FFC0028F9D04F
:10961000A86928B139462046FFF757FC0028F1D049
:109620004FF0000AC4F800A53068D0F80C25D0F837
:109630001495D0F80885D0F810754FF0FF31C0F8B8
:109640000C15C0F814153068C0F80815C0F81015CE
:10965000501C02D01046FEF7B8FDB9F1FF3F02D012
:109660004846FEF7B2FD781C02D03846FEF7ADFD45
:10967000B8F1FF3F02D04046FEF7A7FD2046FFF7B6
:10968000A6FD85F820A0C5F804A0BDE8F08700007D
:109690001C1B0020100342000349086003480168B6
:1096A0000029FCD07047000004E5014000E40140BF
:1096B00010B50549C20800F00703885C01249C40EE
:1096C0002043885410BD0000E81A002004490844D3
:1096D00090F93000082801DB012070470020704716
:1096E000941A00200449084490F93000082801D257
:1096F0000120704700207047941A00202DE9F05F88
:109700002A4F06464FF0A04A4FF0010B00243819AB
:1097100090F95010491C3CD090F85000314620F090
:10972000C0052846FEF774FB20B3204600F040F841
:1097300081460AEB8500D0F80007C0F30148B8F174
:10974000020F18D002212846FEF76EFD0BFA05F134
:10975000CAF820152846FDF7A7FD57F820204AB182
:109760004846B9F1030F11D0B8F1020F05D0B8F196
:10977000030F07D00DE00321E5E74846B9F1010FDB
:1097800004D006E04846B9F1020F02D1014628464E
:109790009047641C042CBAD3324601210020FEF706
:1097A00055FD30680028B1D1BDE8F09F941A002023
:1097B0000249084490F8500080097047941A00202C
:1097C00010B50C46017A052908D0407A38B108480E
:1097D00008A102682046FEF7A1FB00E01AB106A12D
:1097E0002046FEF79BFB2046BDE81040FEF7A3BBDA
:1097F000A8190020257300000D0A000038B5C388A1
:109800000D46044633B114A0009015A216A12846B7
:10981000FEF784FB217A05291CD0607A48B1A08824
:10982000FEF70CFE164951F8202016A12846FEF737
:1098300075FBA0880021FEF7CBFF03461049207A74
:10984000143951F8202001B02846BDE830400EA15F
:10985000FEF764BB38BD00001B5B306D00000000EC
:109860001B5B313B33316D0025734C6F6773206494
:10987000726F70706564202825642925730D0A00B5
:10988000A8190020257300003C25733E2025733A5B
:10989000200000000349884201D10348704700209E
:1098A00070470000002000400019002070B50546F8
:1098B000FDF75FFE134C40B1D4E904024FF0807114
:1098C000411842F10000C4E9041000212846FDF7C8
:1098D0009DFD30B1606820B1606800F00FFA002093
:1098E000606001212846FDF791FD18B1FDF740FFAA
:1098F000C4E90601284600F02DFA2846BDE870406C
:1099000000F034B82019002070B5054600200C4640
:109910000870FDF72DFFD5E90223101A63EB010350
:1099200000263146361A994112DAB0F5350F03D3C5
:10993000FCF7C4FF0B4942184FF4960300210A4874
:10994000FDF723FE10B10D2806D009E0012070BDFF
:1099500000210548FDF750FD284600F0CFF92070A2
:10996000002070BDFFFFB40028190020F8B51A4C84
:10997000074600261948FFF757FAD0B1616871B160
:10998000D0E902106268D2E90232C91A904120D2AD
:109990006068007F18B161681048FFF734FA00F082
:1099A00045F905466946FFF7AFFF98B1606840B1D9
:1099B0000AE0606800280CD13846BDE8F840FDF7A1
:1099C000E0BD3846FDF7D9FD65609DF80000002830
:1099D000D0D1F8BD6660CDE72019002068A3020051
:1099E00070B5054688690C4600284FF484712846F6
:1099F0000AD0FFF75EFAD5F81805626AE168885464
:109A0000606A401C606270BDFFF753FAD5F8180514
:109A100070BD1FB501238DF80030CDE90121D0E9DB
:109A20000012684690471FBD1FB501238DF8003016
:109A3000CDE90121D0E90012684690471FBD000022
:109A400038B50021012548B1012810D003280DD1D7
:109A5000FFF74EFABDE83840FEF712BA4FF0E020AB
:109A6000C0F88051BFF34F8FBFF36F8F38BD8DF8B3
:109A700000106846FCF780FF064C207808B9FEF716
:109A8000DFF9E068401CE060A5709DF80000FCF77D
:109A900097FF38BD801A00203EB504460949684644
:109AA000FFF78AF908E000BFD0E90021204690477F
:109AB00030B16846FFF797F902980028F4D13EBD0F
:109AC00011203EBD44A502003EB504460849684643
:109AD000FFF772F907E000BFD0E900212046904768
:109AE0006846FFF780F902980028F5D13EBD0000D6
:109AF00050A5020070B50D4C0020D2B22070201D80
:109B00000B4D0378EB5C1BB1001DFFF7DDFC02E0A1
:109B10000C30FFF7D7FB08B1FCF7C4FE60780028D3
:109B200002D021780029FAD070BD00005819002019
:109B3000EC1800202DE9F0410746806A144688465B
:109B4000C8B3002531E000BFB96A05EB450001EB61
:109B50008006B088801CFE2802D90C20BDE8F08168
:109B60002288401C08F8020020881622401C80B27F
:109B7000208008F800202088401C80B2208000EB64
:109B80000801308800F0F1FA2188084480B2208072
:109B9000B28842B1B16871B14044FCF769FC2088D9
:109BA000B188084420806D1CEDB297F82C00A842C3
:109BB000CAD80020D2E7FFE70720CFE7002805D169
:109BC0000349012048700020FDF776BB7047000074
:109BD000801A002010B51620FCF778FDA0B11148BE
:109BE00090F800044009082811D20121814011F0A9
:109BF000EC0F0CD00C4882684FF480016AB1016808
:109C000041F48001016010BD42F2010001E042F226
:109C10000200BDE81040FCF745BE4FF0E020C0F860
:109C2000001110BD16E000E0D81B00200148FFF72E
:109C3000FEB8000068A30200C207002A03D000BFDC
:109C40004FF00F0201E04FF0F00201D04FEA011196
:109C5000044B03EB5003187800EA020040EA0100CD
:109C600018707047601B00202DE9F84F0746214807
:109C70009146884605681E46012269461846FDF74A
:109C80005BFADFF874A060B3009800210446801CE2
:109C90000AE000BF00EA050259F821C00AEB82027F
:109CA000401C491CC2F80CC0B142F3D34FEA17491B
:109CB000FDF798FB611C29400AEB810149EA00424B
:109CC0002C40CA600AEB8401C86867F3C50066F3DC
:109CD000891068F39F2020F00300401C20F004004E
:109CE000C8609AF8000001E0FEF7CEFB0028FBD127
:109CF000BDE8F88F78190020881D002070B5044653
:109D0000124800250078F8B1F4B1207FE0B1FDF7EA
:109D10002FFDD4E90223801A994110D3206900262F
:109D200000B92677D4E905108847206960B1217F02
:109D300051B1D4E9022110187141C4E90201214650
:109D40000348FFF760F80125284670BD2019002060
:109D500068A30200F8B51B4C69462068FDF7CEFFEA
:109D600000260127184D29E0017821B101290CD0E6
:109D700002291BD114E041680A7FBAB90F77416804
:109D800010480830FFF73FF810E0416868688142EA
:109D900001D16E600AE00B480830FFF74FF805E08C
:109DA000FFF744FF08B10677FAE72F70694620688D
:109DB000FDF799FF69462068FDF7A0FF0028D3D181
:109DC000F8BD000060A3020020190020F8B50B4C7C
:109DD0000D46064669462068FDF77AFF58B10670C1
:109DE000456069462068FDF794FF10B10448FDF70F
:109DF000ADFB0020F8BD0420F8BD000060A3020008
:109E00002819002003488068410803480022406860
:109E1000FCF794BD0819002058A3020070B50C4649
:109E200005464FF48E71FFF744F8216AA068415C43
:109E3000206A401C2062C5F81C1570BD1FB50022A9
:109E40008DF800200291816801914261D0E90012F1
:109E5000684690471FBD1FB500228DF80020029173
:109E6000816801914261D0E90012684690471FBDA8
:109E70001FB50A4601788DF8001041680191017AFA
:109E80008DF80810C0680390044850F82210001F95
:109E900050F82220684690471FBD0000F4180020AB
:109EA00001490120087070475819002010B588B08A
:109EB000044620220E496846FCF7DAFA0620009094
:109EC000C01F0190029003904FF0EB7006900CB110
:109ED000084A00E0002269460748FDF7EBFF08B199
:109EE000FCF7E0FC0448001F447008B010BD0000FF
:109EF00004A50200A19E02005C1900202DE9FF4785
:109F00000C4605464FF40071FEF7D9FF01274FF4C8
:109F10000178002618B34FF4927949462846FEF797
:109F2000C3FFE0B149462846FEF7C3FFC5F80883E2
:109F300094F8290000B96F6002208DF80000D5F870
:109F40008004C5F880040390A0690290E068019045
:109F5000A661E661D4E900126846904728E0042132
:109F60002846FEF7ACFF18B34FF484712846FEF77D
:109F70009BFFE8B121462846FFF732FD616AA069E0
:109F8000884215D1E06938B1E268616AA061206950
:109F9000E6616662E06008E094F8290000B96F604D
:109FA000C5F80883A661E268616A2046FFF731FDC3
:109FB0004FF48E7841462846FEF776FF80B16069FF
:109FC000216A814202D294F8280028B341462846EB
:109FD000FEF76FFF606918B161692046FFF72EFF39
:109FE0004FF4A27841462846FEF75EFF002818D0BD
:109FF00041462846FEF75DFF94F8290000B12F6026
:10A00000A06900280DD0A661E268616A04B020460C
:10A01000BDE8F047FFF7FDBC21462846FFF7FEFEEE
:10A02000DEE7BDE8FF8700001FB50A4601788DF81E
:10A03000001041680191017A8DF80810C068039002
:10A04000044850F82210001F50F82220684690471C
:10A050001FBD0000F41800202DE9FF410C464FF40D
:10A06000927705463946FEF730FF0026B8B13946EB
:10A070002846FEF72FFF02208DF80000D5F8800457
:10A08000C5F880040390D5F83C050290E068019083
:10A09000A661E661D4E900126846904723E04FF4D8
:10A0A000887739462846FEF710FFE0B13946284642
:10A0B000FEF710FFD5F83C15A069884213D1E0697E
:10A0C00060B1E268D5F8000220F02000C5F8000277
:10A0D000E069A0612069E661E06001E0A661E268F4
:10A0E0002046FFF7A1FC4FF4A27739462846FEF739
:10A0F000ECFE68B139462846FEF7ECFEA06938B19F
:10A10000A661E661D5F83C152046E268FFF78CFCB5
:10A110004FF4907631462846FEF7D7FE60B13146BF
:10A120002846FEF7D7FE0120E860606920B1D5F827
:10A130004C152046FFF78FFE4FF4AC76314628468B
:10A14000FEF7C3FE00280ED031462846FEF7C2FEB9
:10A150006069002807D0D5F84C1504B02046BDE84A
:10A16000F041FFF778BEBDE8FF810870000A487033
:10A17000022070472DE9F05F8346DDE90A4A9946DF
:10A1800090460D460846012703E000BFB0FBF8F0FB
:10A190007F1C4045FAD2B94500D94F465FEACA70E4
:10A1A00012D18CB15FEA8A7002D5B9F1000F01D0EB
:10A1B000202607E0302605E031465846641EFDF7AC
:10A1C00005F80CB1A742F7D35FF00106B9F1010F12
:10A1D00002D9A9F1010903E0B5FBF6F0404502D32D
:10A1E00006FB08F6F2E7DFF83C9000BFB5FBF6F09F
:10A1F00000FB165519F800105846FCF7E7FFB6FBB0
:10A20000F8F6002EF2D15FEACA7009D0002C07D010
:10A21000A74205D220215846641EFCF7D7FFF5E778
:10A22000BDE8F09F86A3020070B50C460546FCF71A
:10A23000F1FF002807D04268002A04D021462846B2
:10A24000BDE87040104770BD2DE9FC411646DDE9C0
:10A250000854CDE900541F468046022200F00CF855
:10A26000002807D1CDE900543B4610223146404634
:10A2700000F002F8BDE8FC812DE9FC5F0026DDE975
:10A280000C4B994692468E4680462788354630E0EC
:10A29000D8F80400002200EB8500694600680190B0
:10A2A00001A864DF002830D19DF8000050451FD17F
:10A2B0000EB1002100E002212288084411185945FE
:10A2C00022D846B9521C90B2208009F800E02088BC
:10A2D000401C20800126218801A801EB0902694663
:10A2E00064DF002811D120889DF8001008442080E8
:10A2F0006D1CB8F80000A842CADC56B12088C01B0B
:10A30000401E80B2FF2802D90C20BDE8FC9F09F84E
:10A3100007000020F9E7111213140D0E0F100000B2
:10A32000101A0020301A0020601A00200D000300CF
:10A33000E96D02000E000300E96D02000F0003004A
:10A34000E96D020010000300E96D020000000050FA
:10A35000E19102004D94020003000000401B002028
:10A36000701B0020010006000000000040190020C2
:10A37000FD7202000000000000000000000000006C
:10A380000338FDD8704730313233343536373839F9
:10A390004142434445460000000000000000000028
:10A3A00000000000000000000000000000000000AD
:10A3B00098A30200B0A3020004000000556E6B6E6B
:10A3C0006F776E206572726F7220636F6465000034
:10A3D00000000000D4A902000100000080A80200D3
:10A3E0000200000074A6020003000000F4A80200AE
:10A3F0000400000048A902000500000028A802008F
:10A4000006000000C4A702000700000030A90200F7
:10A41000080000003CA8020009000000A0A80200FB
:10A420000A000000BCA902000B0000005CA60200AC
:10A430000C00000054A802000D00000024AA020035
:10A440000E00000020A902000F0000005CA902001D
:10A450001000000090A902001100000038AA0200BC
:10A46000120000000CAA020013000000A8A90200BC
:10A4700080000000DCA702008100000018A7020095
:10A4800082000000D8A6020083000000B8A60200E7
:10A4900084000000F4A602008500000000A802006D
:10A4A0008600000008A9020090000000A4A7020096
:10A4B0009100000098A602009200000068A8020027
:10A4C0000082000070A9020001820000BCA8020006
:10A4D00002820000D8A802000084000034A7020015
:10A4E00001840000E0A90200028400007CA70200B1
:10A4F0000384000058A7020025840200F9830200AB
:10A50000EF830200FFFFFFFFFFFFFFFFFFFFFFFFE3
:10A51000FFFFFFFF00000000000000000000D60168
:10A5200006010000F01C00207F000000701D0020CC
:10A53000000000000000000000000000000000001B
:10A540000100000730A5020040A50200080000003D
:10A5500068A5020078A502000800000078A50200A6
:10A5600088A502000800000098AD0200A0AD02001E
:10A57000000000000000000088AD020098AD02005D
:10A5800000000000000000000000000000000000CB
:10A5900000000000000000000000000000000000BB
:10A5A0000000000000000000C818002088A502007C
:10A5B000A8A502000800000080AD020088AD0200DE
:10A5C0000000000000000000B8A50200C8A50200BD
:10A5D00008000000004040404040404040404141B1
:10A5E0004141414040404040404040404040404068
:10A5F0004040404040050202020202020202020202
:10A6000002020202022020202020202020202002FE
:10A61000020202020202909090909090101010108E
:10A62000101010101010101010101010101010102A
:10A6300002020202020288888888888808080808BE
:10A64000080808080808080808080808080808088A
:10A650000202020240000000D5A502004E52465FF1
:10A660004552524F525F494E56414C49445F444116
:10A67000544100004E52465F4552524F525F534F75
:10A6800046544445564943455F4E4F545F454E41FD
:10A69000424C4544000000004E52465F4552524F26
:10A6A000525F464541545552455F4E4F545F454EAB
:10A6B00041424C45440000004E52465F4552524FC5
:10A6C000525F4D555445585F554E4C4F434B5F4676
:10A6D00041494C45440000004E52465F4552524F9E
:10A6E000525F4D555445585F4C4F434B5F4641496F
:10A6F0004C4544004E52465F4552524F525F4D55B5
:10A700005445585F434F4E445F494E49545F46415C
:10A71000494C4544000000004E52465F4552524F9E
:10A72000525F4D555445585F494E49545F46414923
:10A730004C4544004E52465F4552524F525F424C88
:10A74000455F495053505F52585F504B545F5452CD
:10A75000554E4341544544004E52465F4552524F78
:10A76000525F424C455F495053505F504545525FE0
:10A7700052454A4543544544000000004E52465F4E
:10A780004552524F525F424C455F495053505F4CC7
:10A79000494E4B5F444953434F4E4E454354454405
:10A7A000000000004E52465F4552524F525F4150EA
:10A7B000495F4E4F545F494D504C454D454E5445B1
:10A7C000440000004E52465F4552524F525F4E4F7A
:10A7D000545F535550504F52544544004E52465FBB
:10A7E0004552524F525F4D4F44554C455F4E4F546A
:10A7F0005F494E495449414C495A454400000000C4
:10A800004E52465F4552524F525F4D4F44554C4554
:10A810005F414C52454144595F494E495449414C6E
:10A82000495A4544000000004E52465F4552524F7F
:10A83000525F4E4F545F464F554E44004E52465F56
:10A840004552524F525F494E56414C49445F535412
:10A85000415445004E52465F4552524F525F44416B
:10A8600054415F53495A45004E52465F4552524F3C
:10A87000525F494F5F50454E44494E47000000002B
:10A880004E52465F4552524F525F5356435F4841C6
:10A890004E444C45525F4D495353494E47000000CA
:10A8A0004E52465F4552524F525F494E56414C49B7
:10A8B000445F4C454E475448000000004E52465FEE
:10A8C0004552524F525F4452565F5457495F45526A
:10A8D000525F414E41434B004E52465F4552524FEC
:10A8E000525F4452565F5457495F4552525F444E3F
:10A8F00041434B004E52465F4552524F525F494EC4
:10A900005445524E414C00004E52465F4552524F04
:10A91000525F53544F524147455F46554C4C0000DF
:10A920004E52465F4552524F525F4E554C4C0000BE
:10A930004E52465F4552524F525F494E56414C4926
:10A94000445F504152414D004E52465F4552524F76
:10A95000525F4E4F5F4D454D000000004E52465F26
:10A960004552524F525F464F5242494444454E0071
:10A970004E52465F4552524F525F4452565F5457B3
:10A98000495F4552525F4F56455252554E000000A6
:10A990004E52465F4552524F525F494E56414C49C6
:10A9A000445F4144445200004E52465F4552524F6C
:10A9B000525F5245534F5552434553004E52465FE6
:10A9C0004552524F525F494E56414C49445F464CA6
:10A9D000414753004E52465F53554343455353003E
:10A9E0004E52465F4552524F525F424C455F49506E
:10A9F00053505F4348414E4E454C5F414C52454198
:10AA000044595F4558495354530000004E52465F25
:10AA10004552524F525F434F4E4E5F434F554E5437
:10AA2000000000004E52465F4552524F525F54495B
:10AA30004D454F55540000004E52465F4552524F0F
:10AA4000525F4255535900007761726E696E67001C
:10AA500064656275670000001B5B313B33306D003D
:10AA60001B5B306D000000001B5B313B33316D0020
:10AA70001B5B313B33326D001B5B313B33336D006D
:10AA80001B5B313B33346D001B5B313B33356D0059
:10AA90001B5B313B33366D001B5B313B33376D0045
:10AAA000696E666F000000006572726F72000000D0
:10AAB00073645F626C655F6366675F7365742829A2
:10AAC0002072657475726E656420257320776865E1
:10AAD0006E20617474656D7074696E6720746F2088
:10AAE00073657420424C455F47415454535F43465D
:10AAF000475F534552564943455F4348414E47459A
:10AB0000442E000073645F626C655F6366675F7309
:10AB1000657428292072657475726E6564202573CA
:10AB2000207768656E20617474656D7074696E67F6
:10AB300020746F2073657420424C455F434F4D4D28
:10AB40004F4E5F4346475F56535F555549442E006D
:10AB500073645F626C655F6366675F736574282901
:10AB60002072657475726E65642025732077686540
:10AB70006E20617474656D7074696E6720746F20E7
:10AB800073657420424C455F47415454535F4346BC
:10AB9000475F415454525F5441425F53495A452ED6
:10ABA0000000000073645F626C655F6366675F73DB
:10ABB000657428292072657475726E65642025732A
:10ABC000207768656E20617474656D7074696E6756
:10ABD00020746F2073657420424C455F434F4E4E86
:10ABE0005F4346475F4741502E00000073645F6239
:10ABF0006C655F6366675F7365742829207265748E
:10AC000075726E6564202573207768656E206174A7
:10AC100074656D7074696E6720746F20736574203D
:10AC2000424C455F4741505F4346475F524F4C455A
:10AC30005F434F554E542E00636C6F636B000000F2
:10AC4000434C4F434B0000004750494F54450000D0
:10AC50005052530055415254000000005541525487
:10AC6000450000006170705F627574746F6E000063
:10AC70006170705F74696D65720000007077725F5B
:10AC80006D676D7400000000736F72746C6973748B
:10AC900000000000756172745F6C6F675F626163D2
:10ACA0006B656E6400000000617070006E72665F1C
:10ACB000736468006E72665F7364685F626C6500DF
:10ACC0006E72665F7364685F736F6300A0AD0200AD
:10ACD000C81800200C010000AC660200ACAE0200F7
:10ACE000D4190020D4270000BC660200F8A402009A
:10ACF0000000000094AC02007019002038AC020083
:10AD00000000000040AC02000000000048AC02005F
:10AD10000000000050AC02000000000054AC020033
:10AD2000000000005CAC02000000000064AC020007
:10AD30000000000070AC0200000000007CAC0200CB
:10AD40000000000088AC020000000000A8AC020077
:10AD500000000303ACAC020000000303B4AC02002B
:10AD600000000303C0AC02000000030384190020AC
:10AD70007C19002084190020301C002018000000DD
:10AD8000BD9B0200000000007D8C0200000000005E
:10AD90007D8D020000000000419A020000000000CA
:10ADA000FF000000EC1900201F0000000000000060
:10ADB0000000000000000000000000000000000093
:10ADC0000000000000000000000000000000000083
:10ADD0000000000000000000000000000000000073
:10ADE0000000000000000000000000000000000063
:10ADF0000000000000000000000000000000000053
:10AE000000100140110004000000000000000000DC
:10AE10000000000000000000000000000000000032
:10AE20000000000000000000000000000000000022
:10AE300000000000000000000020004000000000B2
:10AE4000002000400000000000000000FF000000A3
:10AE5000FF000000000000000000000000000000F3
:10AE600000000000000000000000000000000000E2
:10AE7000A8AA020048AA0200A0AA020050AA020042
:10AE800060AA020058AA020068AA020070AA020082
:10AE900078AA020080AA020088AA020090AA0200F2
:0CAEA00098AA0200000000000090D003FF
:040000050002620192
:00000001FF
